{
	"contracts/4_ProposalContract.sol": {
		"ProposalContract": {
			"abi": [
				{
					"inputs": [],
					"stateMutability": "nonpayable",
					"type": "constructor"
				},
				{
					"inputs": [
						{
							"internalType": "string",
							"name": "_description",
							"type": "string"
						},
						{
							"internalType": "uint256",
							"name": "_total_vote_to_end",
							"type": "uint256"
						}
					],
					"name": "create",
					"outputs": [],
					"stateMutability": "nonpayable",
					"type": "function"
				},
				{
					"inputs": [],
					"name": "getCurrentProposal",
					"outputs": [
						{
							"components": [
								{
									"internalType": "string",
									"name": "title",
									"type": "string"
								},
								{
									"internalType": "string",
									"name": "description",
									"type": "string"
								},
								{
									"internalType": "uint256",
									"name": "approve",
									"type": "uint256"
								},
								{
									"internalType": "uint256",
									"name": "reject",
									"type": "uint256"
								},
								{
									"internalType": "uint256",
									"name": "pass",
									"type": "uint256"
								},
								{
									"internalType": "uint256",
									"name": "total_vote_to_end",
									"type": "uint256"
								},
								{
									"internalType": "bool",
									"name": "current_state",
									"type": "bool"
								},
								{
									"internalType": "bool",
									"name": "is_active",
									"type": "bool"
								}
							],
							"internalType": "struct ProposalContract.Proposal",
							"name": "",
							"type": "tuple"
						}
					],
					"stateMutability": "view",
					"type": "function"
				},
				{
					"inputs": [
						{
							"internalType": "uint256",
							"name": "number",
							"type": "uint256"
						}
					],
					"name": "getProposal",
					"outputs": [
						{
							"components": [
								{
									"internalType": "string",
									"name": "title",
									"type": "string"
								},
								{
									"internalType": "string",
									"name": "description",
									"type": "string"
								},
								{
									"internalType": "uint256",
									"name": "approve",
									"type": "uint256"
								},
								{
									"internalType": "uint256",
									"name": "reject",
									"type": "uint256"
								},
								{
									"internalType": "uint256",
									"name": "pass",
									"type": "uint256"
								},
								{
									"internalType": "uint256",
									"name": "total_vote_to_end",
									"type": "uint256"
								},
								{
									"internalType": "bool",
									"name": "current_state",
									"type": "bool"
								},
								{
									"internalType": "bool",
									"name": "is_active",
									"type": "bool"
								}
							],
							"internalType": "struct ProposalContract.Proposal",
							"name": "",
							"type": "tuple"
						}
					],
					"stateMutability": "view",
					"type": "function"
				},
				{
					"inputs": [
						{
							"internalType": "address",
							"name": "_address",
							"type": "address"
						}
					],
					"name": "isVoted",
					"outputs": [
						{
							"internalType": "bool",
							"name": "",
							"type": "bool"
						}
					],
					"stateMutability": "view",
					"type": "function"
				},
				{
					"inputs": [],
					"name": "teminateProposal",
					"outputs": [],
					"stateMutability": "nonpayable",
					"type": "function"
				},
				{
					"inputs": [
						{
							"internalType": "uint8",
							"name": "choice",
							"type": "uint8"
						}
					],
					"name": "vote",
					"outputs": [],
					"stateMutability": "nonpayable",
					"type": "function"
				}
			],
			"devdoc": {
				"kind": "dev",
				"methods": {},
				"version": 1
			},
			"evm": {
				"assembly": "    /* \"contracts/4_ProposalContract.sol\":70:3102  contract ProposalContract {... */\n  mstore(0x40, 0x80)\n    /* \"contracts/4_ProposalContract.sol\":467:558  constructor() {... */\n  callvalue\n  dup1\n  iszero\n  tag_1\n  jumpi\n  revert(0x00, 0x00)\ntag_1:\n  pop\n    /* \"contracts/4_ProposalContract.sol\":499:509  msg.sender */\n  caller\n    /* \"contracts/4_ProposalContract.sol\":491:496  owner */\n  0x00\n  0x00\n    /* \"contracts/4_ProposalContract.sol\":491:509  owner = msg.sender */\n  0x0100\n  exp\n  dup2\n  sload\n  dup2\n  0xffffffffffffffffffffffffffffffffffffffff\n  mul\n  not\n  and\n  swap1\n  dup4\n  0xffffffffffffffffffffffffffffffffffffffff\n  and\n  mul\n  or\n  swap1\n  sstore\n  pop\n    /* \"contracts/4_ProposalContract.sol\":519:534  voted_addresses */\n  0x02\n    /* \"contracts/4_ProposalContract.sol\":540:550  msg.sender */\n  caller\n    /* \"contracts/4_ProposalContract.sol\":519:551  voted_addresses.push(msg.sender) */\n  swap1\n  dup1\n  0x01\n  dup2\n  sload\n  add\n  dup1\n  dup3\n  sstore\n  dup1\n  swap2\n  pop\n  pop\n  0x01\n  swap1\n  sub\n  swap1\n  0x00\n  mstore\n  keccak256(0x00, 0x20)\n  add\n  0x00\n  swap1\n  swap2\n  swap1\n  swap2\n  swap1\n  swap2\n  0x0100\n  exp\n  dup2\n  sload\n  dup2\n  0xffffffffffffffffffffffffffffffffffffffff\n  mul\n  not\n  and\n  swap1\n  dup4\n  0xffffffffffffffffffffffffffffffffffffffff\n  and\n  mul\n  or\n  swap1\n  sstore\n  pop\n    /* \"contracts/4_ProposalContract.sol\":70:3102  contract ProposalContract {... */\n  dataSize(sub_0)\n  dup1\n  dataOffset(sub_0)\n  0x00\n  codecopy\n  0x00\n  return\nstop\n\nsub_0: assembly {\n        /* \"contracts/4_ProposalContract.sol\":70:3102  contract ProposalContract {... */\n      mstore(0x40, 0x80)\n      callvalue\n      dup1\n      iszero\n      tag_1\n      jumpi\n      revert(0x00, 0x00)\n    tag_1:\n      pop\n      jumpi(tag_2, lt(calldatasize, 0x04))\n      shr(0xe0, calldataload(0x00))\n      dup1\n      0x41ec6870\n      eq\n      tag_3\n      jumpi\n      dup1\n      0x46f81a87\n      eq\n      tag_4\n      jumpi\n      dup1\n      0x89190393\n      eq\n      tag_5\n      jumpi\n      dup1\n      0xb3f98adc\n      eq\n      tag_6\n      jumpi\n      dup1\n      0xc7f758a8\n      eq\n      tag_7\n      jumpi\n      dup1\n      0xcbff75cb\n      eq\n      tag_8\n      jumpi\n    tag_2:\n      revert(0x00, 0x00)\n        /* \"contracts/4_ProposalContract.sol\":2591:2709  function getCurrentProposal() external view returns(Proposal memory) {... */\n    tag_3:\n      tag_9\n      tag_10\n      jump\t// in\n    tag_9:\n      mload(0x40)\n      tag_11\n      swap2\n      swap1\n      tag_12\n      jump\t// in\n    tag_11:\n      mload(0x40)\n      dup1\n      swap2\n      sub\n      swap1\n      return\n        /* \"contracts/4_ProposalContract.sol\":699:921  function create(string calldata _description, uint256 _total_vote_to_end) external {... */\n    tag_4:\n      tag_13\n      0x04\n      dup1\n      calldatasize\n      sub\n      dup2\n      add\n      swap1\n      tag_14\n      swap2\n      swap1\n      tag_15\n      jump\t// in\n    tag_14:\n      tag_16\n      jump\t// in\n    tag_13:\n      stop\n        /* \"contracts/4_ProposalContract.sol\":2471:2585  function teminateProposal() external onlyOwner active {... */\n    tag_5:\n      tag_17\n      tag_18\n      jump\t// in\n    tag_17:\n      stop\n        /* \"contracts/4_ProposalContract.sol\":1187:1990  function vote(uint8 choice) external {... */\n    tag_6:\n      tag_19\n      0x04\n      dup1\n      calldatasize\n      sub\n      dup2\n      add\n      swap1\n      tag_20\n      swap2\n      swap1\n      tag_21\n      jump\t// in\n    tag_20:\n      tag_22\n      jump\t// in\n    tag_19:\n      stop\n        /* \"contracts/4_ProposalContract.sol\":2975:3099  function getProposal(uint256 number) external view returns(Proposal memory) {... */\n    tag_7:\n      tag_23\n      0x04\n      dup1\n      calldatasize\n      sub\n      dup2\n      add\n      swap1\n      tag_24\n      swap2\n      swap1\n      tag_25\n      jump\t// in\n    tag_24:\n      tag_26\n      jump\t// in\n    tag_23:\n      mload(0x40)\n      tag_27\n      swap2\n      swap1\n      tag_12\n      jump\t// in\n    tag_27:\n      mload(0x40)\n      dup1\n      swap2\n      sub\n      swap1\n      return\n        /* \"contracts/4_ProposalContract.sol\":2715:2969  function isVoted(address _address) public view returns (bool) {... */\n    tag_8:\n      tag_28\n      0x04\n      dup1\n      calldatasize\n      sub\n      dup2\n      add\n      swap1\n      tag_29\n      swap2\n      swap1\n      tag_30\n      jump\t// in\n    tag_29:\n      tag_31\n      jump\t// in\n    tag_28:\n      mload(0x40)\n      tag_32\n      swap2\n      swap1\n      tag_33\n      jump\t// in\n    tag_32:\n      mload(0x40)\n      dup1\n      swap2\n      sub\n      swap1\n      return\n        /* \"contracts/4_ProposalContract.sol\":2591:2709  function getCurrentProposal() external view returns(Proposal memory) {... */\n    tag_10:\n        /* \"contracts/4_ProposalContract.sol\":2643:2658  Proposal memory */\n      tag_34\n      tag_35\n      jump\t// in\n    tag_34:\n        /* \"contracts/4_ProposalContract.sol\":2677:2693  proposal_history */\n      0x03\n        /* \"contracts/4_ProposalContract.sol\":2677:2702  proposal_history[counter] */\n      0x00\n        /* \"contracts/4_ProposalContract.sol\":2694:2701  counter */\n      sload(0x01)\n        /* \"contracts/4_ProposalContract.sol\":2677:2702  proposal_history[counter] */\n      dup2\n      mstore\n      0x20\n      add\n      swap1\n      dup2\n      mstore\n      0x20\n      add\n      0x00\n      keccak256\n        /* \"contracts/4_ProposalContract.sol\":2670:2702  return proposal_history[counter] */\n      mload(0x40)\n      dup1\n      0x0100\n      add\n      0x40\n      mstore\n      swap1\n      dup2\n      0x00\n      dup3\n      add\n      dup1\n      sload\n      tag_37\n      swap1\n      tag_38\n      jump\t// in\n    tag_37:\n      dup1\n      0x1f\n      add\n      0x20\n      dup1\n      swap2\n      div\n      mul\n      0x20\n      add\n      mload(0x40)\n      swap1\n      dup2\n      add\n      0x40\n      mstore\n      dup1\n      swap3\n      swap2\n      swap1\n      dup2\n      dup2\n      mstore\n      0x20\n      add\n      dup3\n      dup1\n      sload\n      tag_39\n      swap1\n      tag_38\n      jump\t// in\n    tag_39:\n      dup1\n      iszero\n      tag_40\n      jumpi\n      dup1\n      0x1f\n      lt\n      tag_41\n      jumpi\n      0x0100\n      dup1\n      dup4\n      sload\n      div\n      mul\n      dup4\n      mstore\n      swap2\n      0x20\n      add\n      swap2\n      jump(tag_40)\n    tag_41:\n      dup3\n      add\n      swap2\n      swap1\n      0x00\n      mstore\n      keccak256(0x00, 0x20)\n      swap1\n    tag_42:\n      dup2\n      sload\n      dup2\n      mstore\n      swap1\n      0x01\n      add\n      swap1\n      0x20\n      add\n      dup1\n      dup4\n      gt\n      tag_42\n      jumpi\n      dup3\n      swap1\n      sub\n      0x1f\n      and\n      dup3\n      add\n      swap2\n    tag_40:\n      pop\n      pop\n      pop\n      pop\n      pop\n      dup2\n      mstore\n      0x20\n      add\n      0x01\n      dup3\n      add\n      dup1\n      sload\n      tag_43\n      swap1\n      tag_38\n      jump\t// in\n    tag_43:\n      dup1\n      0x1f\n      add\n      0x20\n      dup1\n      swap2\n      div\n      mul\n      0x20\n      add\n      mload(0x40)\n      swap1\n      dup2\n      add\n      0x40\n      mstore\n      dup1\n      swap3\n      swap2\n      swap1\n      dup2\n      dup2\n      mstore\n      0x20\n      add\n      dup3\n      dup1\n      sload\n      tag_44\n      swap1\n      tag_38\n      jump\t// in\n    tag_44:\n      dup1\n      iszero\n      tag_45\n      jumpi\n      dup1\n      0x1f\n      lt\n      tag_46\n      jumpi\n      0x0100\n      dup1\n      dup4\n      sload\n      div\n      mul\n      dup4\n      mstore\n      swap2\n      0x20\n      add\n      swap2\n      jump(tag_45)\n    tag_46:\n      dup3\n      add\n      swap2\n      swap1\n      0x00\n      mstore\n      keccak256(0x00, 0x20)\n      swap1\n    tag_47:\n      dup2\n      sload\n      dup2\n      mstore\n      swap1\n      0x01\n      add\n      swap1\n      0x20\n      add\n      dup1\n      dup4\n      gt\n      tag_47\n      jumpi\n      dup3\n      swap1\n      sub\n      0x1f\n      and\n      dup3\n      add\n      swap2\n    tag_45:\n      pop\n      pop\n      pop\n      pop\n      pop\n      dup2\n      mstore\n      0x20\n      add\n      0x02\n      dup3\n      add\n      sload\n      dup2\n      mstore\n      0x20\n      add\n      0x03\n      dup3\n      add\n      sload\n      dup2\n      mstore\n      0x20\n      add\n      0x04\n      dup3\n      add\n      sload\n      dup2\n      mstore\n      0x20\n      add\n      0x05\n      dup3\n      add\n      sload\n      dup2\n      mstore\n      0x20\n      add\n      0x06\n      dup3\n      add\n      0x00\n      swap1\n      sload\n      swap1\n      0x0100\n      exp\n      swap1\n      div\n      0xff\n      and\n      iszero\n      iszero\n      iszero\n      iszero\n      dup2\n      mstore\n      0x20\n      add\n      0x06\n      dup3\n      add\n      0x01\n      swap1\n      sload\n      swap1\n      0x0100\n      exp\n      swap1\n      div\n      0xff\n      and\n      iszero\n      iszero\n      iszero\n      iszero\n      dup2\n      mstore\n      pop\n      pop\n      swap1\n      pop\n        /* \"contracts/4_ProposalContract.sol\":2591:2709  function getCurrentProposal() external view returns(Proposal memory) {... */\n      swap1\n      jump\t// out\n        /* \"contracts/4_ProposalContract.sol\":699:921  function create(string calldata _description, uint256 _total_vote_to_end) external {... */\n    tag_16:\n        /* \"contracts/4_ProposalContract.sol\":803:804  1 */\n      0x01\n        /* \"contracts/4_ProposalContract.sol\":792:799  counter */\n      dup1\n      0x00\n        /* \"contracts/4_ProposalContract.sol\":792:804  counter += 1 */\n      dup3\n      dup3\n      sload\n      tag_49\n      swap2\n      swap1\n      tag_50\n      jump\t// in\n    tag_49:\n      swap3\n      pop\n      pop\n      dup2\n      swap1\n      sstore\n      pop\n        /* \"contracts/4_ProposalContract.sol\":842:914  Proposal(\"title\",_description, 0, 0, 0, _total_vote_to_end, false, true) */\n      mload(0x40)\n      dup1\n      0x0100\n      add\n      0x40\n      mstore\n      dup1\n      mload(0x40)\n      dup1\n      0x40\n      add\n      0x40\n      mstore\n      dup1\n      0x05\n      dup2\n      mstore\n      0x20\n      add\n      0x7469746c65000000000000000000000000000000000000000000000000000000\n      dup2\n      mstore\n      pop\n      dup2\n      mstore\n      0x20\n      add\n        /* \"contracts/4_ProposalContract.sol\":859:871  _description */\n      dup5\n      dup5\n        /* \"contracts/4_ProposalContract.sol\":842:914  Proposal(\"title\",_description, 0, 0, 0, _total_vote_to_end, false, true) */\n      dup1\n      dup1\n      0x1f\n      add\n      0x20\n      dup1\n      swap2\n      div\n      mul\n      0x20\n      add\n      mload(0x40)\n      swap1\n      dup2\n      add\n      0x40\n      mstore\n      dup1\n      swap4\n      swap3\n      swap2\n      swap1\n      dup2\n      dup2\n      mstore\n      0x20\n      add\n      dup4\n      dup4\n      dup1\n      dup3\n      dup5\n      calldatacopy\n      0x00\n      dup2\n      dup5\n      add\n      mstore\n      not(0x1f)\n      0x1f\n      dup3\n      add\n      and\n      swap1\n      pop\n      dup1\n      dup4\n      add\n      swap3\n      pop\n      pop\n      pop\n      pop\n      pop\n      pop\n      pop\n      dup2\n      mstore\n      0x20\n      add\n        /* \"contracts/4_ProposalContract.sol\":873:874  0 */\n      0x00\n        /* \"contracts/4_ProposalContract.sol\":842:914  Proposal(\"title\",_description, 0, 0, 0, _total_vote_to_end, false, true) */\n      dup2\n      mstore\n      0x20\n      add\n        /* \"contracts/4_ProposalContract.sol\":876:877  0 */\n      0x00\n        /* \"contracts/4_ProposalContract.sol\":842:914  Proposal(\"title\",_description, 0, 0, 0, _total_vote_to_end, false, true) */\n      dup2\n      mstore\n      0x20\n      add\n        /* \"contracts/4_ProposalContract.sol\":879:880  0 */\n      0x00\n        /* \"contracts/4_ProposalContract.sol\":842:914  Proposal(\"title\",_description, 0, 0, 0, _total_vote_to_end, false, true) */\n      dup2\n      mstore\n      0x20\n      add\n        /* \"contracts/4_ProposalContract.sol\":882:900  _total_vote_to_end */\n      dup3\n        /* \"contracts/4_ProposalContract.sol\":842:914  Proposal(\"title\",_description, 0, 0, 0, _total_vote_to_end, false, true) */\n      dup2\n      mstore\n      0x20\n      add\n        /* \"contracts/4_ProposalContract.sol\":902:907  false */\n      0x00\n        /* \"contracts/4_ProposalContract.sol\":842:914  Proposal(\"title\",_description, 0, 0, 0, _total_vote_to_end, false, true) */\n      iszero\n      iszero\n      dup2\n      mstore\n      0x20\n      add\n        /* \"contracts/4_ProposalContract.sol\":909:913  true */\n      0x01\n        /* \"contracts/4_ProposalContract.sol\":842:914  Proposal(\"title\",_description, 0, 0, 0, _total_vote_to_end, false, true) */\n      iszero\n      iszero\n      dup2\n      mstore\n      pop\n        /* \"contracts/4_ProposalContract.sol\":814:830  proposal_history */\n      0x03\n        /* \"contracts/4_ProposalContract.sol\":814:839  proposal_history[counter] */\n      0x00\n        /* \"contracts/4_ProposalContract.sol\":831:838  counter */\n      sload(0x01)\n        /* \"contracts/4_ProposalContract.sol\":814:839  proposal_history[counter] */\n      dup2\n      mstore\n      0x20\n      add\n      swap1\n      dup2\n      mstore\n      0x20\n      add\n      0x00\n      keccak256\n        /* \"contracts/4_ProposalContract.sol\":814:914  proposal_history[counter] = Proposal(\"title\",_description, 0, 0, 0, _total_vote_to_end, false, true) */\n      0x00\n      dup3\n      add\n      mload\n      dup2\n      0x00\n      add\n      swap1\n      dup2\n      tag_51\n      swap2\n      swap1\n      tag_52\n      jump\t// in\n    tag_51:\n      pop\n      0x20\n      dup3\n      add\n      mload\n      dup2\n      0x01\n      add\n      swap1\n      dup2\n      tag_53\n      swap2\n      swap1\n      tag_52\n      jump\t// in\n    tag_53:\n      pop\n      0x40\n      dup3\n      add\n      mload\n      dup2\n      0x02\n      add\n      sstore\n      0x60\n      dup3\n      add\n      mload\n      dup2\n      0x03\n      add\n      sstore\n      0x80\n      dup3\n      add\n      mload\n      dup2\n      0x04\n      add\n      sstore\n      0xa0\n      dup3\n      add\n      mload\n      dup2\n      0x05\n      add\n      sstore\n      0xc0\n      dup3\n      add\n      mload\n      dup2\n      0x06\n      add\n      exp(0x0100, 0x00)\n      dup2\n      sload\n      dup2\n      0xff\n      mul\n      not\n      and\n      swap1\n      dup4\n      iszero\n      iszero\n      mul\n      or\n      swap1\n      sstore\n      pop\n      0xe0\n      dup3\n      add\n      mload\n      dup2\n      0x06\n      add\n      exp(0x0100, 0x01)\n      dup2\n      sload\n      dup2\n      0xff\n      mul\n      not\n      and\n      swap1\n      dup4\n      iszero\n      iszero\n      mul\n      or\n      swap1\n      sstore\n      pop\n      swap1\n      pop\n      pop\n        /* \"contracts/4_ProposalContract.sol\":699:921  function create(string calldata _description, uint256 _total_vote_to_end) external {... */\n      pop\n      pop\n      pop\n      jump\t// out\n        /* \"contracts/4_ProposalContract.sol\":2471:2585  function teminateProposal() external onlyOwner active {... */\n    tag_18:\n        /* \"contracts/4_ProposalContract.sol\":617:622  owner */\n      0x00\n      0x00\n      swap1\n      sload\n      swap1\n      0x0100\n      exp\n      swap1\n      div\n      0xffffffffffffffffffffffffffffffffffffffff\n      and\n        /* \"contracts/4_ProposalContract.sol\":603:622  msg.sender == owner */\n      0xffffffffffffffffffffffffffffffffffffffff\n      and\n        /* \"contracts/4_ProposalContract.sol\":603:613  msg.sender */\n      caller\n        /* \"contracts/4_ProposalContract.sol\":603:622  msg.sender == owner */\n      0xffffffffffffffffffffffffffffffffffffffff\n      and\n      eq\n        /* \"contracts/4_ProposalContract.sol\":595:623  require(msg.sender == owner) */\n      tag_55\n      jumpi\n      revert(0x00, 0x00)\n    tag_55:\n        /* \"contracts/4_ProposalContract.sol\":1002:1006  true */\n      0x01\n        /* \"contracts/4_ProposalContract.sol\":963:1006  proposal_history[counter].is_active == true */\n      iszero\n      iszero\n        /* \"contracts/4_ProposalContract.sol\":963:979  proposal_history */\n      0x03\n        /* \"contracts/4_ProposalContract.sol\":963:988  proposal_history[counter] */\n      0x00\n        /* \"contracts/4_ProposalContract.sol\":980:987  counter */\n      sload(0x01)\n        /* \"contracts/4_ProposalContract.sol\":963:988  proposal_history[counter] */\n      dup2\n      mstore\n      0x20\n      add\n      swap1\n      dup2\n      mstore\n      0x20\n      add\n      0x00\n      keccak256\n        /* \"contracts/4_ProposalContract.sol\":963:998  proposal_history[counter].is_active */\n      0x06\n      add\n      0x01\n      swap1\n      sload\n      swap1\n      0x0100\n      exp\n      swap1\n      div\n      0xff\n      and\n        /* \"contracts/4_ProposalContract.sol\":963:1006  proposal_history[counter].is_active == true */\n      iszero\n      iszero\n      eq\n        /* \"contracts/4_ProposalContract.sol\":955:1037  require(proposal_history[counter].is_active == true, \"The proposal is not active\") */\n      tag_57\n      jumpi\n      mload(0x40)\n      0x08c379a000000000000000000000000000000000000000000000000000000000\n      dup2\n      mstore\n      0x04\n      add\n      tag_58\n      swap1\n      tag_59\n      jump\t// in\n    tag_58:\n      mload(0x40)\n      dup1\n      swap2\n      sub\n      swap1\n      revert\n    tag_57:\n        /* \"contracts/4_ProposalContract.sol\":2573:2578  false */\n      0x00\n        /* \"contracts/4_ProposalContract.sol\":2535:2551  proposal_history */\n      0x03\n        /* \"contracts/4_ProposalContract.sol\":2535:2560  proposal_history[counter] */\n      0x00\n        /* \"contracts/4_ProposalContract.sol\":2552:2559  counter */\n      sload(0x01)\n        /* \"contracts/4_ProposalContract.sol\":2535:2560  proposal_history[counter] */\n      dup2\n      mstore\n      0x20\n      add\n      swap1\n      dup2\n      mstore\n      0x20\n      add\n      0x00\n      keccak256\n        /* \"contracts/4_ProposalContract.sol\":2535:2570  proposal_history[counter].is_active */\n      0x06\n      add\n      0x01\n        /* \"contracts/4_ProposalContract.sol\":2535:2578  proposal_history[counter].is_active = false */\n      0x0100\n      exp\n      dup2\n      sload\n      dup2\n      0xff\n      mul\n      not\n      and\n      swap1\n      dup4\n      iszero\n      iszero\n      mul\n      or\n      swap1\n      sstore\n      pop\n        /* \"contracts/4_ProposalContract.sol\":2471:2585  function teminateProposal() external onlyOwner active {... */\n      jump\t// out\n        /* \"contracts/4_ProposalContract.sol\":1187:1990  function vote(uint8 choice) external {... */\n    tag_22:\n        /* \"contracts/4_ProposalContract.sol\":1234:1259  Proposal storage proposal */\n      0x00\n        /* \"contracts/4_ProposalContract.sol\":1262:1278  proposal_history */\n      0x03\n        /* \"contracts/4_ProposalContract.sol\":1262:1287  proposal_history[counter] */\n      0x00\n        /* \"contracts/4_ProposalContract.sol\":1279:1286  counter */\n      sload(0x01)\n        /* \"contracts/4_ProposalContract.sol\":1262:1287  proposal_history[counter] */\n      dup2\n      mstore\n      0x20\n      add\n      swap1\n      dup2\n      mstore\n      0x20\n      add\n      0x00\n      keccak256\n        /* \"contracts/4_ProposalContract.sol\":1234:1287  Proposal storage proposal = proposal_history[counter] */\n      swap1\n      pop\n        /* \"contracts/4_ProposalContract.sol\":1297:1315  uint256 total_vote */\n      0x00\n        /* \"contracts/4_ProposalContract.sol\":1355:1363  proposal */\n      dup2\n        /* \"contracts/4_ProposalContract.sol\":1355:1368  proposal.pass */\n      0x04\n      add\n      sload\n        /* \"contracts/4_ProposalContract.sol\":1337:1345  proposal */\n      dup3\n        /* \"contracts/4_ProposalContract.sol\":1337:1352  proposal.reject */\n      0x03\n      add\n      sload\n        /* \"contracts/4_ProposalContract.sol\":1318:1326  proposal */\n      dup4\n        /* \"contracts/4_ProposalContract.sol\":1318:1334  proposal.approve */\n      0x02\n      add\n      sload\n        /* \"contracts/4_ProposalContract.sol\":1318:1352  proposal.approve + proposal.reject */\n      tag_62\n      swap2\n      swap1\n      tag_50\n      jump\t// in\n    tag_62:\n        /* \"contracts/4_ProposalContract.sol\":1318:1368  proposal.approve + proposal.reject + proposal.pass */\n      tag_63\n      swap2\n      swap1\n      tag_50\n      jump\t// in\n    tag_63:\n        /* \"contracts/4_ProposalContract.sol\":1297:1368  uint256 total_vote = proposal.approve + proposal.reject + proposal.pass */\n      swap1\n      pop\n        /* \"contracts/4_ProposalContract.sol\":1416:1417  1 */\n      0x01\n        /* \"contracts/4_ProposalContract.sol\":1406:1412  choice */\n      dup4\n        /* \"contracts/4_ProposalContract.sol\":1406:1417  choice == 1 */\n      0xff\n      and\n      sub\n        /* \"contracts/4_ProposalContract.sol\":1402:1785  if (choice == 1) {... */\n      tag_64\n      jumpi\n        /* \"contracts/4_ProposalContract.sol\":1453:1454  1 */\n      0x01\n        /* \"contracts/4_ProposalContract.sol\":1433:1441  proposal */\n      dup3\n        /* \"contracts/4_ProposalContract.sol\":1433:1449  proposal.approve */\n      0x02\n      add\n      0x00\n        /* \"contracts/4_ProposalContract.sol\":1433:1454  proposal.approve += 1 */\n      dup3\n      dup3\n      sload\n      tag_65\n      swap2\n      swap1\n      tag_50\n      jump\t// in\n    tag_65:\n      swap3\n      pop\n      pop\n      dup2\n      swap1\n      sstore\n      pop\n        /* \"contracts/4_ProposalContract.sol\":1493:1516  calculateCurrentState() */\n      tag_66\n        /* \"contracts/4_ProposalContract.sol\":1493:1514  calculateCurrentState */\n      tag_67\n        /* \"contracts/4_ProposalContract.sol\":1493:1516  calculateCurrentState() */\n      jump\t// in\n    tag_66:\n        /* \"contracts/4_ProposalContract.sol\":1468:1476  proposal */\n      dup3\n        /* \"contracts/4_ProposalContract.sol\":1468:1490  proposal.current_state */\n      0x06\n      add\n      0x00\n        /* \"contracts/4_ProposalContract.sol\":1468:1516  proposal.current_state = calculateCurrentState() */\n      0x0100\n      exp\n      dup2\n      sload\n      dup2\n      0xff\n      mul\n      not\n      and\n      swap1\n      dup4\n      iszero\n      iszero\n      mul\n      or\n      swap1\n      sstore\n      pop\n        /* \"contracts/4_ProposalContract.sol\":1402:1785  if (choice == 1) {... */\n      jump(tag_68)\n    tag_64:\n        /* \"contracts/4_ProposalContract.sol\":1547:1548  2 */\n      0x02\n        /* \"contracts/4_ProposalContract.sol\":1537:1543  choice */\n      dup4\n        /* \"contracts/4_ProposalContract.sol\":1537:1548  choice == 2 */\n      0xff\n      and\n      sub\n        /* \"contracts/4_ProposalContract.sol\":1533:1785  if (choice == 2) {... */\n      tag_69\n      jumpi\n        /* \"contracts/4_ProposalContract.sol\":1583:1584  1 */\n      0x01\n        /* \"contracts/4_ProposalContract.sol\":1564:1572  proposal */\n      dup3\n        /* \"contracts/4_ProposalContract.sol\":1564:1579  proposal.reject */\n      0x03\n      add\n      0x00\n        /* \"contracts/4_ProposalContract.sol\":1564:1584  proposal.reject += 1 */\n      dup3\n      dup3\n      sload\n      tag_70\n      swap2\n      swap1\n      tag_50\n      jump\t// in\n    tag_70:\n      swap3\n      pop\n      pop\n      dup2\n      swap1\n      sstore\n      pop\n        /* \"contracts/4_ProposalContract.sol\":1623:1646  calculateCurrentState() */\n      tag_71\n        /* \"contracts/4_ProposalContract.sol\":1623:1644  calculateCurrentState */\n      tag_67\n        /* \"contracts/4_ProposalContract.sol\":1623:1646  calculateCurrentState() */\n      jump\t// in\n    tag_71:\n        /* \"contracts/4_ProposalContract.sol\":1598:1606  proposal */\n      dup3\n        /* \"contracts/4_ProposalContract.sol\":1598:1620  proposal.current_state */\n      0x06\n      add\n      0x00\n        /* \"contracts/4_ProposalContract.sol\":1598:1646  proposal.current_state = calculateCurrentState() */\n      0x0100\n      exp\n      dup2\n      sload\n      dup2\n      0xff\n      mul\n      not\n      and\n      swap1\n      dup4\n      iszero\n      iszero\n      mul\n      or\n      swap1\n      sstore\n      pop\n        /* \"contracts/4_ProposalContract.sol\":1533:1785  if (choice == 2) {... */\n      jump(tag_72)\n    tag_69:\n        /* \"contracts/4_ProposalContract.sol\":1677:1678  0 */\n      0x00\n        /* \"contracts/4_ProposalContract.sol\":1667:1673  choice */\n      dup4\n        /* \"contracts/4_ProposalContract.sol\":1667:1678  choice == 0 */\n      0xff\n      and\n      sub\n        /* \"contracts/4_ProposalContract.sol\":1663:1785  if (choice == 0) {... */\n      tag_73\n      jumpi\n        /* \"contracts/4_ProposalContract.sol\":1711:1712  1 */\n      0x01\n        /* \"contracts/4_ProposalContract.sol\":1694:1702  proposal */\n      dup3\n        /* \"contracts/4_ProposalContract.sol\":1694:1707  proposal.pass */\n      0x04\n      add\n      0x00\n        /* \"contracts/4_ProposalContract.sol\":1694:1712  proposal.pass += 1 */\n      dup3\n      dup3\n      sload\n      tag_74\n      swap2\n      swap1\n      tag_50\n      jump\t// in\n    tag_74:\n      swap3\n      pop\n      pop\n      dup2\n      swap1\n      sstore\n      pop\n        /* \"contracts/4_ProposalContract.sol\":1751:1774  calculateCurrentState() */\n      tag_75\n        /* \"contracts/4_ProposalContract.sol\":1751:1772  calculateCurrentState */\n      tag_67\n        /* \"contracts/4_ProposalContract.sol\":1751:1774  calculateCurrentState() */\n      jump\t// in\n    tag_75:\n        /* \"contracts/4_ProposalContract.sol\":1726:1734  proposal */\n      dup3\n        /* \"contracts/4_ProposalContract.sol\":1726:1748  proposal.current_state */\n      0x06\n      add\n      0x00\n        /* \"contracts/4_ProposalContract.sol\":1726:1774  proposal.current_state = calculateCurrentState() */\n      0x0100\n      exp\n      dup2\n      sload\n      dup2\n      0xff\n      mul\n      not\n      and\n      swap1\n      dup4\n      iszero\n      iszero\n      mul\n      or\n      swap1\n      sstore\n      pop\n        /* \"contracts/4_ProposalContract.sol\":1663:1785  if (choice == 0) {... */\n    tag_73:\n        /* \"contracts/4_ProposalContract.sol\":1533:1785  if (choice == 2) {... */\n    tag_72:\n        /* \"contracts/4_ProposalContract.sol\":1402:1785  if (choice == 1) {... */\n    tag_68:\n        /* \"contracts/4_ProposalContract.sol\":1843:1844  1 */\n      0x01\n        /* \"contracts/4_ProposalContract.sol\":1829:1839  total_vote */\n      dup2\n        /* \"contracts/4_ProposalContract.sol\":1800:1808  proposal */\n      dup4\n        /* \"contracts/4_ProposalContract.sol\":1800:1826  proposal.total_vote_to_end */\n      0x05\n      add\n      sload\n        /* \"contracts/4_ProposalContract.sol\":1800:1839  proposal.total_vote_to_end - total_vote */\n      tag_76\n      swap2\n      swap1\n      tag_77\n      jump\t// in\n    tag_76:\n        /* \"contracts/4_ProposalContract.sol\":1800:1844  proposal.total_vote_to_end - total_vote == 1 */\n      eq\n        /* \"contracts/4_ProposalContract.sol\":1799:1892  (proposal.total_vote_to_end - total_vote == 1) && (choice == 1 || choice == 2 || choice == 0) */\n      dup1\n      iszero\n      tag_78\n      jumpi\n      pop\n        /* \"contracts/4_ProposalContract.sol\":1860:1861  1 */\n      0x01\n        /* \"contracts/4_ProposalContract.sol\":1850:1856  choice */\n      dup4\n        /* \"contracts/4_ProposalContract.sol\":1850:1861  choice == 1 */\n      0xff\n      and\n      eq\n        /* \"contracts/4_ProposalContract.sol\":1850:1876  choice == 1 || choice == 2 */\n      dup1\n      tag_79\n      jumpi\n      pop\n        /* \"contracts/4_ProposalContract.sol\":1875:1876  2 */\n      0x02\n        /* \"contracts/4_ProposalContract.sol\":1865:1871  choice */\n      dup4\n        /* \"contracts/4_ProposalContract.sol\":1865:1876  choice == 2 */\n      0xff\n      and\n      eq\n        /* \"contracts/4_ProposalContract.sol\":1850:1876  choice == 1 || choice == 2 */\n    tag_79:\n        /* \"contracts/4_ProposalContract.sol\":1850:1891  choice == 1 || choice == 2 || choice == 0 */\n      dup1\n      tag_80\n      jumpi\n      pop\n        /* \"contracts/4_ProposalContract.sol\":1890:1891  0 */\n      0x00\n        /* \"contracts/4_ProposalContract.sol\":1880:1886  choice */\n      dup4\n        /* \"contracts/4_ProposalContract.sol\":1880:1891  choice == 0 */\n      0xff\n      and\n      eq\n        /* \"contracts/4_ProposalContract.sol\":1850:1891  choice == 1 || choice == 2 || choice == 0 */\n    tag_80:\n        /* \"contracts/4_ProposalContract.sol\":1799:1892  (proposal.total_vote_to_end - total_vote == 1) && (choice == 1 || choice == 2 || choice == 0) */\n    tag_78:\n        /* \"contracts/4_ProposalContract.sol\":1795:1984  if ((proposal.total_vote_to_end - total_vote == 1) && (choice == 1 || choice == 2 || choice == 0)) {... */\n      iszero\n      tag_81\n      jumpi\n        /* \"contracts/4_ProposalContract.sol\":1929:1934  false */\n      0x00\n        /* \"contracts/4_ProposalContract.sol\":1908:1916  proposal */\n      dup3\n        /* \"contracts/4_ProposalContract.sol\":1908:1926  proposal.is_active */\n      0x06\n      add\n      0x01\n        /* \"contracts/4_ProposalContract.sol\":1908:1934  proposal.is_active = false */\n      0x0100\n      exp\n      dup2\n      sload\n      dup2\n      0xff\n      mul\n      not\n      and\n      swap1\n      dup4\n      iszero\n      iszero\n      mul\n      or\n      swap1\n      sstore\n      pop\n        /* \"contracts/4_ProposalContract.sol\":1948:1973  voted_addresses = [owner] */\n      mload(0x40)\n      dup1\n      0x20\n      add\n      0x40\n      mstore\n      dup1\n        /* \"contracts/4_ProposalContract.sol\":1967:1972  owner */\n      0x00\n      0x00\n      swap1\n      sload\n      swap1\n      0x0100\n      exp\n      swap1\n      div\n      0xffffffffffffffffffffffffffffffffffffffff\n      and\n        /* \"contracts/4_ProposalContract.sol\":1948:1973  voted_addresses = [owner] */\n      0xffffffffffffffffffffffffffffffffffffffff\n      and\n      0xffffffffffffffffffffffffffffffffffffffff\n      and\n      dup2\n      mstore\n      pop\n        /* \"contracts/4_ProposalContract.sol\":1948:1963  voted_addresses */\n      0x02\n        /* \"contracts/4_ProposalContract.sol\":1948:1973  voted_addresses = [owner] */\n      swap1\n      0x01\n      tag_82\n      swap3\n      swap2\n      swap1\n      tag_83\n      jump\t// in\n    tag_82:\n      pop\n        /* \"contracts/4_ProposalContract.sol\":1795:1984  if ((proposal.total_vote_to_end - total_vote == 1) && (choice == 1 || choice == 2 || choice == 0)) {... */\n    tag_81:\n        /* \"contracts/4_ProposalContract.sol\":1224:1990  {... */\n      pop\n      pop\n        /* \"contracts/4_ProposalContract.sol\":1187:1990  function vote(uint8 choice) external {... */\n      pop\n      jump\t// out\n        /* \"contracts/4_ProposalContract.sol\":2975:3099  function getProposal(uint256 number) external view returns(Proposal memory) {... */\n    tag_26:\n        /* \"contracts/4_ProposalContract.sol\":3034:3049  Proposal memory */\n      tag_84\n      tag_35\n      jump\t// in\n    tag_84:\n        /* \"contracts/4_ProposalContract.sol\":3068:3084  proposal_history */\n      0x03\n        /* \"contracts/4_ProposalContract.sol\":3068:3092  proposal_history[number] */\n      0x00\n        /* \"contracts/4_ProposalContract.sol\":3085:3091  number */\n      dup4\n        /* \"contracts/4_ProposalContract.sol\":3068:3092  proposal_history[number] */\n      dup2\n      mstore\n      0x20\n      add\n      swap1\n      dup2\n      mstore\n      0x20\n      add\n      0x00\n      keccak256\n        /* \"contracts/4_ProposalContract.sol\":3061:3092  return proposal_history[number] */\n      mload(0x40)\n      dup1\n      0x0100\n      add\n      0x40\n      mstore\n      swap1\n      dup2\n      0x00\n      dup3\n      add\n      dup1\n      sload\n      tag_86\n      swap1\n      tag_38\n      jump\t// in\n    tag_86:\n      dup1\n      0x1f\n      add\n      0x20\n      dup1\n      swap2\n      div\n      mul\n      0x20\n      add\n      mload(0x40)\n      swap1\n      dup2\n      add\n      0x40\n      mstore\n      dup1\n      swap3\n      swap2\n      swap1\n      dup2\n      dup2\n      mstore\n      0x20\n      add\n      dup3\n      dup1\n      sload\n      tag_87\n      swap1\n      tag_38\n      jump\t// in\n    tag_87:\n      dup1\n      iszero\n      tag_88\n      jumpi\n      dup1\n      0x1f\n      lt\n      tag_89\n      jumpi\n      0x0100\n      dup1\n      dup4\n      sload\n      div\n      mul\n      dup4\n      mstore\n      swap2\n      0x20\n      add\n      swap2\n      jump(tag_88)\n    tag_89:\n      dup3\n      add\n      swap2\n      swap1\n      0x00\n      mstore\n      keccak256(0x00, 0x20)\n      swap1\n    tag_90:\n      dup2\n      sload\n      dup2\n      mstore\n      swap1\n      0x01\n      add\n      swap1\n      0x20\n      add\n      dup1\n      dup4\n      gt\n      tag_90\n      jumpi\n      dup3\n      swap1\n      sub\n      0x1f\n      and\n      dup3\n      add\n      swap2\n    tag_88:\n      pop\n      pop\n      pop\n      pop\n      pop\n      dup2\n      mstore\n      0x20\n      add\n      0x01\n      dup3\n      add\n      dup1\n      sload\n      tag_91\n      swap1\n      tag_38\n      jump\t// in\n    tag_91:\n      dup1\n      0x1f\n      add\n      0x20\n      dup1\n      swap2\n      div\n      mul\n      0x20\n      add\n      mload(0x40)\n      swap1\n      dup2\n      add\n      0x40\n      mstore\n      dup1\n      swap3\n      swap2\n      swap1\n      dup2\n      dup2\n      mstore\n      0x20\n      add\n      dup3\n      dup1\n      sload\n      tag_92\n      swap1\n      tag_38\n      jump\t// in\n    tag_92:\n      dup1\n      iszero\n      tag_93\n      jumpi\n      dup1\n      0x1f\n      lt\n      tag_94\n      jumpi\n      0x0100\n      dup1\n      dup4\n      sload\n      div\n      mul\n      dup4\n      mstore\n      swap2\n      0x20\n      add\n      swap2\n      jump(tag_93)\n    tag_94:\n      dup3\n      add\n      swap2\n      swap1\n      0x00\n      mstore\n      keccak256(0x00, 0x20)\n      swap1\n    tag_95:\n      dup2\n      sload\n      dup2\n      mstore\n      swap1\n      0x01\n      add\n      swap1\n      0x20\n      add\n      dup1\n      dup4\n      gt\n      tag_95\n      jumpi\n      dup3\n      swap1\n      sub\n      0x1f\n      and\n      dup3\n      add\n      swap2\n    tag_93:\n      pop\n      pop\n      pop\n      pop\n      pop\n      dup2\n      mstore\n      0x20\n      add\n      0x02\n      dup3\n      add\n      sload\n      dup2\n      mstore\n      0x20\n      add\n      0x03\n      dup3\n      add\n      sload\n      dup2\n      mstore\n      0x20\n      add\n      0x04\n      dup3\n      add\n      sload\n      dup2\n      mstore\n      0x20\n      add\n      0x05\n      dup3\n      add\n      sload\n      dup2\n      mstore\n      0x20\n      add\n      0x06\n      dup3\n      add\n      0x00\n      swap1\n      sload\n      swap1\n      0x0100\n      exp\n      swap1\n      div\n      0xff\n      and\n      iszero\n      iszero\n      iszero\n      iszero\n      dup2\n      mstore\n      0x20\n      add\n      0x06\n      dup3\n      add\n      0x01\n      swap1\n      sload\n      swap1\n      0x0100\n      exp\n      swap1\n      div\n      0xff\n      and\n      iszero\n      iszero\n      iszero\n      iszero\n      dup2\n      mstore\n      pop\n      pop\n      swap1\n      pop\n        /* \"contracts/4_ProposalContract.sol\":2975:3099  function getProposal(uint256 number) external view returns(Proposal memory) {... */\n      swap2\n      swap1\n      pop\n      jump\t// out\n        /* \"contracts/4_ProposalContract.sol\":2715:2969  function isVoted(address _address) public view returns (bool) {... */\n    tag_31:\n        /* \"contracts/4_ProposalContract.sol\":2771:2775  bool */\n      0x00\n        /* \"contracts/4_ProposalContract.sol\":2792:2798  uint i */\n      0x00\n        /* \"contracts/4_ProposalContract.sol\":2801:2802  0 */\n      0x00\n        /* \"contracts/4_ProposalContract.sol\":2792:2802  uint i = 0 */\n      swap1\n      pop\n        /* \"contracts/4_ProposalContract.sol\":2787:2941  for (uint i = 0; i < voted_addresses.length; i++) {... */\n    tag_97:\n        /* \"contracts/4_ProposalContract.sol\":2808:2823  voted_addresses */\n      0x02\n        /* \"contracts/4_ProposalContract.sol\":2808:2830  voted_addresses.length */\n      dup1\n      sload\n      swap1\n      pop\n        /* \"contracts/4_ProposalContract.sol\":2804:2805  i */\n      dup2\n        /* \"contracts/4_ProposalContract.sol\":2804:2830  i < voted_addresses.length */\n      lt\n        /* \"contracts/4_ProposalContract.sol\":2787:2941  for (uint i = 0; i < voted_addresses.length; i++) {... */\n      iszero\n      tag_98\n      jumpi\n        /* \"contracts/4_ProposalContract.sol\":2877:2885  _address */\n      dup3\n        /* \"contracts/4_ProposalContract.sol\":2855:2885  voted_addresses[i] == _address */\n      0xffffffffffffffffffffffffffffffffffffffff\n      and\n        /* \"contracts/4_ProposalContract.sol\":2855:2870  voted_addresses */\n      0x02\n        /* \"contracts/4_ProposalContract.sol\":2871:2872  i */\n      dup3\n        /* \"contracts/4_ProposalContract.sol\":2855:2873  voted_addresses[i] */\n      dup2\n      sload\n      dup2\n      lt\n      tag_100\n      jumpi\n      tag_101\n      tag_102\n      jump\t// in\n    tag_101:\n    tag_100:\n      swap1\n      0x00\n      mstore\n      keccak256(0x00, 0x20)\n      add\n      0x00\n      swap1\n      sload\n      swap1\n      0x0100\n      exp\n      swap1\n      div\n      0xffffffffffffffffffffffffffffffffffffffff\n      and\n        /* \"contracts/4_ProposalContract.sol\":2855:2885  voted_addresses[i] == _address */\n      0xffffffffffffffffffffffffffffffffffffffff\n      and\n      sub\n        /* \"contracts/4_ProposalContract.sol\":2851:2931  if (voted_addresses[i] == _address) {... */\n      tag_104\n      jumpi\n        /* \"contracts/4_ProposalContract.sol\":2912:2916  true */\n      0x01\n        /* \"contracts/4_ProposalContract.sol\":2905:2916  return true */\n      swap2\n      pop\n      pop\n      jump(tag_96)\n        /* \"contracts/4_ProposalContract.sol\":2851:2931  if (voted_addresses[i] == _address) {... */\n    tag_104:\n        /* \"contracts/4_ProposalContract.sol\":2832:2835  i++ */\n      dup1\n      dup1\n      0x01\n      add\n      swap2\n      pop\n      pop\n        /* \"contracts/4_ProposalContract.sol\":2787:2941  for (uint i = 0; i < voted_addresses.length; i++) {... */\n      jump(tag_97)\n    tag_98:\n      pop\n        /* \"contracts/4_ProposalContract.sol\":2957:2962  false */\n      0x00\n        /* \"contracts/4_ProposalContract.sol\":2950:2962  return false */\n      swap1\n      pop\n        /* \"contracts/4_ProposalContract.sol\":2715:2969  function isVoted(address _address) public view returns (bool) {... */\n    tag_96:\n      swap2\n      swap1\n      pop\n      jump\t// out\n        /* \"contracts/4_ProposalContract.sol\":1996:2465  function calculateCurrentState() private view returns(bool) {... */\n    tag_67:\n        /* \"contracts/4_ProposalContract.sol\":2050:2054  bool */\n      0x00\n        /* \"contracts/4_ProposalContract.sol\":2066:2091  Proposal storage proposal */\n      0x00\n        /* \"contracts/4_ProposalContract.sol\":2094:2110  proposal_history */\n      0x03\n        /* \"contracts/4_ProposalContract.sol\":2094:2119  proposal_history[counter] */\n      0x00\n        /* \"contracts/4_ProposalContract.sol\":2111:2118  counter */\n      sload(0x01)\n        /* \"contracts/4_ProposalContract.sol\":2094:2119  proposal_history[counter] */\n      dup2\n      mstore\n      0x20\n      add\n      swap1\n      dup2\n      mstore\n      0x20\n      add\n      0x00\n      keccak256\n        /* \"contracts/4_ProposalContract.sol\":2066:2119  Proposal storage proposal = proposal_history[counter] */\n      swap1\n      pop\n        /* \"contracts/4_ProposalContract.sol\":2130:2145  uint256 approve */\n      0x00\n        /* \"contracts/4_ProposalContract.sol\":2148:2156  proposal */\n      dup2\n        /* \"contracts/4_ProposalContract.sol\":2148:2164  proposal.approve */\n      0x02\n      add\n      sload\n        /* \"contracts/4_ProposalContract.sol\":2130:2164  uint256 approve = proposal.approve */\n      swap1\n      pop\n        /* \"contracts/4_ProposalContract.sol\":2174:2188  uint256 reject */\n      0x00\n        /* \"contracts/4_ProposalContract.sol\":2191:2199  proposal */\n      dup3\n        /* \"contracts/4_ProposalContract.sol\":2191:2206  proposal.reject */\n      0x03\n      add\n      sload\n        /* \"contracts/4_ProposalContract.sol\":2174:2206  uint256 reject = proposal.reject */\n      swap1\n      pop\n        /* \"contracts/4_ProposalContract.sol\":2216:2228  uint256 pass */\n      0x00\n        /* \"contracts/4_ProposalContract.sol\":2231:2239  proposal */\n      dup4\n        /* \"contracts/4_ProposalContract.sol\":2231:2244  proposal.pass */\n      0x04\n      add\n      sload\n        /* \"contracts/4_ProposalContract.sol\":2216:2244  uint256 pass = proposal.pass */\n      swap1\n      pop\n        /* \"contracts/4_ProposalContract.sol\":2279:2280  1 */\n      0x01\n        /* \"contracts/4_ProposalContract.sol\":2274:2275  2 */\n      0x02\n        /* \"contracts/4_ProposalContract.sol\":2259:2267  proposal */\n      dup6\n        /* \"contracts/4_ProposalContract.sol\":2259:2272  proposal.pass */\n      0x04\n      add\n      sload\n        /* \"contracts/4_ProposalContract.sol\":2259:2275  proposal.pass %2 */\n      tag_106\n      swap2\n      swap1\n      tag_107\n      jump\t// in\n    tag_106:\n        /* \"contracts/4_ProposalContract.sol\":2259:2280  proposal.pass %2 == 1 */\n      sub\n        /* \"contracts/4_ProposalContract.sol\":2255:2315  if (proposal.pass %2 == 1){... */\n      tag_108\n      jumpi\n        /* \"contracts/4_ProposalContract.sol\":2303:2304  1 */\n      0x01\n        /* \"contracts/4_ProposalContract.sol\":2295:2304  pass += 1 */\n      dup2\n      tag_109\n      swap2\n      swap1\n      tag_50\n      jump\t// in\n    tag_109:\n      swap1\n      pop\n        /* \"contracts/4_ProposalContract.sol\":2255:2315  if (proposal.pass %2 == 1){... */\n    tag_108:\n        /* \"contracts/4_ProposalContract.sol\":2339:2340  2 */\n      0x02\n        /* \"contracts/4_ProposalContract.sol\":2332:2336  pass */\n      dup2\n        /* \"contracts/4_ProposalContract.sol\":2332:2340  pass / 2 */\n      tag_110\n      swap2\n      swap1\n      tag_111\n      jump\t// in\n    tag_110:\n        /* \"contracts/4_ProposalContract.sol\":2325:2340  pass = pass / 2 */\n      swap1\n      pop\n        /* \"contracts/4_ProposalContract.sol\":2374:2378  pass */\n      dup1\n        /* \"contracts/4_ProposalContract.sol\":2365:2371  reject */\n      dup3\n        /* \"contracts/4_ProposalContract.sol\":2365:2378  reject + pass */\n      tag_112\n      swap2\n      swap1\n      tag_50\n      jump\t// in\n    tag_112:\n        /* \"contracts/4_ProposalContract.sol\":2355:2362  approve */\n      dup4\n        /* \"contracts/4_ProposalContract.sol\":2355:2378  approve > reject + pass */\n      gt\n        /* \"contracts/4_ProposalContract.sol\":2351:2459  if (approve > reject + pass) {... */\n      iszero\n      tag_113\n      jumpi\n        /* \"contracts/4_ProposalContract.sol\":2401:2405  true */\n      0x01\n        /* \"contracts/4_ProposalContract.sol\":2394:2405  return true */\n      swap5\n      pop\n      pop\n      pop\n      pop\n      pop\n      jump(tag_105)\n        /* \"contracts/4_ProposalContract.sol\":2351:2459  if (approve > reject + pass) {... */\n    tag_113:\n        /* \"contracts/4_ProposalContract.sol\":2443:2448  false */\n      0x00\n        /* \"contracts/4_ProposalContract.sol\":2436:2448  return false */\n      swap5\n      pop\n      pop\n      pop\n      pop\n      pop\n        /* \"contracts/4_ProposalContract.sol\":1996:2465  function calculateCurrentState() private view returns(bool) {... */\n    tag_105:\n      swap1\n      jump\t// out\n    tag_35:\n      mload(0x40)\n      dup1\n      0x0100\n      add\n      0x40\n      mstore\n      dup1\n      0x60\n      dup2\n      mstore\n      0x20\n      add\n      0x60\n      dup2\n      mstore\n      0x20\n      add\n      0x00\n      dup2\n      mstore\n      0x20\n      add\n      0x00\n      dup2\n      mstore\n      0x20\n      add\n      0x00\n      dup2\n      mstore\n      0x20\n      add\n      0x00\n      dup2\n      mstore\n      0x20\n      add\n      iszero(iszero(0x00))\n      dup2\n      mstore\n      0x20\n      add\n      iszero(iszero(0x00))\n      dup2\n      mstore\n      pop\n      swap1\n      jump\t// out\n    tag_83:\n      dup3\n      dup1\n      sload\n      dup3\n      dup3\n      sstore\n      swap1\n      0x00\n      mstore\n      keccak256(0x00, 0x20)\n      swap1\n      dup2\n      add\n      swap3\n      dup3\n      iszero\n      tag_115\n      jumpi\n      swap2\n      0x20\n      mul\n      dup3\n      add\n    tag_116:\n      dup3\n      dup2\n      gt\n      iszero\n      tag_117\n      jumpi\n      dup3\n      mload\n      dup3\n      exp(0x0100, 0x00)\n      dup2\n      sload\n      dup2\n      0xffffffffffffffffffffffffffffffffffffffff\n      mul\n      not\n      and\n      swap1\n      dup4\n      0xffffffffffffffffffffffffffffffffffffffff\n      and\n      mul\n      or\n      swap1\n      sstore\n      pop\n      swap2\n      0x20\n      add\n      swap2\n      swap1\n      0x01\n      add\n      swap1\n      jump(tag_116)\n    tag_117:\n    tag_115:\n      pop\n      swap1\n      pop\n      tag_118\n      swap2\n      swap1\n      tag_119\n      jump\t// in\n    tag_118:\n      pop\n      swap1\n      jump\t// out\n    tag_119:\n    tag_120:\n      dup1\n      dup3\n      gt\n      iszero\n      tag_121\n      jumpi\n      0x00\n      dup2\n      0x00\n      swap1\n      sstore\n      pop\n      0x01\n      add\n      jump(tag_120)\n    tag_121:\n      pop\n      swap1\n      jump\t// out\n        /* \"#utility.yul\":7:106   */\n    tag_122:\n        /* \"#utility.yul\":59:65   */\n      0x00\n        /* \"#utility.yul\":93:98   */\n      dup2\n        /* \"#utility.yul\":87:99   */\n      mload\n        /* \"#utility.yul\":77:99   */\n      swap1\n      pop\n        /* \"#utility.yul\":7:106   */\n      swap2\n      swap1\n      pop\n      jump\t// out\n        /* \"#utility.yul\":112:271   */\n    tag_123:\n        /* \"#utility.yul\":186:197   */\n      0x00\n        /* \"#utility.yul\":220:226   */\n      dup3\n        /* \"#utility.yul\":215:218   */\n      dup3\n        /* \"#utility.yul\":208:227   */\n      mstore\n        /* \"#utility.yul\":260:264   */\n      0x20\n        /* \"#utility.yul\":255:258   */\n      dup3\n        /* \"#utility.yul\":251:265   */\n      add\n        /* \"#utility.yul\":236:265   */\n      swap1\n      pop\n        /* \"#utility.yul\":112:271   */\n      swap3\n      swap2\n      pop\n      pop\n      jump\t// out\n        /* \"#utility.yul\":277:416   */\n    tag_124:\n        /* \"#utility.yul\":366:372   */\n      dup3\n        /* \"#utility.yul\":361:364   */\n      dup2\n        /* \"#utility.yul\":356:359   */\n      dup4\n        /* \"#utility.yul\":350:373   */\n      mcopy\n        /* \"#utility.yul\":407:408   */\n      0x00\n        /* \"#utility.yul\":398:404   */\n      dup4\n        /* \"#utility.yul\":393:396   */\n      dup4\n        /* \"#utility.yul\":389:405   */\n      add\n        /* \"#utility.yul\":382:409   */\n      mstore\n        /* \"#utility.yul\":277:416   */\n      pop\n      pop\n      pop\n      jump\t// out\n        /* \"#utility.yul\":422:524   */\n    tag_125:\n        /* \"#utility.yul\":463:469   */\n      0x00\n        /* \"#utility.yul\":514:516   */\n      0x1f\n        /* \"#utility.yul\":510:517   */\n      not\n        /* \"#utility.yul\":505:507   */\n      0x1f\n        /* \"#utility.yul\":498:503   */\n      dup4\n        /* \"#utility.yul\":494:508   */\n      add\n        /* \"#utility.yul\":490:518   */\n      and\n        /* \"#utility.yul\":480:518   */\n      swap1\n      pop\n        /* \"#utility.yul\":422:524   */\n      swap2\n      swap1\n      pop\n      jump\t// out\n        /* \"#utility.yul\":530:887   */\n    tag_126:\n        /* \"#utility.yul\":608:611   */\n      0x00\n        /* \"#utility.yul\":636:675   */\n      tag_177\n        /* \"#utility.yul\":669:674   */\n      dup3\n        /* \"#utility.yul\":636:675   */\n      tag_122\n      jump\t// in\n    tag_177:\n        /* \"#utility.yul\":691:752   */\n      tag_178\n        /* \"#utility.yul\":745:751   */\n      dup2\n        /* \"#utility.yul\":740:743   */\n      dup6\n        /* \"#utility.yul\":691:752   */\n      tag_123\n      jump\t// in\n    tag_178:\n        /* \"#utility.yul\":684:752   */\n      swap4\n      pop\n        /* \"#utility.yul\":761:826   */\n      tag_179\n        /* \"#utility.yul\":819:825   */\n      dup2\n        /* \"#utility.yul\":814:817   */\n      dup6\n        /* \"#utility.yul\":807:811   */\n      0x20\n        /* \"#utility.yul\":800:805   */\n      dup7\n        /* \"#utility.yul\":796:812   */\n      add\n        /* \"#utility.yul\":761:826   */\n      tag_124\n      jump\t// in\n    tag_179:\n        /* \"#utility.yul\":851:880   */\n      tag_180\n        /* \"#utility.yul\":873:879   */\n      dup2\n        /* \"#utility.yul\":851:880   */\n      tag_125\n      jump\t// in\n    tag_180:\n        /* \"#utility.yul\":846:849   */\n      dup5\n        /* \"#utility.yul\":842:881   */\n      add\n        /* \"#utility.yul\":835:881   */\n      swap2\n      pop\n        /* \"#utility.yul\":612:887   */\n      pop\n        /* \"#utility.yul\":530:887   */\n      swap3\n      swap2\n      pop\n      pop\n      jump\t// out\n        /* \"#utility.yul\":893:970   */\n    tag_127:\n        /* \"#utility.yul\":930:937   */\n      0x00\n        /* \"#utility.yul\":959:964   */\n      dup2\n        /* \"#utility.yul\":948:964   */\n      swap1\n      pop\n        /* \"#utility.yul\":893:970   */\n      swap2\n      swap1\n      pop\n      jump\t// out\n        /* \"#utility.yul\":976:1084   */\n    tag_128:\n        /* \"#utility.yul\":1053:1077   */\n      tag_183\n        /* \"#utility.yul\":1071:1076   */\n      dup2\n        /* \"#utility.yul\":1053:1077   */\n      tag_127\n      jump\t// in\n    tag_183:\n        /* \"#utility.yul\":1048:1051   */\n      dup3\n        /* \"#utility.yul\":1041:1078   */\n      mstore\n        /* \"#utility.yul\":976:1084   */\n      pop\n      pop\n      jump\t// out\n        /* \"#utility.yul\":1090:1180   */\n    tag_129:\n        /* \"#utility.yul\":1124:1131   */\n      0x00\n        /* \"#utility.yul\":1167:1172   */\n      dup2\n        /* \"#utility.yul\":1160:1173   */\n      iszero\n        /* \"#utility.yul\":1153:1174   */\n      iszero\n        /* \"#utility.yul\":1142:1174   */\n      swap1\n      pop\n        /* \"#utility.yul\":1090:1180   */\n      swap2\n      swap1\n      pop\n      jump\t// out\n        /* \"#utility.yul\":1186:1285   */\n    tag_130:\n        /* \"#utility.yul\":1257:1278   */\n      tag_186\n        /* \"#utility.yul\":1272:1277   */\n      dup2\n        /* \"#utility.yul\":1257:1278   */\n      tag_129\n      jump\t// in\n    tag_186:\n        /* \"#utility.yul\":1252:1255   */\n      dup3\n        /* \"#utility.yul\":1245:1279   */\n      mstore\n        /* \"#utility.yul\":1186:1285   */\n      pop\n      pop\n      jump\t// out\n        /* \"#utility.yul\":1367:3116   */\n    tag_131:\n        /* \"#utility.yul\":1484:1487   */\n      0x00\n        /* \"#utility.yul\":1520:1526   */\n      0x0100\n        /* \"#utility.yul\":1515:1518   */\n      dup4\n        /* \"#utility.yul\":1511:1527   */\n      add\n        /* \"#utility.yul\":1610:1614   */\n      0x00\n        /* \"#utility.yul\":1603:1608   */\n      dup4\n        /* \"#utility.yul\":1599:1615   */\n      add\n        /* \"#utility.yul\":1593:1616   */\n      mload\n        /* \"#utility.yul\":1663:1666   */\n      dup5\n        /* \"#utility.yul\":1657:1661   */\n      dup3\n        /* \"#utility.yul\":1653:1667   */\n      sub\n        /* \"#utility.yul\":1646:1650   */\n      0x00\n        /* \"#utility.yul\":1641:1644   */\n      dup7\n        /* \"#utility.yul\":1637:1651   */\n      add\n        /* \"#utility.yul\":1630:1668   */\n      mstore\n        /* \"#utility.yul\":1689:1762   */\n      tag_188\n        /* \"#utility.yul\":1757:1761   */\n      dup3\n        /* \"#utility.yul\":1743:1755   */\n      dup3\n        /* \"#utility.yul\":1689:1762   */\n      tag_126\n      jump\t// in\n    tag_188:\n        /* \"#utility.yul\":1681:1762   */\n      swap2\n      pop\n        /* \"#utility.yul\":1537:1773   */\n      pop\n        /* \"#utility.yul\":1862:1866   */\n      0x20\n        /* \"#utility.yul\":1855:1860   */\n      dup4\n        /* \"#utility.yul\":1851:1867   */\n      add\n        /* \"#utility.yul\":1845:1868   */\n      mload\n        /* \"#utility.yul\":1915:1918   */\n      dup5\n        /* \"#utility.yul\":1909:1913   */\n      dup3\n        /* \"#utility.yul\":1905:1919   */\n      sub\n        /* \"#utility.yul\":1898:1902   */\n      0x20\n        /* \"#utility.yul\":1893:1896   */\n      dup7\n        /* \"#utility.yul\":1889:1903   */\n      add\n        /* \"#utility.yul\":1882:1920   */\n      mstore\n        /* \"#utility.yul\":1941:2014   */\n      tag_189\n        /* \"#utility.yul\":2009:2013   */\n      dup3\n        /* \"#utility.yul\":1995:2007   */\n      dup3\n        /* \"#utility.yul\":1941:2014   */\n      tag_126\n      jump\t// in\n    tag_189:\n        /* \"#utility.yul\":1933:2014   */\n      swap2\n      pop\n        /* \"#utility.yul\":1783:2025   */\n      pop\n        /* \"#utility.yul\":2110:2114   */\n      0x40\n        /* \"#utility.yul\":2103:2108   */\n      dup4\n        /* \"#utility.yul\":2099:2115   */\n      add\n        /* \"#utility.yul\":2093:2116   */\n      mload\n        /* \"#utility.yul\":2129:2192   */\n      tag_190\n        /* \"#utility.yul\":2186:2190   */\n      0x40\n        /* \"#utility.yul\":2181:2184   */\n      dup7\n        /* \"#utility.yul\":2177:2191   */\n      add\n        /* \"#utility.yul\":2163:2175   */\n      dup3\n        /* \"#utility.yul\":2129:2192   */\n      tag_128\n      jump\t// in\n    tag_190:\n        /* \"#utility.yul\":2035:2202   */\n      pop\n        /* \"#utility.yul\":2286:2290   */\n      0x60\n        /* \"#utility.yul\":2279:2284   */\n      dup4\n        /* \"#utility.yul\":2275:2291   */\n      add\n        /* \"#utility.yul\":2269:2292   */\n      mload\n        /* \"#utility.yul\":2305:2368   */\n      tag_191\n        /* \"#utility.yul\":2362:2366   */\n      0x60\n        /* \"#utility.yul\":2357:2360   */\n      dup7\n        /* \"#utility.yul\":2353:2367   */\n      add\n        /* \"#utility.yul\":2339:2351   */\n      dup3\n        /* \"#utility.yul\":2305:2368   */\n      tag_128\n      jump\t// in\n    tag_191:\n        /* \"#utility.yul\":2212:2378   */\n      pop\n        /* \"#utility.yul\":2460:2464   */\n      0x80\n        /* \"#utility.yul\":2453:2458   */\n      dup4\n        /* \"#utility.yul\":2449:2465   */\n      add\n        /* \"#utility.yul\":2443:2466   */\n      mload\n        /* \"#utility.yul\":2479:2542   */\n      tag_192\n        /* \"#utility.yul\":2536:2540   */\n      0x80\n        /* \"#utility.yul\":2531:2534   */\n      dup7\n        /* \"#utility.yul\":2527:2541   */\n      add\n        /* \"#utility.yul\":2513:2525   */\n      dup3\n        /* \"#utility.yul\":2479:2542   */\n      tag_128\n      jump\t// in\n    tag_192:\n        /* \"#utility.yul\":2388:2552   */\n      pop\n        /* \"#utility.yul\":2647:2651   */\n      0xa0\n        /* \"#utility.yul\":2640:2645   */\n      dup4\n        /* \"#utility.yul\":2636:2652   */\n      add\n        /* \"#utility.yul\":2630:2653   */\n      mload\n        /* \"#utility.yul\":2666:2729   */\n      tag_193\n        /* \"#utility.yul\":2723:2727   */\n      0xa0\n        /* \"#utility.yul\":2718:2721   */\n      dup7\n        /* \"#utility.yul\":2714:2728   */\n      add\n        /* \"#utility.yul\":2700:2712   */\n      dup3\n        /* \"#utility.yul\":2666:2729   */\n      tag_128\n      jump\t// in\n    tag_193:\n        /* \"#utility.yul\":2562:2739   */\n      pop\n        /* \"#utility.yul\":2830:2834   */\n      0xc0\n        /* \"#utility.yul\":2823:2828   */\n      dup4\n        /* \"#utility.yul\":2819:2835   */\n      add\n        /* \"#utility.yul\":2813:2836   */\n      mload\n        /* \"#utility.yul\":2849:2906   */\n      tag_194\n        /* \"#utility.yul\":2900:2904   */\n      0xc0\n        /* \"#utility.yul\":2895:2898   */\n      dup7\n        /* \"#utility.yul\":2891:2905   */\n      add\n        /* \"#utility.yul\":2877:2889   */\n      dup3\n        /* \"#utility.yul\":2849:2906   */\n      tag_130\n      jump\t// in\n    tag_194:\n        /* \"#utility.yul\":2749:2916   */\n      pop\n        /* \"#utility.yul\":3003:3007   */\n      0xe0\n        /* \"#utility.yul\":2996:3001   */\n      dup4\n        /* \"#utility.yul\":2992:3008   */\n      add\n        /* \"#utility.yul\":2986:3009   */\n      mload\n        /* \"#utility.yul\":3022:3079   */\n      tag_195\n        /* \"#utility.yul\":3073:3077   */\n      0xe0\n        /* \"#utility.yul\":3068:3071   */\n      dup7\n        /* \"#utility.yul\":3064:3078   */\n      add\n        /* \"#utility.yul\":3050:3062   */\n      dup3\n        /* \"#utility.yul\":3022:3079   */\n      tag_130\n      jump\t// in\n    tag_195:\n        /* \"#utility.yul\":2926:3089   */\n      pop\n        /* \"#utility.yul\":3106:3110   */\n      dup1\n        /* \"#utility.yul\":3099:3110   */\n      swap2\n      pop\n        /* \"#utility.yul\":1489:3116   */\n      pop\n        /* \"#utility.yul\":1367:3116   */\n      swap3\n      swap2\n      pop\n      pop\n      jump\t// out\n        /* \"#utility.yul\":3122:3491   */\n    tag_12:\n        /* \"#utility.yul\":3263:3267   */\n      0x00\n        /* \"#utility.yul\":3301:3303   */\n      0x20\n        /* \"#utility.yul\":3290:3299   */\n      dup3\n        /* \"#utility.yul\":3286:3304   */\n      add\n        /* \"#utility.yul\":3278:3304   */\n      swap1\n      pop\n        /* \"#utility.yul\":3350:3359   */\n      dup2\n        /* \"#utility.yul\":3344:3348   */\n      dup2\n        /* \"#utility.yul\":3340:3360   */\n      sub\n        /* \"#utility.yul\":3336:3337   */\n      0x00\n        /* \"#utility.yul\":3325:3334   */\n      dup4\n        /* \"#utility.yul\":3321:3338   */\n      add\n        /* \"#utility.yul\":3314:3361   */\n      mstore\n        /* \"#utility.yul\":3378:3484   */\n      tag_197\n        /* \"#utility.yul\":3479:3483   */\n      dup2\n        /* \"#utility.yul\":3470:3476   */\n      dup5\n        /* \"#utility.yul\":3378:3484   */\n      tag_131\n      jump\t// in\n    tag_197:\n        /* \"#utility.yul\":3370:3484   */\n      swap1\n      pop\n        /* \"#utility.yul\":3122:3491   */\n      swap3\n      swap2\n      pop\n      pop\n      jump\t// out\n        /* \"#utility.yul\":3578:3695   */\n    tag_133:\n        /* \"#utility.yul\":3687:3688   */\n      0x00\n        /* \"#utility.yul\":3684:3685   */\n      0x00\n        /* \"#utility.yul\":3677:3689   */\n      revert\n        /* \"#utility.yul\":3701:3818   */\n    tag_134:\n        /* \"#utility.yul\":3810:3811   */\n      0x00\n        /* \"#utility.yul\":3807:3808   */\n      0x00\n        /* \"#utility.yul\":3800:3812   */\n      revert\n        /* \"#utility.yul\":3824:3941   */\n    tag_135:\n        /* \"#utility.yul\":3933:3934   */\n      0x00\n        /* \"#utility.yul\":3930:3931   */\n      0x00\n        /* \"#utility.yul\":3923:3935   */\n      revert\n        /* \"#utility.yul\":3947:4064   */\n    tag_136:\n        /* \"#utility.yul\":4056:4057   */\n      0x00\n        /* \"#utility.yul\":4053:4054   */\n      0x00\n        /* \"#utility.yul\":4046:4058   */\n      revert\n        /* \"#utility.yul\":4070:4187   */\n    tag_137:\n        /* \"#utility.yul\":4179:4180   */\n      0x00\n        /* \"#utility.yul\":4176:4177   */\n      0x00\n        /* \"#utility.yul\":4169:4181   */\n      revert\n        /* \"#utility.yul\":4207:4760   */\n    tag_138:\n        /* \"#utility.yul\":4265:4273   */\n      0x00\n        /* \"#utility.yul\":4275:4281   */\n      0x00\n        /* \"#utility.yul\":4325:4328   */\n      dup4\n        /* \"#utility.yul\":4318:4322   */\n      0x1f\n        /* \"#utility.yul\":4310:4316   */\n      dup5\n        /* \"#utility.yul\":4306:4323   */\n      add\n        /* \"#utility.yul\":4302:4329   */\n      slt\n        /* \"#utility.yul\":4292:4414   */\n      tag_205\n      jumpi\n        /* \"#utility.yul\":4333:4412   */\n      tag_206\n      tag_135\n      jump\t// in\n    tag_206:\n        /* \"#utility.yul\":4292:4414   */\n    tag_205:\n        /* \"#utility.yul\":4446:4452   */\n      dup3\n        /* \"#utility.yul\":4433:4453   */\n      calldataload\n        /* \"#utility.yul\":4423:4453   */\n      swap1\n      pop\n        /* \"#utility.yul\":4476:4494   */\n      0xffffffffffffffff\n        /* \"#utility.yul\":4468:4474   */\n      dup2\n        /* \"#utility.yul\":4465:4495   */\n      gt\n        /* \"#utility.yul\":4462:4579   */\n      iszero\n      tag_207\n      jumpi\n        /* \"#utility.yul\":4498:4577   */\n      tag_208\n      tag_136\n      jump\t// in\n    tag_208:\n        /* \"#utility.yul\":4462:4579   */\n    tag_207:\n        /* \"#utility.yul\":4612:4616   */\n      0x20\n        /* \"#utility.yul\":4604:4610   */\n      dup4\n        /* \"#utility.yul\":4600:4617   */\n      add\n        /* \"#utility.yul\":4588:4617   */\n      swap2\n      pop\n        /* \"#utility.yul\":4666:4669   */\n      dup4\n        /* \"#utility.yul\":4658:4662   */\n      0x01\n        /* \"#utility.yul\":4650:4656   */\n      dup3\n        /* \"#utility.yul\":4646:4663   */\n      mul\n        /* \"#utility.yul\":4636:4644   */\n      dup4\n        /* \"#utility.yul\":4632:4664   */\n      add\n        /* \"#utility.yul\":4629:4670   */\n      gt\n        /* \"#utility.yul\":4626:4754   */\n      iszero\n      tag_209\n      jumpi\n        /* \"#utility.yul\":4673:4752   */\n      tag_210\n      tag_137\n      jump\t// in\n    tag_210:\n        /* \"#utility.yul\":4626:4754   */\n    tag_209:\n        /* \"#utility.yul\":4207:4760   */\n      swap3\n      pop\n      swap3\n      swap1\n      pop\n      jump\t// out\n        /* \"#utility.yul\":4766:4888   */\n    tag_139:\n        /* \"#utility.yul\":4839:4863   */\n      tag_212\n        /* \"#utility.yul\":4857:4862   */\n      dup2\n        /* \"#utility.yul\":4839:4863   */\n      tag_127\n      jump\t// in\n    tag_212:\n        /* \"#utility.yul\":4832:4837   */\n      dup2\n        /* \"#utility.yul\":4829:4864   */\n      eq\n        /* \"#utility.yul\":4819:4882   */\n      tag_213\n      jumpi\n        /* \"#utility.yul\":4878:4879   */\n      0x00\n        /* \"#utility.yul\":4875:4876   */\n      0x00\n        /* \"#utility.yul\":4868:4880   */\n      revert\n        /* \"#utility.yul\":4819:4882   */\n    tag_213:\n        /* \"#utility.yul\":4766:4888   */\n      pop\n      jump\t// out\n        /* \"#utility.yul\":4894:5033   */\n    tag_140:\n        /* \"#utility.yul\":4940:4945   */\n      0x00\n        /* \"#utility.yul\":4978:4984   */\n      dup2\n        /* \"#utility.yul\":4965:4985   */\n      calldataload\n        /* \"#utility.yul\":4956:4985   */\n      swap1\n      pop\n        /* \"#utility.yul\":4994:5027   */\n      tag_215\n        /* \"#utility.yul\":5021:5026   */\n      dup2\n        /* \"#utility.yul\":4994:5027   */\n      tag_139\n      jump\t// in\n    tag_215:\n        /* \"#utility.yul\":4894:5033   */\n      swap3\n      swap2\n      pop\n      pop\n      jump\t// out\n        /* \"#utility.yul\":5039:5713   */\n    tag_15:\n        /* \"#utility.yul\":5119:5125   */\n      0x00\n        /* \"#utility.yul\":5127:5133   */\n      0x00\n        /* \"#utility.yul\":5135:5141   */\n      0x00\n        /* \"#utility.yul\":5184:5186   */\n      0x40\n        /* \"#utility.yul\":5172:5181   */\n      dup5\n        /* \"#utility.yul\":5163:5170   */\n      dup7\n        /* \"#utility.yul\":5159:5182   */\n      sub\n        /* \"#utility.yul\":5155:5187   */\n      slt\n        /* \"#utility.yul\":5152:5271   */\n      iszero\n      tag_217\n      jumpi\n        /* \"#utility.yul\":5190:5269   */\n      tag_218\n      tag_133\n      jump\t// in\n    tag_218:\n        /* \"#utility.yul\":5152:5271   */\n    tag_217:\n        /* \"#utility.yul\":5338:5339   */\n      0x00\n        /* \"#utility.yul\":5327:5336   */\n      dup5\n        /* \"#utility.yul\":5323:5340   */\n      add\n        /* \"#utility.yul\":5310:5341   */\n      calldataload\n        /* \"#utility.yul\":5368:5386   */\n      0xffffffffffffffff\n        /* \"#utility.yul\":5360:5366   */\n      dup2\n        /* \"#utility.yul\":5357:5387   */\n      gt\n        /* \"#utility.yul\":5354:5471   */\n      iszero\n      tag_219\n      jumpi\n        /* \"#utility.yul\":5390:5469   */\n      tag_220\n      tag_134\n      jump\t// in\n    tag_220:\n        /* \"#utility.yul\":5354:5471   */\n    tag_219:\n        /* \"#utility.yul\":5503:5568   */\n      tag_221\n        /* \"#utility.yul\":5560:5567   */\n      dup7\n        /* \"#utility.yul\":5551:5557   */\n      dup3\n        /* \"#utility.yul\":5540:5549   */\n      dup8\n        /* \"#utility.yul\":5536:5558   */\n      add\n        /* \"#utility.yul\":5503:5568   */\n      tag_138\n      jump\t// in\n    tag_221:\n        /* \"#utility.yul\":5485:5568   */\n      swap4\n      pop\n      swap4\n      pop\n        /* \"#utility.yul\":5281:5578   */\n      pop\n        /* \"#utility.yul\":5617:5619   */\n      0x20\n        /* \"#utility.yul\":5643:5696   */\n      tag_222\n        /* \"#utility.yul\":5688:5695   */\n      dup7\n        /* \"#utility.yul\":5679:5685   */\n      dup3\n        /* \"#utility.yul\":5668:5677   */\n      dup8\n        /* \"#utility.yul\":5664:5686   */\n      add\n        /* \"#utility.yul\":5643:5696   */\n      tag_140\n      jump\t// in\n    tag_222:\n        /* \"#utility.yul\":5633:5696   */\n      swap2\n      pop\n        /* \"#utility.yul\":5588:5706   */\n      pop\n        /* \"#utility.yul\":5039:5713   */\n      swap3\n      pop\n      swap3\n      pop\n      swap3\n      jump\t// out\n        /* \"#utility.yul\":5719:5805   */\n    tag_141:\n        /* \"#utility.yul\":5754:5761   */\n      0x00\n        /* \"#utility.yul\":5794:5798   */\n      0xff\n        /* \"#utility.yul\":5787:5792   */\n      dup3\n        /* \"#utility.yul\":5783:5799   */\n      and\n        /* \"#utility.yul\":5772:5799   */\n      swap1\n      pop\n        /* \"#utility.yul\":5719:5805   */\n      swap2\n      swap1\n      pop\n      jump\t// out\n        /* \"#utility.yul\":5811:5929   */\n    tag_142:\n        /* \"#utility.yul\":5882:5904   */\n      tag_225\n        /* \"#utility.yul\":5898:5903   */\n      dup2\n        /* \"#utility.yul\":5882:5904   */\n      tag_141\n      jump\t// in\n    tag_225:\n        /* \"#utility.yul\":5875:5880   */\n      dup2\n        /* \"#utility.yul\":5872:5905   */\n      eq\n        /* \"#utility.yul\":5862:5923   */\n      tag_226\n      jumpi\n        /* \"#utility.yul\":5919:5920   */\n      0x00\n        /* \"#utility.yul\":5916:5917   */\n      0x00\n        /* \"#utility.yul\":5909:5921   */\n      revert\n        /* \"#utility.yul\":5862:5923   */\n    tag_226:\n        /* \"#utility.yul\":5811:5929   */\n      pop\n      jump\t// out\n        /* \"#utility.yul\":5935:6070   */\n    tag_143:\n        /* \"#utility.yul\":5979:5984   */\n      0x00\n        /* \"#utility.yul\":6017:6023   */\n      dup2\n        /* \"#utility.yul\":6004:6024   */\n      calldataload\n        /* \"#utility.yul\":5995:6024   */\n      swap1\n      pop\n        /* \"#utility.yul\":6033:6064   */\n      tag_228\n        /* \"#utility.yul\":6058:6063   */\n      dup2\n        /* \"#utility.yul\":6033:6064   */\n      tag_142\n      jump\t// in\n    tag_228:\n        /* \"#utility.yul\":5935:6070   */\n      swap3\n      swap2\n      pop\n      pop\n      jump\t// out\n        /* \"#utility.yul\":6076:6401   */\n    tag_21:\n        /* \"#utility.yul\":6133:6139   */\n      0x00\n        /* \"#utility.yul\":6182:6184   */\n      0x20\n        /* \"#utility.yul\":6170:6179   */\n      dup3\n        /* \"#utility.yul\":6161:6168   */\n      dup5\n        /* \"#utility.yul\":6157:6180   */\n      sub\n        /* \"#utility.yul\":6153:6185   */\n      slt\n        /* \"#utility.yul\":6150:6269   */\n      iszero\n      tag_230\n      jumpi\n        /* \"#utility.yul\":6188:6267   */\n      tag_231\n      tag_133\n      jump\t// in\n    tag_231:\n        /* \"#utility.yul\":6150:6269   */\n    tag_230:\n        /* \"#utility.yul\":6308:6309   */\n      0x00\n        /* \"#utility.yul\":6333:6384   */\n      tag_232\n        /* \"#utility.yul\":6376:6383   */\n      dup5\n        /* \"#utility.yul\":6367:6373   */\n      dup3\n        /* \"#utility.yul\":6356:6365   */\n      dup6\n        /* \"#utility.yul\":6352:6374   */\n      add\n        /* \"#utility.yul\":6333:6384   */\n      tag_143\n      jump\t// in\n    tag_232:\n        /* \"#utility.yul\":6323:6384   */\n      swap2\n      pop\n        /* \"#utility.yul\":6279:6394   */\n      pop\n        /* \"#utility.yul\":6076:6401   */\n      swap3\n      swap2\n      pop\n      pop\n      jump\t// out\n        /* \"#utility.yul\":6407:6736   */\n    tag_25:\n        /* \"#utility.yul\":6466:6472   */\n      0x00\n        /* \"#utility.yul\":6515:6517   */\n      0x20\n        /* \"#utility.yul\":6503:6512   */\n      dup3\n        /* \"#utility.yul\":6494:6501   */\n      dup5\n        /* \"#utility.yul\":6490:6513   */\n      sub\n        /* \"#utility.yul\":6486:6518   */\n      slt\n        /* \"#utility.yul\":6483:6602   */\n      iszero\n      tag_234\n      jumpi\n        /* \"#utility.yul\":6521:6600   */\n      tag_235\n      tag_133\n      jump\t// in\n    tag_235:\n        /* \"#utility.yul\":6483:6602   */\n    tag_234:\n        /* \"#utility.yul\":6641:6642   */\n      0x00\n        /* \"#utility.yul\":6666:6719   */\n      tag_236\n        /* \"#utility.yul\":6711:6718   */\n      dup5\n        /* \"#utility.yul\":6702:6708   */\n      dup3\n        /* \"#utility.yul\":6691:6700   */\n      dup6\n        /* \"#utility.yul\":6687:6709   */\n      add\n        /* \"#utility.yul\":6666:6719   */\n      tag_140\n      jump\t// in\n    tag_236:\n        /* \"#utility.yul\":6656:6719   */\n      swap2\n      pop\n        /* \"#utility.yul\":6612:6729   */\n      pop\n        /* \"#utility.yul\":6407:6736   */\n      swap3\n      swap2\n      pop\n      pop\n      jump\t// out\n        /* \"#utility.yul\":6742:6868   */\n    tag_144:\n        /* \"#utility.yul\":6779:6786   */\n      0x00\n        /* \"#utility.yul\":6819:6861   */\n      0xffffffffffffffffffffffffffffffffffffffff\n        /* \"#utility.yul\":6812:6817   */\n      dup3\n        /* \"#utility.yul\":6808:6862   */\n      and\n        /* \"#utility.yul\":6797:6862   */\n      swap1\n      pop\n        /* \"#utility.yul\":6742:6868   */\n      swap2\n      swap1\n      pop\n      jump\t// out\n        /* \"#utility.yul\":6874:6970   */\n    tag_145:\n        /* \"#utility.yul\":6911:6918   */\n      0x00\n        /* \"#utility.yul\":6940:6964   */\n      tag_239\n        /* \"#utility.yul\":6958:6963   */\n      dup3\n        /* \"#utility.yul\":6940:6964   */\n      tag_144\n      jump\t// in\n    tag_239:\n        /* \"#utility.yul\":6929:6964   */\n      swap1\n      pop\n        /* \"#utility.yul\":6874:6970   */\n      swap2\n      swap1\n      pop\n      jump\t// out\n        /* \"#utility.yul\":6976:7098   */\n    tag_146:\n        /* \"#utility.yul\":7049:7073   */\n      tag_241\n        /* \"#utility.yul\":7067:7072   */\n      dup2\n        /* \"#utility.yul\":7049:7073   */\n      tag_145\n      jump\t// in\n    tag_241:\n        /* \"#utility.yul\":7042:7047   */\n      dup2\n        /* \"#utility.yul\":7039:7074   */\n      eq\n        /* \"#utility.yul\":7029:7092   */\n      tag_242\n      jumpi\n        /* \"#utility.yul\":7088:7089   */\n      0x00\n        /* \"#utility.yul\":7085:7086   */\n      0x00\n        /* \"#utility.yul\":7078:7090   */\n      revert\n        /* \"#utility.yul\":7029:7092   */\n    tag_242:\n        /* \"#utility.yul\":6976:7098   */\n      pop\n      jump\t// out\n        /* \"#utility.yul\":7104:7243   */\n    tag_147:\n        /* \"#utility.yul\":7150:7155   */\n      0x00\n        /* \"#utility.yul\":7188:7194   */\n      dup2\n        /* \"#utility.yul\":7175:7195   */\n      calldataload\n        /* \"#utility.yul\":7166:7195   */\n      swap1\n      pop\n        /* \"#utility.yul\":7204:7237   */\n      tag_244\n        /* \"#utility.yul\":7231:7236   */\n      dup2\n        /* \"#utility.yul\":7204:7237   */\n      tag_146\n      jump\t// in\n    tag_244:\n        /* \"#utility.yul\":7104:7243   */\n      swap3\n      swap2\n      pop\n      pop\n      jump\t// out\n        /* \"#utility.yul\":7249:7578   */\n    tag_30:\n        /* \"#utility.yul\":7308:7314   */\n      0x00\n        /* \"#utility.yul\":7357:7359   */\n      0x20\n        /* \"#utility.yul\":7345:7354   */\n      dup3\n        /* \"#utility.yul\":7336:7343   */\n      dup5\n        /* \"#utility.yul\":7332:7355   */\n      sub\n        /* \"#utility.yul\":7328:7360   */\n      slt\n        /* \"#utility.yul\":7325:7444   */\n      iszero\n      tag_246\n      jumpi\n        /* \"#utility.yul\":7363:7442   */\n      tag_247\n      tag_133\n      jump\t// in\n    tag_247:\n        /* \"#utility.yul\":7325:7444   */\n    tag_246:\n        /* \"#utility.yul\":7483:7484   */\n      0x00\n        /* \"#utility.yul\":7508:7561   */\n      tag_248\n        /* \"#utility.yul\":7553:7560   */\n      dup5\n        /* \"#utility.yul\":7544:7550   */\n      dup3\n        /* \"#utility.yul\":7533:7542   */\n      dup6\n        /* \"#utility.yul\":7529:7551   */\n      add\n        /* \"#utility.yul\":7508:7561   */\n      tag_147\n      jump\t// in\n    tag_248:\n        /* \"#utility.yul\":7498:7561   */\n      swap2\n      pop\n        /* \"#utility.yul\":7454:7571   */\n      pop\n        /* \"#utility.yul\":7249:7578   */\n      swap3\n      swap2\n      pop\n      pop\n      jump\t// out\n        /* \"#utility.yul\":7584:7693   */\n    tag_148:\n        /* \"#utility.yul\":7665:7686   */\n      tag_250\n        /* \"#utility.yul\":7680:7685   */\n      dup2\n        /* \"#utility.yul\":7665:7686   */\n      tag_129\n      jump\t// in\n    tag_250:\n        /* \"#utility.yul\":7660:7663   */\n      dup3\n        /* \"#utility.yul\":7653:7687   */\n      mstore\n        /* \"#utility.yul\":7584:7693   */\n      pop\n      pop\n      jump\t// out\n        /* \"#utility.yul\":7699:7909   */\n    tag_33:\n        /* \"#utility.yul\":7786:7790   */\n      0x00\n        /* \"#utility.yul\":7824:7826   */\n      0x20\n        /* \"#utility.yul\":7813:7822   */\n      dup3\n        /* \"#utility.yul\":7809:7827   */\n      add\n        /* \"#utility.yul\":7801:7827   */\n      swap1\n      pop\n        /* \"#utility.yul\":7837:7902   */\n      tag_252\n        /* \"#utility.yul\":7899:7900   */\n      0x00\n        /* \"#utility.yul\":7888:7897   */\n      dup4\n        /* \"#utility.yul\":7884:7901   */\n      add\n        /* \"#utility.yul\":7875:7881   */\n      dup5\n        /* \"#utility.yul\":7837:7902   */\n      tag_148\n      jump\t// in\n    tag_252:\n        /* \"#utility.yul\":7699:7909   */\n      swap3\n      swap2\n      pop\n      pop\n      jump\t// out\n        /* \"#utility.yul\":7915:8095   */\n    tag_149:\n        /* \"#utility.yul\":7963:8040   */\n      0x4e487b7100000000000000000000000000000000000000000000000000000000\n        /* \"#utility.yul\":7960:7961   */\n      0x00\n        /* \"#utility.yul\":7953:8041   */\n      mstore\n        /* \"#utility.yul\":8060:8064   */\n      0x22\n        /* \"#utility.yul\":8057:8058   */\n      0x04\n        /* \"#utility.yul\":8050:8065   */\n      mstore\n        /* \"#utility.yul\":8084:8088   */\n      0x24\n        /* \"#utility.yul\":8081:8082   */\n      0x00\n        /* \"#utility.yul\":8074:8089   */\n      revert\n        /* \"#utility.yul\":8101:8421   */\n    tag_38:\n        /* \"#utility.yul\":8145:8151   */\n      0x00\n        /* \"#utility.yul\":8182:8183   */\n      0x02\n        /* \"#utility.yul\":8176:8180   */\n      dup3\n        /* \"#utility.yul\":8172:8184   */\n      div\n        /* \"#utility.yul\":8162:8184   */\n      swap1\n      pop\n        /* \"#utility.yul\":8229:8230   */\n      0x01\n        /* \"#utility.yul\":8223:8227   */\n      dup3\n        /* \"#utility.yul\":8219:8231   */\n      and\n        /* \"#utility.yul\":8250:8268   */\n      dup1\n        /* \"#utility.yul\":8240:8321   */\n      tag_255\n      jumpi\n        /* \"#utility.yul\":8306:8310   */\n      0x7f\n        /* \"#utility.yul\":8298:8304   */\n      dup3\n        /* \"#utility.yul\":8294:8311   */\n      and\n        /* \"#utility.yul\":8284:8311   */\n      swap2\n      pop\n        /* \"#utility.yul\":8240:8321   */\n    tag_255:\n        /* \"#utility.yul\":8368:8370   */\n      0x20\n        /* \"#utility.yul\":8360:8366   */\n      dup3\n        /* \"#utility.yul\":8357:8371   */\n      lt\n        /* \"#utility.yul\":8337:8355   */\n      dup2\n        /* \"#utility.yul\":8334:8372   */\n      sub\n        /* \"#utility.yul\":8331:8415   */\n      tag_256\n      jumpi\n        /* \"#utility.yul\":8387:8405   */\n      tag_257\n      tag_149\n      jump\t// in\n    tag_257:\n        /* \"#utility.yul\":8331:8415   */\n    tag_256:\n        /* \"#utility.yul\":8152:8421   */\n      pop\n        /* \"#utility.yul\":8101:8421   */\n      swap2\n      swap1\n      pop\n      jump\t// out\n        /* \"#utility.yul\":8427:8607   */\n    tag_150:\n        /* \"#utility.yul\":8475:8552   */\n      0x4e487b7100000000000000000000000000000000000000000000000000000000\n        /* \"#utility.yul\":8472:8473   */\n      0x00\n        /* \"#utility.yul\":8465:8553   */\n      mstore\n        /* \"#utility.yul\":8572:8576   */\n      0x11\n        /* \"#utility.yul\":8569:8570   */\n      0x04\n        /* \"#utility.yul\":8562:8577   */\n      mstore\n        /* \"#utility.yul\":8596:8600   */\n      0x24\n        /* \"#utility.yul\":8593:8594   */\n      0x00\n        /* \"#utility.yul\":8586:8601   */\n      revert\n        /* \"#utility.yul\":8613:8804   */\n    tag_50:\n        /* \"#utility.yul\":8653:8656   */\n      0x00\n        /* \"#utility.yul\":8672:8692   */\n      tag_260\n        /* \"#utility.yul\":8690:8691   */\n      dup3\n        /* \"#utility.yul\":8672:8692   */\n      tag_127\n      jump\t// in\n    tag_260:\n        /* \"#utility.yul\":8667:8692   */\n      swap2\n      pop\n        /* \"#utility.yul\":8706:8726   */\n      tag_261\n        /* \"#utility.yul\":8724:8725   */\n      dup4\n        /* \"#utility.yul\":8706:8726   */\n      tag_127\n      jump\t// in\n    tag_261:\n        /* \"#utility.yul\":8701:8726   */\n      swap3\n      pop\n        /* \"#utility.yul\":8749:8750   */\n      dup3\n        /* \"#utility.yul\":8746:8747   */\n      dup3\n        /* \"#utility.yul\":8742:8751   */\n      add\n        /* \"#utility.yul\":8735:8751   */\n      swap1\n      pop\n        /* \"#utility.yul\":8770:8773   */\n      dup1\n        /* \"#utility.yul\":8767:8768   */\n      dup3\n        /* \"#utility.yul\":8764:8774   */\n      gt\n        /* \"#utility.yul\":8761:8797   */\n      iszero\n      tag_262\n      jumpi\n        /* \"#utility.yul\":8777:8795   */\n      tag_263\n      tag_150\n      jump\t// in\n    tag_263:\n        /* \"#utility.yul\":8761:8797   */\n    tag_262:\n        /* \"#utility.yul\":8613:8804   */\n      swap3\n      swap2\n      pop\n      pop\n      jump\t// out\n        /* \"#utility.yul\":8810:8990   */\n    tag_151:\n        /* \"#utility.yul\":8858:8935   */\n      0x4e487b7100000000000000000000000000000000000000000000000000000000\n        /* \"#utility.yul\":8855:8856   */\n      0x00\n        /* \"#utility.yul\":8848:8936   */\n      mstore\n        /* \"#utility.yul\":8955:8959   */\n      0x41\n        /* \"#utility.yul\":8952:8953   */\n      0x04\n        /* \"#utility.yul\":8945:8960   */\n      mstore\n        /* \"#utility.yul\":8979:8983   */\n      0x24\n        /* \"#utility.yul\":8976:8977   */\n      0x00\n        /* \"#utility.yul\":8969:8984   */\n      revert\n        /* \"#utility.yul\":8996:9137   */\n    tag_152:\n        /* \"#utility.yul\":9045:9049   */\n      0x00\n        /* \"#utility.yul\":9068:9071   */\n      dup2\n        /* \"#utility.yul\":9060:9071   */\n      swap1\n      pop\n        /* \"#utility.yul\":9091:9094   */\n      dup2\n        /* \"#utility.yul\":9088:9089   */\n      0x00\n        /* \"#utility.yul\":9081:9095   */\n      mstore\n        /* \"#utility.yul\":9125:9129   */\n      0x20\n        /* \"#utility.yul\":9122:9123   */\n      0x00\n        /* \"#utility.yul\":9112:9130   */\n      keccak256\n        /* \"#utility.yul\":9104:9130   */\n      swap1\n      pop\n        /* \"#utility.yul\":8996:9137   */\n      swap2\n      swap1\n      pop\n      jump\t// out\n        /* \"#utility.yul\":9143:9236   */\n    tag_153:\n        /* \"#utility.yul\":9180:9186   */\n      0x00\n        /* \"#utility.yul\":9227:9229   */\n      0x20\n        /* \"#utility.yul\":9222:9224   */\n      0x1f\n        /* \"#utility.yul\":9215:9220   */\n      dup4\n        /* \"#utility.yul\":9211:9225   */\n      add\n        /* \"#utility.yul\":9207:9230   */\n      div\n        /* \"#utility.yul\":9197:9230   */\n      swap1\n      pop\n        /* \"#utility.yul\":9143:9236   */\n      swap2\n      swap1\n      pop\n      jump\t// out\n        /* \"#utility.yul\":9242:9349   */\n    tag_154:\n        /* \"#utility.yul\":9286:9294   */\n      0x00\n        /* \"#utility.yul\":9336:9341   */\n      dup3\n        /* \"#utility.yul\":9330:9334   */\n      dup3\n        /* \"#utility.yul\":9326:9342   */\n      shl\n        /* \"#utility.yul\":9305:9342   */\n      swap1\n      pop\n        /* \"#utility.yul\":9242:9349   */\n      swap3\n      swap2\n      pop\n      pop\n      jump\t// out\n        /* \"#utility.yul\":9355:9748   */\n    tag_155:\n        /* \"#utility.yul\":9424:9430   */\n      0x00\n        /* \"#utility.yul\":9474:9475   */\n      0x08\n        /* \"#utility.yul\":9462:9472   */\n      dup4\n        /* \"#utility.yul\":9458:9476   */\n      mul\n        /* \"#utility.yul\":9497:9594   */\n      tag_269\n        /* \"#utility.yul\":9527:9593   */\n      0xffffffffffffffffffffffffffffffffffffffffffffffffffffffffffffffff\n        /* \"#utility.yul\":9516:9525   */\n      dup3\n        /* \"#utility.yul\":9497:9594   */\n      tag_154\n      jump\t// in\n    tag_269:\n        /* \"#utility.yul\":9615:9654   */\n      tag_270\n        /* \"#utility.yul\":9645:9653   */\n      dup7\n        /* \"#utility.yul\":9634:9643   */\n      dup4\n        /* \"#utility.yul\":9615:9654   */\n      tag_154\n      jump\t// in\n    tag_270:\n        /* \"#utility.yul\":9603:9654   */\n      swap6\n      pop\n        /* \"#utility.yul\":9687:9691   */\n      dup1\n        /* \"#utility.yul\":9683:9692   */\n      not\n        /* \"#utility.yul\":9676:9681   */\n      dup5\n        /* \"#utility.yul\":9672:9693   */\n      and\n        /* \"#utility.yul\":9663:9693   */\n      swap4\n      pop\n        /* \"#utility.yul\":9736:9740   */\n      dup1\n        /* \"#utility.yul\":9726:9734   */\n      dup7\n        /* \"#utility.yul\":9722:9741   */\n      and\n        /* \"#utility.yul\":9715:9720   */\n      dup5\n        /* \"#utility.yul\":9712:9742   */\n      or\n        /* \"#utility.yul\":9702:9742   */\n      swap3\n      pop\n        /* \"#utility.yul\":9431:9748   */\n      pop\n      pop\n        /* \"#utility.yul\":9355:9748   */\n      swap4\n      swap3\n      pop\n      pop\n      pop\n      jump\t// out\n        /* \"#utility.yul\":9754:9814   */\n    tag_156:\n        /* \"#utility.yul\":9782:9785   */\n      0x00\n        /* \"#utility.yul\":9803:9808   */\n      dup2\n        /* \"#utility.yul\":9796:9808   */\n      swap1\n      pop\n        /* \"#utility.yul\":9754:9814   */\n      swap2\n      swap1\n      pop\n      jump\t// out\n        /* \"#utility.yul\":9820:9962   */\n    tag_157:\n        /* \"#utility.yul\":9870:9879   */\n      0x00\n        /* \"#utility.yul\":9903:9956   */\n      tag_273\n        /* \"#utility.yul\":9921:9955   */\n      tag_274\n        /* \"#utility.yul\":9930:9954   */\n      tag_275\n        /* \"#utility.yul\":9948:9953   */\n      dup5\n        /* \"#utility.yul\":9930:9954   */\n      tag_127\n      jump\t// in\n    tag_275:\n        /* \"#utility.yul\":9921:9955   */\n      tag_156\n      jump\t// in\n    tag_274:\n        /* \"#utility.yul\":9903:9956   */\n      tag_127\n      jump\t// in\n    tag_273:\n        /* \"#utility.yul\":9890:9956   */\n      swap1\n      pop\n        /* \"#utility.yul\":9820:9962   */\n      swap2\n      swap1\n      pop\n      jump\t// out\n        /* \"#utility.yul\":9968:10043   */\n    tag_158:\n        /* \"#utility.yul\":10011:10014   */\n      0x00\n        /* \"#utility.yul\":10032:10037   */\n      dup2\n        /* \"#utility.yul\":10025:10037   */\n      swap1\n      pop\n        /* \"#utility.yul\":9968:10043   */\n      swap2\n      swap1\n      pop\n      jump\t// out\n        /* \"#utility.yul\":10049:10318   */\n    tag_159:\n        /* \"#utility.yul\":10159:10198   */\n      tag_278\n        /* \"#utility.yul\":10190:10197   */\n      dup4\n        /* \"#utility.yul\":10159:10198   */\n      tag_157\n      jump\t// in\n    tag_278:\n        /* \"#utility.yul\":10220:10311   */\n      tag_279\n        /* \"#utility.yul\":10269:10310   */\n      tag_280\n        /* \"#utility.yul\":10293:10309   */\n      dup3\n        /* \"#utility.yul\":10269:10310   */\n      tag_158\n      jump\t// in\n    tag_280:\n        /* \"#utility.yul\":10261:10267   */\n      dup5\n        /* \"#utility.yul\":10254:10258   */\n      dup5\n        /* \"#utility.yul\":10248:10259   */\n      sload\n        /* \"#utility.yul\":10220:10311   */\n      tag_155\n      jump\t// in\n    tag_279:\n        /* \"#utility.yul\":10214:10218   */\n      dup3\n        /* \"#utility.yul\":10207:10312   */\n      sstore\n        /* \"#utility.yul\":10125:10318   */\n      pop\n        /* \"#utility.yul\":10049:10318   */\n      pop\n      pop\n      pop\n      jump\t// out\n        /* \"#utility.yul\":10324:10397   */\n    tag_160:\n        /* \"#utility.yul\":10369:10372   */\n      0x00\n        /* \"#utility.yul\":10390:10391   */\n      0x00\n        /* \"#utility.yul\":10383:10391   */\n      swap1\n      pop\n        /* \"#utility.yul\":10324:10397   */\n      swap1\n      jump\t// out\n        /* \"#utility.yul\":10403:10592   */\n    tag_161:\n        /* \"#utility.yul\":10480:10512   */\n      tag_283\n      tag_160\n      jump\t// in\n    tag_283:\n        /* \"#utility.yul\":10521:10586   */\n      tag_284\n        /* \"#utility.yul\":10579:10585   */\n      dup2\n        /* \"#utility.yul\":10571:10577   */\n      dup5\n        /* \"#utility.yul\":10565:10569   */\n      dup5\n        /* \"#utility.yul\":10521:10586   */\n      tag_159\n      jump\t// in\n    tag_284:\n        /* \"#utility.yul\":10456:10592   */\n      pop\n        /* \"#utility.yul\":10403:10592   */\n      pop\n      pop\n      jump\t// out\n        /* \"#utility.yul\":10598:10784   */\n    tag_162:\n        /* \"#utility.yul\":10658:10778   */\n    tag_286:\n        /* \"#utility.yul\":10675:10678   */\n      dup2\n        /* \"#utility.yul\":10668:10673   */\n      dup2\n        /* \"#utility.yul\":10665:10679   */\n      lt\n        /* \"#utility.yul\":10658:10778   */\n      iszero\n      tag_288\n      jumpi\n        /* \"#utility.yul\":10729:10768   */\n      tag_289\n        /* \"#utility.yul\":10766:10767   */\n      0x00\n        /* \"#utility.yul\":10759:10764   */\n      dup3\n        /* \"#utility.yul\":10729:10768   */\n      tag_161\n      jump\t// in\n    tag_289:\n        /* \"#utility.yul\":10702:10703   */\n      0x01\n        /* \"#utility.yul\":10695:10700   */\n      dup2\n        /* \"#utility.yul\":10691:10704   */\n      add\n        /* \"#utility.yul\":10682:10704   */\n      swap1\n      pop\n        /* \"#utility.yul\":10658:10778   */\n      jump(tag_286)\n    tag_288:\n        /* \"#utility.yul\":10598:10784   */\n      pop\n      pop\n      jump\t// out\n        /* \"#utility.yul\":10790:11333   */\n    tag_163:\n        /* \"#utility.yul\":10891:10893   */\n      0x1f\n        /* \"#utility.yul\":10886:10889   */\n      dup3\n        /* \"#utility.yul\":10883:10894   */\n      gt\n        /* \"#utility.yul\":10880:11326   */\n      iszero\n      tag_291\n      jumpi\n        /* \"#utility.yul\":10925:10963   */\n      tag_292\n        /* \"#utility.yul\":10957:10962   */\n      dup2\n        /* \"#utility.yul\":10925:10963   */\n      tag_152\n      jump\t// in\n    tag_292:\n        /* \"#utility.yul\":11009:11038   */\n      tag_293\n        /* \"#utility.yul\":11027:11037   */\n      dup5\n        /* \"#utility.yul\":11009:11038   */\n      tag_153\n      jump\t// in\n    tag_293:\n        /* \"#utility.yul\":10999:11007   */\n      dup2\n        /* \"#utility.yul\":10995:11039   */\n      add\n        /* \"#utility.yul\":11192:11194   */\n      0x20\n        /* \"#utility.yul\":11180:11190   */\n      dup6\n        /* \"#utility.yul\":11177:11195   */\n      lt\n        /* \"#utility.yul\":11174:11223   */\n      iszero\n      tag_294\n      jumpi\n        /* \"#utility.yul\":11213:11221   */\n      dup2\n        /* \"#utility.yul\":11198:11221   */\n      swap1\n      pop\n        /* \"#utility.yul\":11174:11223   */\n    tag_294:\n        /* \"#utility.yul\":11236:11316   */\n      tag_295\n        /* \"#utility.yul\":11292:11314   */\n      tag_296\n        /* \"#utility.yul\":11310:11313   */\n      dup6\n        /* \"#utility.yul\":11292:11314   */\n      tag_153\n      jump\t// in\n    tag_296:\n        /* \"#utility.yul\":11282:11290   */\n      dup4\n        /* \"#utility.yul\":11278:11315   */\n      add\n        /* \"#utility.yul\":11265:11276   */\n      dup3\n        /* \"#utility.yul\":11236:11316   */\n      tag_162\n      jump\t// in\n    tag_295:\n        /* \"#utility.yul\":10895:11326   */\n      pop\n      pop\n        /* \"#utility.yul\":10880:11326   */\n    tag_291:\n        /* \"#utility.yul\":10790:11333   */\n      pop\n      pop\n      pop\n      jump\t// out\n        /* \"#utility.yul\":11339:11456   */\n    tag_164:\n        /* \"#utility.yul\":11393:11401   */\n      0x00\n        /* \"#utility.yul\":11443:11448   */\n      dup3\n        /* \"#utility.yul\":11437:11441   */\n      dup3\n        /* \"#utility.yul\":11433:11449   */\n      shr\n        /* \"#utility.yul\":11412:11449   */\n      swap1\n      pop\n        /* \"#utility.yul\":11339:11456   */\n      swap3\n      swap2\n      pop\n      pop\n      jump\t// out\n        /* \"#utility.yul\":11462:11631   */\n    tag_165:\n        /* \"#utility.yul\":11506:11512   */\n      0x00\n        /* \"#utility.yul\":11539:11590   */\n      tag_299\n        /* \"#utility.yul\":11587:11588   */\n      0x00\n        /* \"#utility.yul\":11583:11589   */\n      not\n        /* \"#utility.yul\":11575:11580   */\n      dup5\n        /* \"#utility.yul\":11572:11573   */\n      0x08\n        /* \"#utility.yul\":11568:11581   */\n      mul\n        /* \"#utility.yul\":11539:11590   */\n      tag_164\n      jump\t// in\n    tag_299:\n        /* \"#utility.yul\":11535:11591   */\n      not\n        /* \"#utility.yul\":11620:11624   */\n      dup1\n        /* \"#utility.yul\":11614:11618   */\n      dup4\n        /* \"#utility.yul\":11610:11625   */\n      and\n        /* \"#utility.yul\":11600:11625   */\n      swap2\n      pop\n        /* \"#utility.yul\":11513:11631   */\n      pop\n        /* \"#utility.yul\":11462:11631   */\n      swap3\n      swap2\n      pop\n      pop\n      jump\t// out\n        /* \"#utility.yul\":11636:11931   */\n    tag_166:\n        /* \"#utility.yul\":11712:11716   */\n      0x00\n        /* \"#utility.yul\":11858:11887   */\n      tag_301\n        /* \"#utility.yul\":11883:11886   */\n      dup4\n        /* \"#utility.yul\":11877:11881   */\n      dup4\n        /* \"#utility.yul\":11858:11887   */\n      tag_165\n      jump\t// in\n    tag_301:\n        /* \"#utility.yul\":11850:11887   */\n      swap2\n      pop\n        /* \"#utility.yul\":11920:11923   */\n      dup3\n        /* \"#utility.yul\":11917:11918   */\n      0x02\n        /* \"#utility.yul\":11913:11924   */\n      mul\n        /* \"#utility.yul\":11907:11911   */\n      dup3\n        /* \"#utility.yul\":11904:11925   */\n      or\n        /* \"#utility.yul\":11896:11925   */\n      swap1\n      pop\n        /* \"#utility.yul\":11636:11931   */\n      swap3\n      swap2\n      pop\n      pop\n      jump\t// out\n        /* \"#utility.yul\":11936:13331   */\n    tag_52:\n        /* \"#utility.yul\":12053:12090   */\n      tag_303\n        /* \"#utility.yul\":12086:12089   */\n      dup3\n        /* \"#utility.yul\":12053:12090   */\n      tag_122\n      jump\t// in\n    tag_303:\n        /* \"#utility.yul\":12155:12173   */\n      0xffffffffffffffff\n        /* \"#utility.yul\":12147:12153   */\n      dup2\n        /* \"#utility.yul\":12144:12174   */\n      gt\n        /* \"#utility.yul\":12141:12197   */\n      iszero\n      tag_304\n      jumpi\n        /* \"#utility.yul\":12177:12195   */\n      tag_305\n      tag_151\n      jump\t// in\n    tag_305:\n        /* \"#utility.yul\":12141:12197   */\n    tag_304:\n        /* \"#utility.yul\":12221:12259   */\n      tag_306\n        /* \"#utility.yul\":12253:12257   */\n      dup3\n        /* \"#utility.yul\":12247:12258   */\n      sload\n        /* \"#utility.yul\":12221:12259   */\n      tag_38\n      jump\t// in\n    tag_306:\n        /* \"#utility.yul\":12306:12373   */\n      tag_307\n        /* \"#utility.yul\":12366:12372   */\n      dup3\n        /* \"#utility.yul\":12358:12364   */\n      dup3\n        /* \"#utility.yul\":12352:12356   */\n      dup6\n        /* \"#utility.yul\":12306:12373   */\n      tag_163\n      jump\t// in\n    tag_307:\n        /* \"#utility.yul\":12400:12401   */\n      0x00\n        /* \"#utility.yul\":12424:12428   */\n      0x20\n        /* \"#utility.yul\":12411:12428   */\n      swap1\n      pop\n        /* \"#utility.yul\":12456:12458   */\n      0x1f\n        /* \"#utility.yul\":12448:12454   */\n      dup4\n        /* \"#utility.yul\":12445:12459   */\n      gt\n        /* \"#utility.yul\":12473:12474   */\n      0x01\n        /* \"#utility.yul\":12468:13086   */\n      dup2\n      eq\n      tag_309\n      jumpi\n        /* \"#utility.yul\":13130:13131   */\n      0x00\n        /* \"#utility.yul\":13147:13153   */\n      dup5\n        /* \"#utility.yul\":13144:13221   */\n      iszero\n      tag_310\n      jumpi\n        /* \"#utility.yul\":13196:13205   */\n      dup3\n        /* \"#utility.yul\":13191:13194   */\n      dup8\n        /* \"#utility.yul\":13187:13206   */\n      add\n        /* \"#utility.yul\":13181:13207   */\n      mload\n        /* \"#utility.yul\":13172:13207   */\n      swap1\n      pop\n        /* \"#utility.yul\":13144:13221   */\n    tag_310:\n        /* \"#utility.yul\":13247:13314   */\n      tag_311\n        /* \"#utility.yul\":13307:13313   */\n      dup6\n        /* \"#utility.yul\":13300:13305   */\n      dup3\n        /* \"#utility.yul\":13247:13314   */\n      tag_166\n      jump\t// in\n    tag_311:\n        /* \"#utility.yul\":13241:13245   */\n      dup7\n        /* \"#utility.yul\":13234:13315   */\n      sstore\n        /* \"#utility.yul\":13103:13325   */\n      pop\n        /* \"#utility.yul\":12438:13325   */\n      jump(tag_308)\n        /* \"#utility.yul\":12468:13086   */\n    tag_309:\n        /* \"#utility.yul\":12520:12524   */\n      0x1f\n        /* \"#utility.yul\":12516:12525   */\n      not\n        /* \"#utility.yul\":12508:12514   */\n      dup5\n        /* \"#utility.yul\":12504:12526   */\n      and\n        /* \"#utility.yul\":12554:12591   */\n      tag_312\n        /* \"#utility.yul\":12586:12590   */\n      dup7\n        /* \"#utility.yul\":12554:12591   */\n      tag_152\n      jump\t// in\n    tag_312:\n        /* \"#utility.yul\":12613:12614   */\n      0x00\n        /* \"#utility.yul\":12627:12835   */\n    tag_313:\n        /* \"#utility.yul\":12641:12648   */\n      dup3\n        /* \"#utility.yul\":12638:12639   */\n      dup2\n        /* \"#utility.yul\":12635:12649   */\n      lt\n        /* \"#utility.yul\":12627:12835   */\n      iszero\n      tag_315\n      jumpi\n        /* \"#utility.yul\":12720:12729   */\n      dup5\n        /* \"#utility.yul\":12715:12718   */\n      dup10\n        /* \"#utility.yul\":12711:12730   */\n      add\n        /* \"#utility.yul\":12705:12731   */\n      mload\n        /* \"#utility.yul\":12697:12703   */\n      dup3\n        /* \"#utility.yul\":12690:12732   */\n      sstore\n        /* \"#utility.yul\":12771:12772   */\n      0x01\n        /* \"#utility.yul\":12763:12769   */\n      dup3\n        /* \"#utility.yul\":12759:12773   */\n      add\n        /* \"#utility.yul\":12749:12773   */\n      swap2\n      pop\n        /* \"#utility.yul\":12818:12820   */\n      0x20\n        /* \"#utility.yul\":12807:12816   */\n      dup6\n        /* \"#utility.yul\":12803:12821   */\n      add\n        /* \"#utility.yul\":12790:12821   */\n      swap5\n      pop\n        /* \"#utility.yul\":12664:12668   */\n      0x20\n        /* \"#utility.yul\":12661:12662   */\n      dup2\n        /* \"#utility.yul\":12657:12669   */\n      add\n        /* \"#utility.yul\":12652:12669   */\n      swap1\n      pop\n        /* \"#utility.yul\":12627:12835   */\n      jump(tag_313)\n    tag_315:\n        /* \"#utility.yul\":12863:12869   */\n      dup7\n        /* \"#utility.yul\":12854:12861   */\n      dup4\n        /* \"#utility.yul\":12851:12870   */\n      lt\n        /* \"#utility.yul\":12848:13027   */\n      iszero\n      tag_316\n      jumpi\n        /* \"#utility.yul\":12921:12930   */\n      dup5\n        /* \"#utility.yul\":12916:12919   */\n      dup10\n        /* \"#utility.yul\":12912:12931   */\n      add\n        /* \"#utility.yul\":12906:12932   */\n      mload\n        /* \"#utility.yul\":12964:13012   */\n      tag_317\n        /* \"#utility.yul\":13006:13010   */\n      0x1f\n        /* \"#utility.yul\":12998:13004   */\n      dup10\n        /* \"#utility.yul\":12994:13011   */\n      and\n        /* \"#utility.yul\":12983:12992   */\n      dup3\n        /* \"#utility.yul\":12964:13012   */\n      tag_165\n      jump\t// in\n    tag_317:\n        /* \"#utility.yul\":12956:12962   */\n      dup4\n        /* \"#utility.yul\":12949:13013   */\n      sstore\n        /* \"#utility.yul\":12871:13027   */\n      pop\n        /* \"#utility.yul\":12848:13027   */\n    tag_316:\n        /* \"#utility.yul\":13073:13074   */\n      0x01\n        /* \"#utility.yul\":13069:13070   */\n      0x02\n        /* \"#utility.yul\":13061:13067   */\n      dup9\n        /* \"#utility.yul\":13057:13071   */\n      mul\n        /* \"#utility.yul\":13053:13075   */\n      add\n        /* \"#utility.yul\":13047:13051   */\n      dup9\n        /* \"#utility.yul\":13040:13076   */\n      sstore\n        /* \"#utility.yul\":12475:13086   */\n      pop\n      pop\n      pop\n        /* \"#utility.yul\":12438:13325   */\n    tag_308:\n      pop\n        /* \"#utility.yul\":12028:13331   */\n      pop\n      pop\n      pop\n        /* \"#utility.yul\":11936:13331   */\n      pop\n      pop\n      jump\t// out\n        /* \"#utility.yul\":13337:13506   */\n    tag_167:\n        /* \"#utility.yul\":13421:13432   */\n      0x00\n        /* \"#utility.yul\":13455:13461   */\n      dup3\n        /* \"#utility.yul\":13450:13453   */\n      dup3\n        /* \"#utility.yul\":13443:13462   */\n      mstore\n        /* \"#utility.yul\":13495:13499   */\n      0x20\n        /* \"#utility.yul\":13490:13493   */\n      dup3\n        /* \"#utility.yul\":13486:13500   */\n      add\n        /* \"#utility.yul\":13471:13500   */\n      swap1\n      pop\n        /* \"#utility.yul\":13337:13506   */\n      swap3\n      swap2\n      pop\n      pop\n      jump\t// out\n        /* \"#utility.yul\":13512:13688   */\n    tag_168:\n        /* \"#utility.yul\":13652:13680   */\n      0x5468652070726f706f73616c206973206e6f7420616374697665000000000000\n        /* \"#utility.yul\":13648:13649   */\n      0x00\n        /* \"#utility.yul\":13640:13646   */\n      dup3\n        /* \"#utility.yul\":13636:13650   */\n      add\n        /* \"#utility.yul\":13629:13681   */\n      mstore\n        /* \"#utility.yul\":13512:13688   */\n      pop\n      jump\t// out\n        /* \"#utility.yul\":13694:14060   */\n    tag_169:\n        /* \"#utility.yul\":13836:13839   */\n      0x00\n        /* \"#utility.yul\":13857:13924   */\n      tag_321\n        /* \"#utility.yul\":13921:13923   */\n      0x1a\n        /* \"#utility.yul\":13916:13919   */\n      dup4\n        /* \"#utility.yul\":13857:13924   */\n      tag_167\n      jump\t// in\n    tag_321:\n        /* \"#utility.yul\":13850:13924   */\n      swap2\n      pop\n        /* \"#utility.yul\":13933:14026   */\n      tag_322\n        /* \"#utility.yul\":14022:14025   */\n      dup3\n        /* \"#utility.yul\":13933:14026   */\n      tag_168\n      jump\t// in\n    tag_322:\n        /* \"#utility.yul\":14051:14053   */\n      0x20\n        /* \"#utility.yul\":14046:14049   */\n      dup3\n        /* \"#utility.yul\":14042:14054   */\n      add\n        /* \"#utility.yul\":14035:14054   */\n      swap1\n      pop\n        /* \"#utility.yul\":13694:14060   */\n      swap2\n      swap1\n      pop\n      jump\t// out\n        /* \"#utility.yul\":14066:14485   */\n    tag_59:\n        /* \"#utility.yul\":14232:14236   */\n      0x00\n        /* \"#utility.yul\":14270:14272   */\n      0x20\n        /* \"#utility.yul\":14259:14268   */\n      dup3\n        /* \"#utility.yul\":14255:14273   */\n      add\n        /* \"#utility.yul\":14247:14273   */\n      swap1\n      pop\n        /* \"#utility.yul\":14319:14328   */\n      dup2\n        /* \"#utility.yul\":14313:14317   */\n      dup2\n        /* \"#utility.yul\":14309:14329   */\n      sub\n        /* \"#utility.yul\":14305:14306   */\n      0x00\n        /* \"#utility.yul\":14294:14303   */\n      dup4\n        /* \"#utility.yul\":14290:14307   */\n      add\n        /* \"#utility.yul\":14283:14330   */\n      mstore\n        /* \"#utility.yul\":14347:14478   */\n      tag_324\n        /* \"#utility.yul\":14473:14477   */\n      dup2\n        /* \"#utility.yul\":14347:14478   */\n      tag_169\n      jump\t// in\n    tag_324:\n        /* \"#utility.yul\":14339:14478   */\n      swap1\n      pop\n        /* \"#utility.yul\":14066:14485   */\n      swap2\n      swap1\n      pop\n      jump\t// out\n        /* \"#utility.yul\":14491:14685   */\n    tag_77:\n        /* \"#utility.yul\":14531:14535   */\n      0x00\n        /* \"#utility.yul\":14551:14571   */\n      tag_326\n        /* \"#utility.yul\":14569:14570   */\n      dup3\n        /* \"#utility.yul\":14551:14571   */\n      tag_127\n      jump\t// in\n    tag_326:\n        /* \"#utility.yul\":14546:14571   */\n      swap2\n      pop\n        /* \"#utility.yul\":14585:14605   */\n      tag_327\n        /* \"#utility.yul\":14603:14604   */\n      dup4\n        /* \"#utility.yul\":14585:14605   */\n      tag_127\n      jump\t// in\n    tag_327:\n        /* \"#utility.yul\":14580:14605   */\n      swap3\n      pop\n        /* \"#utility.yul\":14629:14630   */\n      dup3\n        /* \"#utility.yul\":14626:14627   */\n      dup3\n        /* \"#utility.yul\":14622:14631   */\n      sub\n        /* \"#utility.yul\":14614:14631   */\n      swap1\n      pop\n        /* \"#utility.yul\":14653:14654   */\n      dup2\n        /* \"#utility.yul\":14647:14651   */\n      dup2\n        /* \"#utility.yul\":14644:14655   */\n      gt\n        /* \"#utility.yul\":14641:14678   */\n      iszero\n      tag_328\n      jumpi\n        /* \"#utility.yul\":14658:14676   */\n      tag_329\n      tag_150\n      jump\t// in\n    tag_329:\n        /* \"#utility.yul\":14641:14678   */\n    tag_328:\n        /* \"#utility.yul\":14491:14685   */\n      swap3\n      swap2\n      pop\n      pop\n      jump\t// out\n        /* \"#utility.yul\":14691:14871   */\n    tag_102:\n        /* \"#utility.yul\":14739:14816   */\n      0x4e487b7100000000000000000000000000000000000000000000000000000000\n        /* \"#utility.yul\":14736:14737   */\n      0x00\n        /* \"#utility.yul\":14729:14817   */\n      mstore\n        /* \"#utility.yul\":14836:14840   */\n      0x32\n        /* \"#utility.yul\":14833:14834   */\n      0x04\n        /* \"#utility.yul\":14826:14841   */\n      mstore\n        /* \"#utility.yul\":14860:14864   */\n      0x24\n        /* \"#utility.yul\":14857:14858   */\n      0x00\n        /* \"#utility.yul\":14850:14865   */\n      revert\n        /* \"#utility.yul\":14877:15057   */\n    tag_170:\n        /* \"#utility.yul\":14925:15002   */\n      0x4e487b7100000000000000000000000000000000000000000000000000000000\n        /* \"#utility.yul\":14922:14923   */\n      0x00\n        /* \"#utility.yul\":14915:15003   */\n      mstore\n        /* \"#utility.yul\":15022:15026   */\n      0x12\n        /* \"#utility.yul\":15019:15020   */\n      0x04\n        /* \"#utility.yul\":15012:15027   */\n      mstore\n        /* \"#utility.yul\":15046:15050   */\n      0x24\n        /* \"#utility.yul\":15043:15044   */\n      0x00\n        /* \"#utility.yul\":15036:15051   */\n      revert\n        /* \"#utility.yul\":15063:15239   */\n    tag_107:\n        /* \"#utility.yul\":15095:15096   */\n      0x00\n        /* \"#utility.yul\":15112:15132   */\n      tag_333\n        /* \"#utility.yul\":15130:15131   */\n      dup3\n        /* \"#utility.yul\":15112:15132   */\n      tag_127\n      jump\t// in\n    tag_333:\n        /* \"#utility.yul\":15107:15132   */\n      swap2\n      pop\n        /* \"#utility.yul\":15146:15166   */\n      tag_334\n        /* \"#utility.yul\":15164:15165   */\n      dup4\n        /* \"#utility.yul\":15146:15166   */\n      tag_127\n      jump\t// in\n    tag_334:\n        /* \"#utility.yul\":15141:15166   */\n      swap3\n      pop\n        /* \"#utility.yul\":15185:15186   */\n      dup3\n        /* \"#utility.yul\":15175:15210   */\n      tag_335\n      jumpi\n        /* \"#utility.yul\":15190:15208   */\n      tag_336\n      tag_170\n      jump\t// in\n    tag_336:\n        /* \"#utility.yul\":15175:15210   */\n    tag_335:\n        /* \"#utility.yul\":15231:15232   */\n      dup3\n        /* \"#utility.yul\":15228:15229   */\n      dup3\n        /* \"#utility.yul\":15224:15233   */\n      mod\n        /* \"#utility.yul\":15219:15233   */\n      swap1\n      pop\n        /* \"#utility.yul\":15063:15239   */\n      swap3\n      swap2\n      pop\n      pop\n      jump\t// out\n        /* \"#utility.yul\":15245:15430   */\n    tag_111:\n        /* \"#utility.yul\":15285:15286   */\n      0x00\n        /* \"#utility.yul\":15302:15322   */\n      tag_338\n        /* \"#utility.yul\":15320:15321   */\n      dup3\n        /* \"#utility.yul\":15302:15322   */\n      tag_127\n      jump\t// in\n    tag_338:\n        /* \"#utility.yul\":15297:15322   */\n      swap2\n      pop\n        /* \"#utility.yul\":15336:15356   */\n      tag_339\n        /* \"#utility.yul\":15354:15355   */\n      dup4\n        /* \"#utility.yul\":15336:15356   */\n      tag_127\n      jump\t// in\n    tag_339:\n        /* \"#utility.yul\":15331:15356   */\n      swap3\n      pop\n        /* \"#utility.yul\":15375:15376   */\n      dup3\n        /* \"#utility.yul\":15365:15400   */\n      tag_340\n      jumpi\n        /* \"#utility.yul\":15380:15398   */\n      tag_341\n      tag_170\n      jump\t// in\n    tag_341:\n        /* \"#utility.yul\":15365:15400   */\n    tag_340:\n        /* \"#utility.yul\":15422:15423   */\n      dup3\n        /* \"#utility.yul\":15419:15420   */\n      dup3\n        /* \"#utility.yul\":15415:15424   */\n      div\n        /* \"#utility.yul\":15410:15424   */\n      swap1\n      pop\n        /* \"#utility.yul\":15245:15430   */\n      swap3\n      swap2\n      pop\n      pop\n      jump\t// out\n\n    auxdata: 0xa2646970667358221220656f896a864ad9265c9fcc4b17b72565285fca9a9df100106a78f5fecf2fd27764736f6c634300081e0033\n}\n",
				"bytecode": {
					"linkReferences": {},
					"object": "6080604052348015600e575f5ffd5b50335f5f6101000a81548173ffffffffffffffffffffffffffffffffffffffff021916908373ffffffffffffffffffffffffffffffffffffffff160217905550600233908060018154018082558091505060019003905f5260205f20015f9091909190916101000a81548173ffffffffffffffffffffffffffffffffffffffff021916908373ffffffffffffffffffffffffffffffffffffffff16021790555061137b806100bb5f395ff3fe608060405234801561000f575f5ffd5b5060043610610060575f3560e01c806341ec68701461006457806346f81a8714610082578063891903931461009e578063b3f98adc146100a8578063c7f758a8146100c4578063cbff75cb146100f4575b5f5ffd5b61006c610124565b6040516100799190610c3e565b60405180910390f35b61009c60048036038101906100979190610cf1565b6102cc565b005b6100a6610447565b005b6100c260048036038101906100bd9190610d84565b610538565b005b6100de60048036038101906100d99190610daf565b610728565b6040516100eb9190610c3e565b60405180910390f35b61010e60048036038101906101099190610e34565b6108d0565b60405161011b9190610e6e565b60405180910390f35b61012c610a03565b60035f60015481526020019081526020015f20604051806101000160405290815f8201805461015a90610eb4565b80601f016020809104026020016040519081016040528092919081815260200182805461018690610eb4565b80156101d15780601f106101a8576101008083540402835291602001916101d1565b820191905f5260205f20905b8154815290600101906020018083116101b457829003601f168201915b505050505081526020016001820180546101ea90610eb4565b80601f016020809104026020016040519081016040528092919081815260200182805461021690610eb4565b80156102615780601f1061023857610100808354040283529160200191610261565b820191905f5260205f20905b81548152906001019060200180831161024457829003601f168201915b5050505050815260200160028201548152602001600382015481526020016004820154815260200160058201548152602001600682015f9054906101000a900460ff161515151581526020016006820160019054906101000a900460ff161515151581525050905090565b6001805f8282546102dd9190610f11565b925050819055506040518061010001604052806040518060400160405280600581526020017f7469746c65000000000000000000000000000000000000000000000000000000815250815260200184848080601f0160208091040260200160405190810160405280939291908181526020018383808284375f81840152601f19601f8201169050808301925050505050505081526020015f81526020015f81526020015f81526020018281526020015f151581526020016001151581525060035f60015481526020019081526020015f205f820151815f0190816103c19190611111565b5060208201518160010190816103d79190611111565b5060408201518160020155606082015181600301556080820151816004015560a0820151816005015560c0820151816006015f6101000a81548160ff02191690831515021790555060e08201518160060160016101000a81548160ff021916908315150217905550905050505050565b5f5f9054906101000a900473ffffffffffffffffffffffffffffffffffffffff1673ffffffffffffffffffffffffffffffffffffffff163373ffffffffffffffffffffffffffffffffffffffff161461049e575f5ffd5b6001151560035f60015481526020019081526020015f2060060160019054906101000a900460ff16151514610508576040517f08c379a00000000000000000000000000000000000000000000000000000000081526004016104ff9061123a565b60405180910390fd5b5f60035f60015481526020019081526020015f2060060160016101000a81548160ff021916908315150217905550565b5f60035f60015481526020019081526020015f2090505f8160040154826003015483600201546105689190610f11565b6105729190610f11565b905060018360ff16036105c1576001826002015f8282546105939190610f11565b925050819055506105a2610972565b826006015f6101000a81548160ff021916908315150217905550610658565b60028360ff160361060e576001826003015f8282546105e09190610f11565b925050819055506105ef610972565b826006015f6101000a81548160ff021916908315150217905550610657565b5f8360ff1603610656576001826004015f82825461062c9190610f11565b9250508190555061063b610972565b826006015f6101000a81548160ff0219169083151502179055505b5b5b600181836005015461066a9190611258565b148015610695575060018360ff161480610687575060028360ff16145b8061069457505f8360ff16145b5b15610723575f8260060160016101000a81548160ff02191690831515021790555060405180602001604052805f5f9054906101000a900473ffffffffffffffffffffffffffffffffffffffff1673ffffffffffffffffffffffffffffffffffffffff1673ffffffffffffffffffffffffffffffffffffffff168152506002906001610721929190610a46565b505b505050565b610730610a03565b60035f8381526020019081526020015f20604051806101000160405290815f8201805461075c90610eb4565b80601f016020809104026020016040519081016040528092919081815260200182805461078890610eb4565b80156107d35780601f106107aa576101008083540402835291602001916107d3565b820191905f5260205f20905b8154815290600101906020018083116107b657829003601f168201915b505050505081526020016001820180546107ec90610eb4565b80601f016020809104026020016040519081016040528092919081815260200182805461081890610eb4565b80156108635780601f1061083a57610100808354040283529160200191610863565b820191905f5260205f20905b81548152906001019060200180831161084657829003601f168201915b5050505050815260200160028201548152602001600382015481526020016004820154815260200160058201548152602001600682015f9054906101000a900460ff161515151581526020016006820160019054906101000a900460ff1615151515815250509050919050565b5f5f5f90505b600280549050811015610968578273ffffffffffffffffffffffffffffffffffffffff166002828154811061090e5761090d61128b565b5b905f5260205f20015f9054906101000a900473ffffffffffffffffffffffffffffffffffffffff1673ffffffffffffffffffffffffffffffffffffffff160361095b57600191505061096d565b80806001019150506108d6565b505f90505b919050565b5f5f60035f60015481526020019081526020015f2090505f816002015490505f826003015490505f836004015490506001600285600401546109b491906112e5565b036109c9576001816109c69190610f11565b90505b6002816109d69190611315565b905080826109e49190610f11565b8311156109f8576001945050505050610a00565b5f9450505050505b90565b60405180610100016040528060608152602001606081526020015f81526020015f81526020015f81526020015f81526020015f151581526020015f151581525090565b828054828255905f5260205f20908101928215610abc579160200282015b82811115610abb578251825f6101000a81548173ffffffffffffffffffffffffffffffffffffffff021916908373ffffffffffffffffffffffffffffffffffffffff16021790555091602001919060010190610a64565b5b509050610ac99190610acd565b5090565b5b80821115610ae4575f815f905550600101610ace565b5090565b5f81519050919050565b5f82825260208201905092915050565b8281835e5f83830152505050565b5f601f19601f8301169050919050565b5f610b2a82610ae8565b610b348185610af2565b9350610b44818560208601610b02565b610b4d81610b10565b840191505092915050565b5f819050919050565b610b6a81610b58565b82525050565b5f8115159050919050565b610b8481610b70565b82525050565b5f61010083015f8301518482035f860152610ba58282610b20565b91505060208301518482036020860152610bbf8282610b20565b9150506040830151610bd46040860182610b61565b506060830151610be76060860182610b61565b506080830151610bfa6080860182610b61565b5060a0830151610c0d60a0860182610b61565b5060c0830151610c2060c0860182610b7b565b5060e0830151610c3360e0860182610b7b565b508091505092915050565b5f6020820190508181035f830152610c568184610b8a565b905092915050565b5f5ffd5b5f5ffd5b5f5ffd5b5f5ffd5b5f5ffd5b5f5f83601f840112610c8757610c86610c66565b5b8235905067ffffffffffffffff811115610ca457610ca3610c6a565b5b602083019150836001820283011115610cc057610cbf610c6e565b5b9250929050565b610cd081610b58565b8114610cda575f5ffd5b50565b5f81359050610ceb81610cc7565b92915050565b5f5f5f60408486031215610d0857610d07610c5e565b5b5f84013567ffffffffffffffff811115610d2557610d24610c62565b5b610d3186828701610c72565b93509350506020610d4486828701610cdd565b9150509250925092565b5f60ff82169050919050565b610d6381610d4e565b8114610d6d575f5ffd5b50565b5f81359050610d7e81610d5a565b92915050565b5f60208284031215610d9957610d98610c5e565b5b5f610da684828501610d70565b91505092915050565b5f60208284031215610dc457610dc3610c5e565b5b5f610dd184828501610cdd565b91505092915050565b5f73ffffffffffffffffffffffffffffffffffffffff82169050919050565b5f610e0382610dda565b9050919050565b610e1381610df9565b8114610e1d575f5ffd5b50565b5f81359050610e2e81610e0a565b92915050565b5f60208284031215610e4957610e48610c5e565b5b5f610e5684828501610e20565b91505092915050565b610e6881610b70565b82525050565b5f602082019050610e815f830184610e5f565b92915050565b7f4e487b71000000000000000000000000000000000000000000000000000000005f52602260045260245ffd5b5f6002820490506001821680610ecb57607f821691505b602082108103610ede57610edd610e87565b5b50919050565b7f4e487b71000000000000000000000000000000000000000000000000000000005f52601160045260245ffd5b5f610f1b82610b58565b9150610f2683610b58565b9250828201905080821115610f3e57610f3d610ee4565b5b92915050565b7f4e487b71000000000000000000000000000000000000000000000000000000005f52604160045260245ffd5b5f819050815f5260205f209050919050565b5f6020601f8301049050919050565b5f82821b905092915050565b5f60088302610fcd7fffffffffffffffffffffffffffffffffffffffffffffffffffffffffffffffff82610f92565b610fd78683610f92565b95508019841693508086168417925050509392505050565b5f819050919050565b5f61101261100d61100884610b58565b610fef565b610b58565b9050919050565b5f819050919050565b61102b83610ff8565b61103f61103782611019565b848454610f9e565b825550505050565b5f5f905090565b611056611047565b611061818484611022565b505050565b5b81811015611084576110795f8261104e565b600181019050611067565b5050565b601f8211156110c95761109a81610f71565b6110a384610f83565b810160208510156110b2578190505b6110c66110be85610f83565b830182611066565b50505b505050565b5f82821c905092915050565b5f6110e95f19846008026110ce565b1980831691505092915050565b5f61110183836110da565b9150826002028217905092915050565b61111a82610ae8565b67ffffffffffffffff81111561113357611132610f44565b5b61113d8254610eb4565b611148828285611088565b5f60209050601f831160018114611179575f8415611167578287015190505b61117185826110f6565b8655506111d8565b601f19841661118786610f71565b5f5b828110156111ae57848901518255600182019150602085019450602081019050611189565b868310156111cb57848901516111c7601f8916826110da565b8355505b6001600288020188555050505b505050505050565b5f82825260208201905092915050565b7f5468652070726f706f73616c206973206e6f74206163746976650000000000005f82015250565b5f611224601a836111e0565b915061122f826111f0565b602082019050919050565b5f6020820190508181035f83015261125181611218565b9050919050565b5f61126282610b58565b915061126d83610b58565b925082820390508181111561128557611284610ee4565b5b92915050565b7f4e487b71000000000000000000000000000000000000000000000000000000005f52603260045260245ffd5b7f4e487b71000000000000000000000000000000000000000000000000000000005f52601260045260245ffd5b5f6112ef82610b58565b91506112fa83610b58565b92508261130a576113096112b8565b5b828206905092915050565b5f61131f82610b58565b915061132a83610b58565b92508261133a576113396112b8565b5b82820490509291505056fea2646970667358221220656f896a864ad9265c9fcc4b17b72565285fca9a9df100106a78f5fecf2fd27764736f6c634300081e0033",
					"opcodes": "PUSH1 0x80 PUSH1 0x40 MSTORE CALLVALUE DUP1 ISZERO PUSH1 0xE JUMPI PUSH0 PUSH0 REVERT JUMPDEST POP CALLER PUSH0 PUSH0 PUSH2 0x100 EXP DUP2 SLOAD DUP2 PUSH20 0xFFFFFFFFFFFFFFFFFFFFFFFFFFFFFFFFFFFFFFFF MUL NOT AND SWAP1 DUP4 PUSH20 0xFFFFFFFFFFFFFFFFFFFFFFFFFFFFFFFFFFFFFFFF AND MUL OR SWAP1 SSTORE POP PUSH1 0x2 CALLER SWAP1 DUP1 PUSH1 0x1 DUP2 SLOAD ADD DUP1 DUP3 SSTORE DUP1 SWAP2 POP POP PUSH1 0x1 SWAP1 SUB SWAP1 PUSH0 MSTORE PUSH1 0x20 PUSH0 KECCAK256 ADD PUSH0 SWAP1 SWAP2 SWAP1 SWAP2 SWAP1 SWAP2 PUSH2 0x100 EXP DUP2 SLOAD DUP2 PUSH20 0xFFFFFFFFFFFFFFFFFFFFFFFFFFFFFFFFFFFFFFFF MUL NOT AND SWAP1 DUP4 PUSH20 0xFFFFFFFFFFFFFFFFFFFFFFFFFFFFFFFFFFFFFFFF AND MUL OR SWAP1 SSTORE POP PUSH2 0x137B DUP1 PUSH2 0xBB PUSH0 CODECOPY PUSH0 RETURN INVALID PUSH1 0x80 PUSH1 0x40 MSTORE CALLVALUE DUP1 ISZERO PUSH2 0xF JUMPI PUSH0 PUSH0 REVERT JUMPDEST POP PUSH1 0x4 CALLDATASIZE LT PUSH2 0x60 JUMPI PUSH0 CALLDATALOAD PUSH1 0xE0 SHR DUP1 PUSH4 0x41EC6870 EQ PUSH2 0x64 JUMPI DUP1 PUSH4 0x46F81A87 EQ PUSH2 0x82 JUMPI DUP1 PUSH4 0x89190393 EQ PUSH2 0x9E JUMPI DUP1 PUSH4 0xB3F98ADC EQ PUSH2 0xA8 JUMPI DUP1 PUSH4 0xC7F758A8 EQ PUSH2 0xC4 JUMPI DUP1 PUSH4 0xCBFF75CB EQ PUSH2 0xF4 JUMPI JUMPDEST PUSH0 PUSH0 REVERT JUMPDEST PUSH2 0x6C PUSH2 0x124 JUMP JUMPDEST PUSH1 0x40 MLOAD PUSH2 0x79 SWAP2 SWAP1 PUSH2 0xC3E JUMP JUMPDEST PUSH1 0x40 MLOAD DUP1 SWAP2 SUB SWAP1 RETURN JUMPDEST PUSH2 0x9C PUSH1 0x4 DUP1 CALLDATASIZE SUB DUP2 ADD SWAP1 PUSH2 0x97 SWAP2 SWAP1 PUSH2 0xCF1 JUMP JUMPDEST PUSH2 0x2CC JUMP JUMPDEST STOP JUMPDEST PUSH2 0xA6 PUSH2 0x447 JUMP JUMPDEST STOP JUMPDEST PUSH2 0xC2 PUSH1 0x4 DUP1 CALLDATASIZE SUB DUP2 ADD SWAP1 PUSH2 0xBD SWAP2 SWAP1 PUSH2 0xD84 JUMP JUMPDEST PUSH2 0x538 JUMP JUMPDEST STOP JUMPDEST PUSH2 0xDE PUSH1 0x4 DUP1 CALLDATASIZE SUB DUP2 ADD SWAP1 PUSH2 0xD9 SWAP2 SWAP1 PUSH2 0xDAF JUMP JUMPDEST PUSH2 0x728 JUMP JUMPDEST PUSH1 0x40 MLOAD PUSH2 0xEB SWAP2 SWAP1 PUSH2 0xC3E JUMP JUMPDEST PUSH1 0x40 MLOAD DUP1 SWAP2 SUB SWAP1 RETURN JUMPDEST PUSH2 0x10E PUSH1 0x4 DUP1 CALLDATASIZE SUB DUP2 ADD SWAP1 PUSH2 0x109 SWAP2 SWAP1 PUSH2 0xE34 JUMP JUMPDEST PUSH2 0x8D0 JUMP JUMPDEST PUSH1 0x40 MLOAD PUSH2 0x11B SWAP2 SWAP1 PUSH2 0xE6E JUMP JUMPDEST PUSH1 0x40 MLOAD DUP1 SWAP2 SUB SWAP1 RETURN JUMPDEST PUSH2 0x12C PUSH2 0xA03 JUMP JUMPDEST PUSH1 0x3 PUSH0 PUSH1 0x1 SLOAD DUP2 MSTORE PUSH1 0x20 ADD SWAP1 DUP2 MSTORE PUSH1 0x20 ADD PUSH0 KECCAK256 PUSH1 0x40 MLOAD DUP1 PUSH2 0x100 ADD PUSH1 0x40 MSTORE SWAP1 DUP2 PUSH0 DUP3 ADD DUP1 SLOAD PUSH2 0x15A SWAP1 PUSH2 0xEB4 JUMP JUMPDEST DUP1 PUSH1 0x1F ADD PUSH1 0x20 DUP1 SWAP2 DIV MUL PUSH1 0x20 ADD PUSH1 0x40 MLOAD SWAP1 DUP2 ADD PUSH1 0x40 MSTORE DUP1 SWAP3 SWAP2 SWAP1 DUP2 DUP2 MSTORE PUSH1 0x20 ADD DUP3 DUP1 SLOAD PUSH2 0x186 SWAP1 PUSH2 0xEB4 JUMP JUMPDEST DUP1 ISZERO PUSH2 0x1D1 JUMPI DUP1 PUSH1 0x1F LT PUSH2 0x1A8 JUMPI PUSH2 0x100 DUP1 DUP4 SLOAD DIV MUL DUP4 MSTORE SWAP2 PUSH1 0x20 ADD SWAP2 PUSH2 0x1D1 JUMP JUMPDEST DUP3 ADD SWAP2 SWAP1 PUSH0 MSTORE PUSH1 0x20 PUSH0 KECCAK256 SWAP1 JUMPDEST DUP2 SLOAD DUP2 MSTORE SWAP1 PUSH1 0x1 ADD SWAP1 PUSH1 0x20 ADD DUP1 DUP4 GT PUSH2 0x1B4 JUMPI DUP3 SWAP1 SUB PUSH1 0x1F AND DUP3 ADD SWAP2 JUMPDEST POP POP POP POP POP DUP2 MSTORE PUSH1 0x20 ADD PUSH1 0x1 DUP3 ADD DUP1 SLOAD PUSH2 0x1EA SWAP1 PUSH2 0xEB4 JUMP JUMPDEST DUP1 PUSH1 0x1F ADD PUSH1 0x20 DUP1 SWAP2 DIV MUL PUSH1 0x20 ADD PUSH1 0x40 MLOAD SWAP1 DUP2 ADD PUSH1 0x40 MSTORE DUP1 SWAP3 SWAP2 SWAP1 DUP2 DUP2 MSTORE PUSH1 0x20 ADD DUP3 DUP1 SLOAD PUSH2 0x216 SWAP1 PUSH2 0xEB4 JUMP JUMPDEST DUP1 ISZERO PUSH2 0x261 JUMPI DUP1 PUSH1 0x1F LT PUSH2 0x238 JUMPI PUSH2 0x100 DUP1 DUP4 SLOAD DIV MUL DUP4 MSTORE SWAP2 PUSH1 0x20 ADD SWAP2 PUSH2 0x261 JUMP JUMPDEST DUP3 ADD SWAP2 SWAP1 PUSH0 MSTORE PUSH1 0x20 PUSH0 KECCAK256 SWAP1 JUMPDEST DUP2 SLOAD DUP2 MSTORE SWAP1 PUSH1 0x1 ADD SWAP1 PUSH1 0x20 ADD DUP1 DUP4 GT PUSH2 0x244 JUMPI DUP3 SWAP1 SUB PUSH1 0x1F AND DUP3 ADD SWAP2 JUMPDEST POP POP POP POP POP DUP2 MSTORE PUSH1 0x20 ADD PUSH1 0x2 DUP3 ADD SLOAD DUP2 MSTORE PUSH1 0x20 ADD PUSH1 0x3 DUP3 ADD SLOAD DUP2 MSTORE PUSH1 0x20 ADD PUSH1 0x4 DUP3 ADD SLOAD DUP2 MSTORE PUSH1 0x20 ADD PUSH1 0x5 DUP3 ADD SLOAD DUP2 MSTORE PUSH1 0x20 ADD PUSH1 0x6 DUP3 ADD PUSH0 SWAP1 SLOAD SWAP1 PUSH2 0x100 EXP SWAP1 DIV PUSH1 0xFF AND ISZERO ISZERO ISZERO ISZERO DUP2 MSTORE PUSH1 0x20 ADD PUSH1 0x6 DUP3 ADD PUSH1 0x1 SWAP1 SLOAD SWAP1 PUSH2 0x100 EXP SWAP1 DIV PUSH1 0xFF AND ISZERO ISZERO ISZERO ISZERO DUP2 MSTORE POP POP SWAP1 POP SWAP1 JUMP JUMPDEST PUSH1 0x1 DUP1 PUSH0 DUP3 DUP3 SLOAD PUSH2 0x2DD SWAP2 SWAP1 PUSH2 0xF11 JUMP JUMPDEST SWAP3 POP POP DUP2 SWAP1 SSTORE POP PUSH1 0x40 MLOAD DUP1 PUSH2 0x100 ADD PUSH1 0x40 MSTORE DUP1 PUSH1 0x40 MLOAD DUP1 PUSH1 0x40 ADD PUSH1 0x40 MSTORE DUP1 PUSH1 0x5 DUP2 MSTORE PUSH1 0x20 ADD PUSH32 0x7469746C65000000000000000000000000000000000000000000000000000000 DUP2 MSTORE POP DUP2 MSTORE PUSH1 0x20 ADD DUP5 DUP5 DUP1 DUP1 PUSH1 0x1F ADD PUSH1 0x20 DUP1 SWAP2 DIV MUL PUSH1 0x20 ADD PUSH1 0x40 MLOAD SWAP1 DUP2 ADD PUSH1 0x40 MSTORE DUP1 SWAP4 SWAP3 SWAP2 SWAP1 DUP2 DUP2 MSTORE PUSH1 0x20 ADD DUP4 DUP4 DUP1 DUP3 DUP5 CALLDATACOPY PUSH0 DUP2 DUP5 ADD MSTORE PUSH1 0x1F NOT PUSH1 0x1F DUP3 ADD AND SWAP1 POP DUP1 DUP4 ADD SWAP3 POP POP POP POP POP POP POP DUP2 MSTORE PUSH1 0x20 ADD PUSH0 DUP2 MSTORE PUSH1 0x20 ADD PUSH0 DUP2 MSTORE PUSH1 0x20 ADD PUSH0 DUP2 MSTORE PUSH1 0x20 ADD DUP3 DUP2 MSTORE PUSH1 0x20 ADD PUSH0 ISZERO ISZERO DUP2 MSTORE PUSH1 0x20 ADD PUSH1 0x1 ISZERO ISZERO DUP2 MSTORE POP PUSH1 0x3 PUSH0 PUSH1 0x1 SLOAD DUP2 MSTORE PUSH1 0x20 ADD SWAP1 DUP2 MSTORE PUSH1 0x20 ADD PUSH0 KECCAK256 PUSH0 DUP3 ADD MLOAD DUP2 PUSH0 ADD SWAP1 DUP2 PUSH2 0x3C1 SWAP2 SWAP1 PUSH2 0x1111 JUMP JUMPDEST POP PUSH1 0x20 DUP3 ADD MLOAD DUP2 PUSH1 0x1 ADD SWAP1 DUP2 PUSH2 0x3D7 SWAP2 SWAP1 PUSH2 0x1111 JUMP JUMPDEST POP PUSH1 0x40 DUP3 ADD MLOAD DUP2 PUSH1 0x2 ADD SSTORE PUSH1 0x60 DUP3 ADD MLOAD DUP2 PUSH1 0x3 ADD SSTORE PUSH1 0x80 DUP3 ADD MLOAD DUP2 PUSH1 0x4 ADD SSTORE PUSH1 0xA0 DUP3 ADD MLOAD DUP2 PUSH1 0x5 ADD SSTORE PUSH1 0xC0 DUP3 ADD MLOAD DUP2 PUSH1 0x6 ADD PUSH0 PUSH2 0x100 EXP DUP2 SLOAD DUP2 PUSH1 0xFF MUL NOT AND SWAP1 DUP4 ISZERO ISZERO MUL OR SWAP1 SSTORE POP PUSH1 0xE0 DUP3 ADD MLOAD DUP2 PUSH1 0x6 ADD PUSH1 0x1 PUSH2 0x100 EXP DUP2 SLOAD DUP2 PUSH1 0xFF MUL NOT AND SWAP1 DUP4 ISZERO ISZERO MUL OR SWAP1 SSTORE POP SWAP1 POP POP POP POP POP JUMP JUMPDEST PUSH0 PUSH0 SWAP1 SLOAD SWAP1 PUSH2 0x100 EXP SWAP1 DIV PUSH20 0xFFFFFFFFFFFFFFFFFFFFFFFFFFFFFFFFFFFFFFFF AND PUSH20 0xFFFFFFFFFFFFFFFFFFFFFFFFFFFFFFFFFFFFFFFF AND CALLER PUSH20 0xFFFFFFFFFFFFFFFFFFFFFFFFFFFFFFFFFFFFFFFF AND EQ PUSH2 0x49E JUMPI PUSH0 PUSH0 REVERT JUMPDEST PUSH1 0x1 ISZERO ISZERO PUSH1 0x3 PUSH0 PUSH1 0x1 SLOAD DUP2 MSTORE PUSH1 0x20 ADD SWAP1 DUP2 MSTORE PUSH1 0x20 ADD PUSH0 KECCAK256 PUSH1 0x6 ADD PUSH1 0x1 SWAP1 SLOAD SWAP1 PUSH2 0x100 EXP SWAP1 DIV PUSH1 0xFF AND ISZERO ISZERO EQ PUSH2 0x508 JUMPI PUSH1 0x40 MLOAD PUSH32 0x8C379A000000000000000000000000000000000000000000000000000000000 DUP2 MSTORE PUSH1 0x4 ADD PUSH2 0x4FF SWAP1 PUSH2 0x123A JUMP JUMPDEST PUSH1 0x40 MLOAD DUP1 SWAP2 SUB SWAP1 REVERT JUMPDEST PUSH0 PUSH1 0x3 PUSH0 PUSH1 0x1 SLOAD DUP2 MSTORE PUSH1 0x20 ADD SWAP1 DUP2 MSTORE PUSH1 0x20 ADD PUSH0 KECCAK256 PUSH1 0x6 ADD PUSH1 0x1 PUSH2 0x100 EXP DUP2 SLOAD DUP2 PUSH1 0xFF MUL NOT AND SWAP1 DUP4 ISZERO ISZERO MUL OR SWAP1 SSTORE POP JUMP JUMPDEST PUSH0 PUSH1 0x3 PUSH0 PUSH1 0x1 SLOAD DUP2 MSTORE PUSH1 0x20 ADD SWAP1 DUP2 MSTORE PUSH1 0x20 ADD PUSH0 KECCAK256 SWAP1 POP PUSH0 DUP2 PUSH1 0x4 ADD SLOAD DUP3 PUSH1 0x3 ADD SLOAD DUP4 PUSH1 0x2 ADD SLOAD PUSH2 0x568 SWAP2 SWAP1 PUSH2 0xF11 JUMP JUMPDEST PUSH2 0x572 SWAP2 SWAP1 PUSH2 0xF11 JUMP JUMPDEST SWAP1 POP PUSH1 0x1 DUP4 PUSH1 0xFF AND SUB PUSH2 0x5C1 JUMPI PUSH1 0x1 DUP3 PUSH1 0x2 ADD PUSH0 DUP3 DUP3 SLOAD PUSH2 0x593 SWAP2 SWAP1 PUSH2 0xF11 JUMP JUMPDEST SWAP3 POP POP DUP2 SWAP1 SSTORE POP PUSH2 0x5A2 PUSH2 0x972 JUMP JUMPDEST DUP3 PUSH1 0x6 ADD PUSH0 PUSH2 0x100 EXP DUP2 SLOAD DUP2 PUSH1 0xFF MUL NOT AND SWAP1 DUP4 ISZERO ISZERO MUL OR SWAP1 SSTORE POP PUSH2 0x658 JUMP JUMPDEST PUSH1 0x2 DUP4 PUSH1 0xFF AND SUB PUSH2 0x60E JUMPI PUSH1 0x1 DUP3 PUSH1 0x3 ADD PUSH0 DUP3 DUP3 SLOAD PUSH2 0x5E0 SWAP2 SWAP1 PUSH2 0xF11 JUMP JUMPDEST SWAP3 POP POP DUP2 SWAP1 SSTORE POP PUSH2 0x5EF PUSH2 0x972 JUMP JUMPDEST DUP3 PUSH1 0x6 ADD PUSH0 PUSH2 0x100 EXP DUP2 SLOAD DUP2 PUSH1 0xFF MUL NOT AND SWAP1 DUP4 ISZERO ISZERO MUL OR SWAP1 SSTORE POP PUSH2 0x657 JUMP JUMPDEST PUSH0 DUP4 PUSH1 0xFF AND SUB PUSH2 0x656 JUMPI PUSH1 0x1 DUP3 PUSH1 0x4 ADD PUSH0 DUP3 DUP3 SLOAD PUSH2 0x62C SWAP2 SWAP1 PUSH2 0xF11 JUMP JUMPDEST SWAP3 POP POP DUP2 SWAP1 SSTORE POP PUSH2 0x63B PUSH2 0x972 JUMP JUMPDEST DUP3 PUSH1 0x6 ADD PUSH0 PUSH2 0x100 EXP DUP2 SLOAD DUP2 PUSH1 0xFF MUL NOT AND SWAP1 DUP4 ISZERO ISZERO MUL OR SWAP1 SSTORE POP JUMPDEST JUMPDEST JUMPDEST PUSH1 0x1 DUP2 DUP4 PUSH1 0x5 ADD SLOAD PUSH2 0x66A SWAP2 SWAP1 PUSH2 0x1258 JUMP JUMPDEST EQ DUP1 ISZERO PUSH2 0x695 JUMPI POP PUSH1 0x1 DUP4 PUSH1 0xFF AND EQ DUP1 PUSH2 0x687 JUMPI POP PUSH1 0x2 DUP4 PUSH1 0xFF AND EQ JUMPDEST DUP1 PUSH2 0x694 JUMPI POP PUSH0 DUP4 PUSH1 0xFF AND EQ JUMPDEST JUMPDEST ISZERO PUSH2 0x723 JUMPI PUSH0 DUP3 PUSH1 0x6 ADD PUSH1 0x1 PUSH2 0x100 EXP DUP2 SLOAD DUP2 PUSH1 0xFF MUL NOT AND SWAP1 DUP4 ISZERO ISZERO MUL OR SWAP1 SSTORE POP PUSH1 0x40 MLOAD DUP1 PUSH1 0x20 ADD PUSH1 0x40 MSTORE DUP1 PUSH0 PUSH0 SWAP1 SLOAD SWAP1 PUSH2 0x100 EXP SWAP1 DIV PUSH20 0xFFFFFFFFFFFFFFFFFFFFFFFFFFFFFFFFFFFFFFFF AND PUSH20 0xFFFFFFFFFFFFFFFFFFFFFFFFFFFFFFFFFFFFFFFF AND PUSH20 0xFFFFFFFFFFFFFFFFFFFFFFFFFFFFFFFFFFFFFFFF AND DUP2 MSTORE POP PUSH1 0x2 SWAP1 PUSH1 0x1 PUSH2 0x721 SWAP3 SWAP2 SWAP1 PUSH2 0xA46 JUMP JUMPDEST POP JUMPDEST POP POP POP JUMP JUMPDEST PUSH2 0x730 PUSH2 0xA03 JUMP JUMPDEST PUSH1 0x3 PUSH0 DUP4 DUP2 MSTORE PUSH1 0x20 ADD SWAP1 DUP2 MSTORE PUSH1 0x20 ADD PUSH0 KECCAK256 PUSH1 0x40 MLOAD DUP1 PUSH2 0x100 ADD PUSH1 0x40 MSTORE SWAP1 DUP2 PUSH0 DUP3 ADD DUP1 SLOAD PUSH2 0x75C SWAP1 PUSH2 0xEB4 JUMP JUMPDEST DUP1 PUSH1 0x1F ADD PUSH1 0x20 DUP1 SWAP2 DIV MUL PUSH1 0x20 ADD PUSH1 0x40 MLOAD SWAP1 DUP2 ADD PUSH1 0x40 MSTORE DUP1 SWAP3 SWAP2 SWAP1 DUP2 DUP2 MSTORE PUSH1 0x20 ADD DUP3 DUP1 SLOAD PUSH2 0x788 SWAP1 PUSH2 0xEB4 JUMP JUMPDEST DUP1 ISZERO PUSH2 0x7D3 JUMPI DUP1 PUSH1 0x1F LT PUSH2 0x7AA JUMPI PUSH2 0x100 DUP1 DUP4 SLOAD DIV MUL DUP4 MSTORE SWAP2 PUSH1 0x20 ADD SWAP2 PUSH2 0x7D3 JUMP JUMPDEST DUP3 ADD SWAP2 SWAP1 PUSH0 MSTORE PUSH1 0x20 PUSH0 KECCAK256 SWAP1 JUMPDEST DUP2 SLOAD DUP2 MSTORE SWAP1 PUSH1 0x1 ADD SWAP1 PUSH1 0x20 ADD DUP1 DUP4 GT PUSH2 0x7B6 JUMPI DUP3 SWAP1 SUB PUSH1 0x1F AND DUP3 ADD SWAP2 JUMPDEST POP POP POP POP POP DUP2 MSTORE PUSH1 0x20 ADD PUSH1 0x1 DUP3 ADD DUP1 SLOAD PUSH2 0x7EC SWAP1 PUSH2 0xEB4 JUMP JUMPDEST DUP1 PUSH1 0x1F ADD PUSH1 0x20 DUP1 SWAP2 DIV MUL PUSH1 0x20 ADD PUSH1 0x40 MLOAD SWAP1 DUP2 ADD PUSH1 0x40 MSTORE DUP1 SWAP3 SWAP2 SWAP1 DUP2 DUP2 MSTORE PUSH1 0x20 ADD DUP3 DUP1 SLOAD PUSH2 0x818 SWAP1 PUSH2 0xEB4 JUMP JUMPDEST DUP1 ISZERO PUSH2 0x863 JUMPI DUP1 PUSH1 0x1F LT PUSH2 0x83A JUMPI PUSH2 0x100 DUP1 DUP4 SLOAD DIV MUL DUP4 MSTORE SWAP2 PUSH1 0x20 ADD SWAP2 PUSH2 0x863 JUMP JUMPDEST DUP3 ADD SWAP2 SWAP1 PUSH0 MSTORE PUSH1 0x20 PUSH0 KECCAK256 SWAP1 JUMPDEST DUP2 SLOAD DUP2 MSTORE SWAP1 PUSH1 0x1 ADD SWAP1 PUSH1 0x20 ADD DUP1 DUP4 GT PUSH2 0x846 JUMPI DUP3 SWAP1 SUB PUSH1 0x1F AND DUP3 ADD SWAP2 JUMPDEST POP POP POP POP POP DUP2 MSTORE PUSH1 0x20 ADD PUSH1 0x2 DUP3 ADD SLOAD DUP2 MSTORE PUSH1 0x20 ADD PUSH1 0x3 DUP3 ADD SLOAD DUP2 MSTORE PUSH1 0x20 ADD PUSH1 0x4 DUP3 ADD SLOAD DUP2 MSTORE PUSH1 0x20 ADD PUSH1 0x5 DUP3 ADD SLOAD DUP2 MSTORE PUSH1 0x20 ADD PUSH1 0x6 DUP3 ADD PUSH0 SWAP1 SLOAD SWAP1 PUSH2 0x100 EXP SWAP1 DIV PUSH1 0xFF AND ISZERO ISZERO ISZERO ISZERO DUP2 MSTORE PUSH1 0x20 ADD PUSH1 0x6 DUP3 ADD PUSH1 0x1 SWAP1 SLOAD SWAP1 PUSH2 0x100 EXP SWAP1 DIV PUSH1 0xFF AND ISZERO ISZERO ISZERO ISZERO DUP2 MSTORE POP POP SWAP1 POP SWAP2 SWAP1 POP JUMP JUMPDEST PUSH0 PUSH0 PUSH0 SWAP1 POP JUMPDEST PUSH1 0x2 DUP1 SLOAD SWAP1 POP DUP2 LT ISZERO PUSH2 0x968 JUMPI DUP3 PUSH20 0xFFFFFFFFFFFFFFFFFFFFFFFFFFFFFFFFFFFFFFFF AND PUSH1 0x2 DUP3 DUP2 SLOAD DUP2 LT PUSH2 0x90E JUMPI PUSH2 0x90D PUSH2 0x128B JUMP JUMPDEST JUMPDEST SWAP1 PUSH0 MSTORE PUSH1 0x20 PUSH0 KECCAK256 ADD PUSH0 SWAP1 SLOAD SWAP1 PUSH2 0x100 EXP SWAP1 DIV PUSH20 0xFFFFFFFFFFFFFFFFFFFFFFFFFFFFFFFFFFFFFFFF AND PUSH20 0xFFFFFFFFFFFFFFFFFFFFFFFFFFFFFFFFFFFFFFFF AND SUB PUSH2 0x95B JUMPI PUSH1 0x1 SWAP2 POP POP PUSH2 0x96D JUMP JUMPDEST DUP1 DUP1 PUSH1 0x1 ADD SWAP2 POP POP PUSH2 0x8D6 JUMP JUMPDEST POP PUSH0 SWAP1 POP JUMPDEST SWAP2 SWAP1 POP JUMP JUMPDEST PUSH0 PUSH0 PUSH1 0x3 PUSH0 PUSH1 0x1 SLOAD DUP2 MSTORE PUSH1 0x20 ADD SWAP1 DUP2 MSTORE PUSH1 0x20 ADD PUSH0 KECCAK256 SWAP1 POP PUSH0 DUP2 PUSH1 0x2 ADD SLOAD SWAP1 POP PUSH0 DUP3 PUSH1 0x3 ADD SLOAD SWAP1 POP PUSH0 DUP4 PUSH1 0x4 ADD SLOAD SWAP1 POP PUSH1 0x1 PUSH1 0x2 DUP6 PUSH1 0x4 ADD SLOAD PUSH2 0x9B4 SWAP2 SWAP1 PUSH2 0x12E5 JUMP JUMPDEST SUB PUSH2 0x9C9 JUMPI PUSH1 0x1 DUP2 PUSH2 0x9C6 SWAP2 SWAP1 PUSH2 0xF11 JUMP JUMPDEST SWAP1 POP JUMPDEST PUSH1 0x2 DUP2 PUSH2 0x9D6 SWAP2 SWAP1 PUSH2 0x1315 JUMP JUMPDEST SWAP1 POP DUP1 DUP3 PUSH2 0x9E4 SWAP2 SWAP1 PUSH2 0xF11 JUMP JUMPDEST DUP4 GT ISZERO PUSH2 0x9F8 JUMPI PUSH1 0x1 SWAP5 POP POP POP POP POP PUSH2 0xA00 JUMP JUMPDEST PUSH0 SWAP5 POP POP POP POP POP JUMPDEST SWAP1 JUMP JUMPDEST PUSH1 0x40 MLOAD DUP1 PUSH2 0x100 ADD PUSH1 0x40 MSTORE DUP1 PUSH1 0x60 DUP2 MSTORE PUSH1 0x20 ADD PUSH1 0x60 DUP2 MSTORE PUSH1 0x20 ADD PUSH0 DUP2 MSTORE PUSH1 0x20 ADD PUSH0 DUP2 MSTORE PUSH1 0x20 ADD PUSH0 DUP2 MSTORE PUSH1 0x20 ADD PUSH0 DUP2 MSTORE PUSH1 0x20 ADD PUSH0 ISZERO ISZERO DUP2 MSTORE PUSH1 0x20 ADD PUSH0 ISZERO ISZERO DUP2 MSTORE POP SWAP1 JUMP JUMPDEST DUP3 DUP1 SLOAD DUP3 DUP3 SSTORE SWAP1 PUSH0 MSTORE PUSH1 0x20 PUSH0 KECCAK256 SWAP1 DUP2 ADD SWAP3 DUP3 ISZERO PUSH2 0xABC JUMPI SWAP2 PUSH1 0x20 MUL DUP3 ADD JUMPDEST DUP3 DUP2 GT ISZERO PUSH2 0xABB JUMPI DUP3 MLOAD DUP3 PUSH0 PUSH2 0x100 EXP DUP2 SLOAD DUP2 PUSH20 0xFFFFFFFFFFFFFFFFFFFFFFFFFFFFFFFFFFFFFFFF MUL NOT AND SWAP1 DUP4 PUSH20 0xFFFFFFFFFFFFFFFFFFFFFFFFFFFFFFFFFFFFFFFF AND MUL OR SWAP1 SSTORE POP SWAP2 PUSH1 0x20 ADD SWAP2 SWAP1 PUSH1 0x1 ADD SWAP1 PUSH2 0xA64 JUMP JUMPDEST JUMPDEST POP SWAP1 POP PUSH2 0xAC9 SWAP2 SWAP1 PUSH2 0xACD JUMP JUMPDEST POP SWAP1 JUMP JUMPDEST JUMPDEST DUP1 DUP3 GT ISZERO PUSH2 0xAE4 JUMPI PUSH0 DUP2 PUSH0 SWAP1 SSTORE POP PUSH1 0x1 ADD PUSH2 0xACE JUMP JUMPDEST POP SWAP1 JUMP JUMPDEST PUSH0 DUP2 MLOAD SWAP1 POP SWAP2 SWAP1 POP JUMP JUMPDEST PUSH0 DUP3 DUP3 MSTORE PUSH1 0x20 DUP3 ADD SWAP1 POP SWAP3 SWAP2 POP POP JUMP JUMPDEST DUP3 DUP2 DUP4 MCOPY PUSH0 DUP4 DUP4 ADD MSTORE POP POP POP JUMP JUMPDEST PUSH0 PUSH1 0x1F NOT PUSH1 0x1F DUP4 ADD AND SWAP1 POP SWAP2 SWAP1 POP JUMP JUMPDEST PUSH0 PUSH2 0xB2A DUP3 PUSH2 0xAE8 JUMP JUMPDEST PUSH2 0xB34 DUP2 DUP6 PUSH2 0xAF2 JUMP JUMPDEST SWAP4 POP PUSH2 0xB44 DUP2 DUP6 PUSH1 0x20 DUP7 ADD PUSH2 0xB02 JUMP JUMPDEST PUSH2 0xB4D DUP2 PUSH2 0xB10 JUMP JUMPDEST DUP5 ADD SWAP2 POP POP SWAP3 SWAP2 POP POP JUMP JUMPDEST PUSH0 DUP2 SWAP1 POP SWAP2 SWAP1 POP JUMP JUMPDEST PUSH2 0xB6A DUP2 PUSH2 0xB58 JUMP JUMPDEST DUP3 MSTORE POP POP JUMP JUMPDEST PUSH0 DUP2 ISZERO ISZERO SWAP1 POP SWAP2 SWAP1 POP JUMP JUMPDEST PUSH2 0xB84 DUP2 PUSH2 0xB70 JUMP JUMPDEST DUP3 MSTORE POP POP JUMP JUMPDEST PUSH0 PUSH2 0x100 DUP4 ADD PUSH0 DUP4 ADD MLOAD DUP5 DUP3 SUB PUSH0 DUP7 ADD MSTORE PUSH2 0xBA5 DUP3 DUP3 PUSH2 0xB20 JUMP JUMPDEST SWAP2 POP POP PUSH1 0x20 DUP4 ADD MLOAD DUP5 DUP3 SUB PUSH1 0x20 DUP7 ADD MSTORE PUSH2 0xBBF DUP3 DUP3 PUSH2 0xB20 JUMP JUMPDEST SWAP2 POP POP PUSH1 0x40 DUP4 ADD MLOAD PUSH2 0xBD4 PUSH1 0x40 DUP7 ADD DUP3 PUSH2 0xB61 JUMP JUMPDEST POP PUSH1 0x60 DUP4 ADD MLOAD PUSH2 0xBE7 PUSH1 0x60 DUP7 ADD DUP3 PUSH2 0xB61 JUMP JUMPDEST POP PUSH1 0x80 DUP4 ADD MLOAD PUSH2 0xBFA PUSH1 0x80 DUP7 ADD DUP3 PUSH2 0xB61 JUMP JUMPDEST POP PUSH1 0xA0 DUP4 ADD MLOAD PUSH2 0xC0D PUSH1 0xA0 DUP7 ADD DUP3 PUSH2 0xB61 JUMP JUMPDEST POP PUSH1 0xC0 DUP4 ADD MLOAD PUSH2 0xC20 PUSH1 0xC0 DUP7 ADD DUP3 PUSH2 0xB7B JUMP JUMPDEST POP PUSH1 0xE0 DUP4 ADD MLOAD PUSH2 0xC33 PUSH1 0xE0 DUP7 ADD DUP3 PUSH2 0xB7B JUMP JUMPDEST POP DUP1 SWAP2 POP POP SWAP3 SWAP2 POP POP JUMP JUMPDEST PUSH0 PUSH1 0x20 DUP3 ADD SWAP1 POP DUP2 DUP2 SUB PUSH0 DUP4 ADD MSTORE PUSH2 0xC56 DUP2 DUP5 PUSH2 0xB8A JUMP JUMPDEST SWAP1 POP SWAP3 SWAP2 POP POP JUMP JUMPDEST PUSH0 PUSH0 REVERT JUMPDEST PUSH0 PUSH0 REVERT JUMPDEST PUSH0 PUSH0 REVERT JUMPDEST PUSH0 PUSH0 REVERT JUMPDEST PUSH0 PUSH0 REVERT JUMPDEST PUSH0 PUSH0 DUP4 PUSH1 0x1F DUP5 ADD SLT PUSH2 0xC87 JUMPI PUSH2 0xC86 PUSH2 0xC66 JUMP JUMPDEST JUMPDEST DUP3 CALLDATALOAD SWAP1 POP PUSH8 0xFFFFFFFFFFFFFFFF DUP2 GT ISZERO PUSH2 0xCA4 JUMPI PUSH2 0xCA3 PUSH2 0xC6A JUMP JUMPDEST JUMPDEST PUSH1 0x20 DUP4 ADD SWAP2 POP DUP4 PUSH1 0x1 DUP3 MUL DUP4 ADD GT ISZERO PUSH2 0xCC0 JUMPI PUSH2 0xCBF PUSH2 0xC6E JUMP JUMPDEST JUMPDEST SWAP3 POP SWAP3 SWAP1 POP JUMP JUMPDEST PUSH2 0xCD0 DUP2 PUSH2 0xB58 JUMP JUMPDEST DUP2 EQ PUSH2 0xCDA JUMPI PUSH0 PUSH0 REVERT JUMPDEST POP JUMP JUMPDEST PUSH0 DUP2 CALLDATALOAD SWAP1 POP PUSH2 0xCEB DUP2 PUSH2 0xCC7 JUMP JUMPDEST SWAP3 SWAP2 POP POP JUMP JUMPDEST PUSH0 PUSH0 PUSH0 PUSH1 0x40 DUP5 DUP7 SUB SLT ISZERO PUSH2 0xD08 JUMPI PUSH2 0xD07 PUSH2 0xC5E JUMP JUMPDEST JUMPDEST PUSH0 DUP5 ADD CALLDATALOAD PUSH8 0xFFFFFFFFFFFFFFFF DUP2 GT ISZERO PUSH2 0xD25 JUMPI PUSH2 0xD24 PUSH2 0xC62 JUMP JUMPDEST JUMPDEST PUSH2 0xD31 DUP7 DUP3 DUP8 ADD PUSH2 0xC72 JUMP JUMPDEST SWAP4 POP SWAP4 POP POP PUSH1 0x20 PUSH2 0xD44 DUP7 DUP3 DUP8 ADD PUSH2 0xCDD JUMP JUMPDEST SWAP2 POP POP SWAP3 POP SWAP3 POP SWAP3 JUMP JUMPDEST PUSH0 PUSH1 0xFF DUP3 AND SWAP1 POP SWAP2 SWAP1 POP JUMP JUMPDEST PUSH2 0xD63 DUP2 PUSH2 0xD4E JUMP JUMPDEST DUP2 EQ PUSH2 0xD6D JUMPI PUSH0 PUSH0 REVERT JUMPDEST POP JUMP JUMPDEST PUSH0 DUP2 CALLDATALOAD SWAP1 POP PUSH2 0xD7E DUP2 PUSH2 0xD5A JUMP JUMPDEST SWAP3 SWAP2 POP POP JUMP JUMPDEST PUSH0 PUSH1 0x20 DUP3 DUP5 SUB SLT ISZERO PUSH2 0xD99 JUMPI PUSH2 0xD98 PUSH2 0xC5E JUMP JUMPDEST JUMPDEST PUSH0 PUSH2 0xDA6 DUP5 DUP3 DUP6 ADD PUSH2 0xD70 JUMP JUMPDEST SWAP2 POP POP SWAP3 SWAP2 POP POP JUMP JUMPDEST PUSH0 PUSH1 0x20 DUP3 DUP5 SUB SLT ISZERO PUSH2 0xDC4 JUMPI PUSH2 0xDC3 PUSH2 0xC5E JUMP JUMPDEST JUMPDEST PUSH0 PUSH2 0xDD1 DUP5 DUP3 DUP6 ADD PUSH2 0xCDD JUMP JUMPDEST SWAP2 POP POP SWAP3 SWAP2 POP POP JUMP JUMPDEST PUSH0 PUSH20 0xFFFFFFFFFFFFFFFFFFFFFFFFFFFFFFFFFFFFFFFF DUP3 AND SWAP1 POP SWAP2 SWAP1 POP JUMP JUMPDEST PUSH0 PUSH2 0xE03 DUP3 PUSH2 0xDDA JUMP JUMPDEST SWAP1 POP SWAP2 SWAP1 POP JUMP JUMPDEST PUSH2 0xE13 DUP2 PUSH2 0xDF9 JUMP JUMPDEST DUP2 EQ PUSH2 0xE1D JUMPI PUSH0 PUSH0 REVERT JUMPDEST POP JUMP JUMPDEST PUSH0 DUP2 CALLDATALOAD SWAP1 POP PUSH2 0xE2E DUP2 PUSH2 0xE0A JUMP JUMPDEST SWAP3 SWAP2 POP POP JUMP JUMPDEST PUSH0 PUSH1 0x20 DUP3 DUP5 SUB SLT ISZERO PUSH2 0xE49 JUMPI PUSH2 0xE48 PUSH2 0xC5E JUMP JUMPDEST JUMPDEST PUSH0 PUSH2 0xE56 DUP5 DUP3 DUP6 ADD PUSH2 0xE20 JUMP JUMPDEST SWAP2 POP POP SWAP3 SWAP2 POP POP JUMP JUMPDEST PUSH2 0xE68 DUP2 PUSH2 0xB70 JUMP JUMPDEST DUP3 MSTORE POP POP JUMP JUMPDEST PUSH0 PUSH1 0x20 DUP3 ADD SWAP1 POP PUSH2 0xE81 PUSH0 DUP4 ADD DUP5 PUSH2 0xE5F JUMP JUMPDEST SWAP3 SWAP2 POP POP JUMP JUMPDEST PUSH32 0x4E487B7100000000000000000000000000000000000000000000000000000000 PUSH0 MSTORE PUSH1 0x22 PUSH1 0x4 MSTORE PUSH1 0x24 PUSH0 REVERT JUMPDEST PUSH0 PUSH1 0x2 DUP3 DIV SWAP1 POP PUSH1 0x1 DUP3 AND DUP1 PUSH2 0xECB JUMPI PUSH1 0x7F DUP3 AND SWAP2 POP JUMPDEST PUSH1 0x20 DUP3 LT DUP2 SUB PUSH2 0xEDE JUMPI PUSH2 0xEDD PUSH2 0xE87 JUMP JUMPDEST JUMPDEST POP SWAP2 SWAP1 POP JUMP JUMPDEST PUSH32 0x4E487B7100000000000000000000000000000000000000000000000000000000 PUSH0 MSTORE PUSH1 0x11 PUSH1 0x4 MSTORE PUSH1 0x24 PUSH0 REVERT JUMPDEST PUSH0 PUSH2 0xF1B DUP3 PUSH2 0xB58 JUMP JUMPDEST SWAP2 POP PUSH2 0xF26 DUP4 PUSH2 0xB58 JUMP JUMPDEST SWAP3 POP DUP3 DUP3 ADD SWAP1 POP DUP1 DUP3 GT ISZERO PUSH2 0xF3E JUMPI PUSH2 0xF3D PUSH2 0xEE4 JUMP JUMPDEST JUMPDEST SWAP3 SWAP2 POP POP JUMP JUMPDEST PUSH32 0x4E487B7100000000000000000000000000000000000000000000000000000000 PUSH0 MSTORE PUSH1 0x41 PUSH1 0x4 MSTORE PUSH1 0x24 PUSH0 REVERT JUMPDEST PUSH0 DUP2 SWAP1 POP DUP2 PUSH0 MSTORE PUSH1 0x20 PUSH0 KECCAK256 SWAP1 POP SWAP2 SWAP1 POP JUMP JUMPDEST PUSH0 PUSH1 0x20 PUSH1 0x1F DUP4 ADD DIV SWAP1 POP SWAP2 SWAP1 POP JUMP JUMPDEST PUSH0 DUP3 DUP3 SHL SWAP1 POP SWAP3 SWAP2 POP POP JUMP JUMPDEST PUSH0 PUSH1 0x8 DUP4 MUL PUSH2 0xFCD PUSH32 0xFFFFFFFFFFFFFFFFFFFFFFFFFFFFFFFFFFFFFFFFFFFFFFFFFFFFFFFFFFFFFFFF DUP3 PUSH2 0xF92 JUMP JUMPDEST PUSH2 0xFD7 DUP7 DUP4 PUSH2 0xF92 JUMP JUMPDEST SWAP6 POP DUP1 NOT DUP5 AND SWAP4 POP DUP1 DUP7 AND DUP5 OR SWAP3 POP POP POP SWAP4 SWAP3 POP POP POP JUMP JUMPDEST PUSH0 DUP2 SWAP1 POP SWAP2 SWAP1 POP JUMP JUMPDEST PUSH0 PUSH2 0x1012 PUSH2 0x100D PUSH2 0x1008 DUP5 PUSH2 0xB58 JUMP JUMPDEST PUSH2 0xFEF JUMP JUMPDEST PUSH2 0xB58 JUMP JUMPDEST SWAP1 POP SWAP2 SWAP1 POP JUMP JUMPDEST PUSH0 DUP2 SWAP1 POP SWAP2 SWAP1 POP JUMP JUMPDEST PUSH2 0x102B DUP4 PUSH2 0xFF8 JUMP JUMPDEST PUSH2 0x103F PUSH2 0x1037 DUP3 PUSH2 0x1019 JUMP JUMPDEST DUP5 DUP5 SLOAD PUSH2 0xF9E JUMP JUMPDEST DUP3 SSTORE POP POP POP POP JUMP JUMPDEST PUSH0 PUSH0 SWAP1 POP SWAP1 JUMP JUMPDEST PUSH2 0x1056 PUSH2 0x1047 JUMP JUMPDEST PUSH2 0x1061 DUP2 DUP5 DUP5 PUSH2 0x1022 JUMP JUMPDEST POP POP POP JUMP JUMPDEST JUMPDEST DUP2 DUP2 LT ISZERO PUSH2 0x1084 JUMPI PUSH2 0x1079 PUSH0 DUP3 PUSH2 0x104E JUMP JUMPDEST PUSH1 0x1 DUP2 ADD SWAP1 POP PUSH2 0x1067 JUMP JUMPDEST POP POP JUMP JUMPDEST PUSH1 0x1F DUP3 GT ISZERO PUSH2 0x10C9 JUMPI PUSH2 0x109A DUP2 PUSH2 0xF71 JUMP JUMPDEST PUSH2 0x10A3 DUP5 PUSH2 0xF83 JUMP JUMPDEST DUP2 ADD PUSH1 0x20 DUP6 LT ISZERO PUSH2 0x10B2 JUMPI DUP2 SWAP1 POP JUMPDEST PUSH2 0x10C6 PUSH2 0x10BE DUP6 PUSH2 0xF83 JUMP JUMPDEST DUP4 ADD DUP3 PUSH2 0x1066 JUMP JUMPDEST POP POP JUMPDEST POP POP POP JUMP JUMPDEST PUSH0 DUP3 DUP3 SHR SWAP1 POP SWAP3 SWAP2 POP POP JUMP JUMPDEST PUSH0 PUSH2 0x10E9 PUSH0 NOT DUP5 PUSH1 0x8 MUL PUSH2 0x10CE JUMP JUMPDEST NOT DUP1 DUP4 AND SWAP2 POP POP SWAP3 SWAP2 POP POP JUMP JUMPDEST PUSH0 PUSH2 0x1101 DUP4 DUP4 PUSH2 0x10DA JUMP JUMPDEST SWAP2 POP DUP3 PUSH1 0x2 MUL DUP3 OR SWAP1 POP SWAP3 SWAP2 POP POP JUMP JUMPDEST PUSH2 0x111A DUP3 PUSH2 0xAE8 JUMP JUMPDEST PUSH8 0xFFFFFFFFFFFFFFFF DUP2 GT ISZERO PUSH2 0x1133 JUMPI PUSH2 0x1132 PUSH2 0xF44 JUMP JUMPDEST JUMPDEST PUSH2 0x113D DUP3 SLOAD PUSH2 0xEB4 JUMP JUMPDEST PUSH2 0x1148 DUP3 DUP3 DUP6 PUSH2 0x1088 JUMP JUMPDEST PUSH0 PUSH1 0x20 SWAP1 POP PUSH1 0x1F DUP4 GT PUSH1 0x1 DUP2 EQ PUSH2 0x1179 JUMPI PUSH0 DUP5 ISZERO PUSH2 0x1167 JUMPI DUP3 DUP8 ADD MLOAD SWAP1 POP JUMPDEST PUSH2 0x1171 DUP6 DUP3 PUSH2 0x10F6 JUMP JUMPDEST DUP7 SSTORE POP PUSH2 0x11D8 JUMP JUMPDEST PUSH1 0x1F NOT DUP5 AND PUSH2 0x1187 DUP7 PUSH2 0xF71 JUMP JUMPDEST PUSH0 JUMPDEST DUP3 DUP2 LT ISZERO PUSH2 0x11AE JUMPI DUP5 DUP10 ADD MLOAD DUP3 SSTORE PUSH1 0x1 DUP3 ADD SWAP2 POP PUSH1 0x20 DUP6 ADD SWAP5 POP PUSH1 0x20 DUP2 ADD SWAP1 POP PUSH2 0x1189 JUMP JUMPDEST DUP7 DUP4 LT ISZERO PUSH2 0x11CB JUMPI DUP5 DUP10 ADD MLOAD PUSH2 0x11C7 PUSH1 0x1F DUP10 AND DUP3 PUSH2 0x10DA JUMP JUMPDEST DUP4 SSTORE POP JUMPDEST PUSH1 0x1 PUSH1 0x2 DUP9 MUL ADD DUP9 SSTORE POP POP POP JUMPDEST POP POP POP POP POP POP JUMP JUMPDEST PUSH0 DUP3 DUP3 MSTORE PUSH1 0x20 DUP3 ADD SWAP1 POP SWAP3 SWAP2 POP POP JUMP JUMPDEST PUSH32 0x5468652070726F706F73616C206973206E6F7420616374697665000000000000 PUSH0 DUP3 ADD MSTORE POP JUMP JUMPDEST PUSH0 PUSH2 0x1224 PUSH1 0x1A DUP4 PUSH2 0x11E0 JUMP JUMPDEST SWAP2 POP PUSH2 0x122F DUP3 PUSH2 0x11F0 JUMP JUMPDEST PUSH1 0x20 DUP3 ADD SWAP1 POP SWAP2 SWAP1 POP JUMP JUMPDEST PUSH0 PUSH1 0x20 DUP3 ADD SWAP1 POP DUP2 DUP2 SUB PUSH0 DUP4 ADD MSTORE PUSH2 0x1251 DUP2 PUSH2 0x1218 JUMP JUMPDEST SWAP1 POP SWAP2 SWAP1 POP JUMP JUMPDEST PUSH0 PUSH2 0x1262 DUP3 PUSH2 0xB58 JUMP JUMPDEST SWAP2 POP PUSH2 0x126D DUP4 PUSH2 0xB58 JUMP JUMPDEST SWAP3 POP DUP3 DUP3 SUB SWAP1 POP DUP2 DUP2 GT ISZERO PUSH2 0x1285 JUMPI PUSH2 0x1284 PUSH2 0xEE4 JUMP JUMPDEST JUMPDEST SWAP3 SWAP2 POP POP JUMP JUMPDEST PUSH32 0x4E487B7100000000000000000000000000000000000000000000000000000000 PUSH0 MSTORE PUSH1 0x32 PUSH1 0x4 MSTORE PUSH1 0x24 PUSH0 REVERT JUMPDEST PUSH32 0x4E487B7100000000000000000000000000000000000000000000000000000000 PUSH0 MSTORE PUSH1 0x12 PUSH1 0x4 MSTORE PUSH1 0x24 PUSH0 REVERT JUMPDEST PUSH0 PUSH2 0x12EF DUP3 PUSH2 0xB58 JUMP JUMPDEST SWAP2 POP PUSH2 0x12FA DUP4 PUSH2 0xB58 JUMP JUMPDEST SWAP3 POP DUP3 PUSH2 0x130A JUMPI PUSH2 0x1309 PUSH2 0x12B8 JUMP JUMPDEST JUMPDEST DUP3 DUP3 MOD SWAP1 POP SWAP3 SWAP2 POP POP JUMP JUMPDEST PUSH0 PUSH2 0x131F DUP3 PUSH2 0xB58 JUMP JUMPDEST SWAP2 POP PUSH2 0x132A DUP4 PUSH2 0xB58 JUMP JUMPDEST SWAP3 POP DUP3 PUSH2 0x133A JUMPI PUSH2 0x1339 PUSH2 0x12B8 JUMP JUMPDEST JUMPDEST DUP3 DUP3 DIV SWAP1 POP SWAP3 SWAP2 POP POP JUMP INVALID LOG2 PUSH5 0x6970667358 0x22 SLT KECCAK256 PUSH6 0x6F896A864AD9 0x26 TLOAD SWAP16 0xCC 0x4B OR 0xB7 0x25 PUSH6 0x285FCA9A9DF1 STOP LT PUSH11 0x78F5FECF2FD27764736F6C PUSH4 0x4300081E STOP CALLER "
				},
				"gasEstimates": {
					"creation": {
						"codeDepositCost": "997400",
						"executionCost": "73871",
						"totalCost": "1071271"
					},
					"external": {
						"create(string,uint256)": "infinite",
						"getCurrentProposal()": "infinite",
						"getProposal(uint256)": "infinite",
						"isVoted(address)": "infinite",
						"teminateProposal()": "33234",
						"vote(uint8)": "infinite"
					},
					"internal": {
						"calculateCurrentState()": "infinite"
					}
				},
				"methodIdentifiers": {
					"create(string,uint256)": "46f81a87",
					"getCurrentProposal()": "41ec6870",
					"getProposal(uint256)": "c7f758a8",
					"isVoted(address)": "cbff75cb",
					"teminateProposal()": "89190393",
					"vote(uint8)": "b3f98adc"
				}
			},
			"storageLayout": {
				"storage": [
					{
						"astId": 3,
						"contract": "contracts/4_ProposalContract.sol:ProposalContract",
						"label": "owner",
						"offset": 0,
						"slot": "0",
						"type": "t_address"
					},
					{
						"astId": 5,
						"contract": "contracts/4_ProposalContract.sol:ProposalContract",
						"label": "counter",
						"offset": 0,
						"slot": "1",
						"type": "t_uint256"
					},
					{
						"astId": 8,
						"contract": "contracts/4_ProposalContract.sol:ProposalContract",
						"label": "voted_addresses",
						"offset": 0,
						"slot": "2",
						"type": "t_array(t_address)dyn_storage"
					},
					{
						"astId": 57,
						"contract": "contracts/4_ProposalContract.sol:ProposalContract",
						"label": "proposal_history",
						"offset": 0,
						"slot": "3",
						"type": "t_mapping(t_uint256,t_struct(Proposal)25_storage)"
					}
				],
				"types": {
					"t_address": {
						"encoding": "inplace",
						"label": "address",
						"numberOfBytes": "20"
					},
					"t_array(t_address)dyn_storage": {
						"base": "t_address",
						"encoding": "dynamic_array",
						"label": "address[]",
						"numberOfBytes": "32"
					},
					"t_bool": {
						"encoding": "inplace",
						"label": "bool",
						"numberOfBytes": "1"
					},
					"t_mapping(t_uint256,t_struct(Proposal)25_storage)": {
						"encoding": "mapping",
						"key": "t_uint256",
						"label": "mapping(uint256 => struct ProposalContract.Proposal)",
						"numberOfBytes": "32",
						"value": "t_struct(Proposal)25_storage"
					},
					"t_string_storage": {
						"encoding": "bytes",
						"label": "string",
						"numberOfBytes": "32"
					},
					"t_struct(Proposal)25_storage": {
						"encoding": "inplace",
						"label": "struct ProposalContract.Proposal",
						"members": [
							{
								"astId": 10,
								"contract": "contracts/4_ProposalContract.sol:ProposalContract",
								"label": "title",
								"offset": 0,
								"slot": "0",
								"type": "t_string_storage"
							},
							{
								"astId": 12,
								"contract": "contracts/4_ProposalContract.sol:ProposalContract",
								"label": "description",
								"offset": 0,
								"slot": "1",
								"type": "t_string_storage"
							},
							{
								"astId": 14,
								"contract": "contracts/4_ProposalContract.sol:ProposalContract",
								"label": "approve",
								"offset": 0,
								"slot": "2",
								"type": "t_uint256"
							},
							{
								"astId": 16,
								"contract": "contracts/4_ProposalContract.sol:ProposalContract",
								"label": "reject",
								"offset": 0,
								"slot": "3",
								"type": "t_uint256"
							},
							{
								"astId": 18,
								"contract": "contracts/4_ProposalContract.sol:ProposalContract",
								"label": "pass",
								"offset": 0,
								"slot": "4",
								"type": "t_uint256"
							},
							{
								"astId": 20,
								"contract": "contracts/4_ProposalContract.sol:ProposalContract",
								"label": "total_vote_to_end",
								"offset": 0,
								"slot": "5",
								"type": "t_uint256"
							},
							{
								"astId": 22,
								"contract": "contracts/4_ProposalContract.sol:ProposalContract",
								"label": "current_state",
								"offset": 0,
								"slot": "6",
								"type": "t_bool"
							},
							{
								"astId": 24,
								"contract": "contracts/4_ProposalContract.sol:ProposalContract",
								"label": "is_active",
								"offset": 1,
								"slot": "6",
								"type": "t_bool"
							}
						],
						"numberOfBytes": "224"
					},
					"t_uint256": {
						"encoding": "inplace",
						"label": "uint256",
						"numberOfBytes": "32"
					}
				}
			},
			"userdoc": {
				"kind": "user",
				"methods": {},
				"version": 1
			}
		}
	}
}