{
	"contracts/4_ProposalContract.sol": {
		"ProposalContract": {
			"abi": [
				{
					"inputs": [],
					"stateMutability": "nonpayable",
					"type": "constructor"
				},
				{
					"inputs": [
						{
							"internalType": "string",
							"name": "_title",
							"type": "string"
						},
						{
							"internalType": "string",
							"name": "_description",
							"type": "string"
						},
						{
							"internalType": "uint256",
							"name": "_total_vote_to_end",
							"type": "uint256"
						}
					],
					"name": "create",
					"outputs": [],
					"stateMutability": "nonpayable",
					"type": "function"
				},
				{
					"inputs": [],
					"name": "owner",
					"outputs": [
						{
							"internalType": "address",
							"name": "",
							"type": "address"
						}
					],
					"stateMutability": "view",
					"type": "function"
				},
				{
					"inputs": [
						{
							"internalType": "uint256",
							"name": "",
							"type": "uint256"
						}
					],
					"name": "proposal_history",
					"outputs": [
						{
							"internalType": "string",
							"name": "title",
							"type": "string"
						},
						{
							"internalType": "string",
							"name": "description",
							"type": "string"
						},
						{
							"internalType": "uint256",
							"name": "approve",
							"type": "uint256"
						},
						{
							"internalType": "uint256",
							"name": "reject",
							"type": "uint256"
						},
						{
							"internalType": "uint256",
							"name": "pass",
							"type": "uint256"
						},
						{
							"internalType": "uint256",
							"name": "total_vote_to_end",
							"type": "uint256"
						},
						{
							"internalType": "bool",
							"name": "current_state",
							"type": "bool"
						},
						{
							"internalType": "bool",
							"name": "is_active",
							"type": "bool"
						}
					],
					"stateMutability": "view",
					"type": "function"
				},
				{
					"inputs": [
						{
							"internalType": "uint8",
							"name": "choice",
							"type": "uint8"
						}
					],
					"name": "vote",
					"outputs": [],
					"stateMutability": "nonpayable",
					"type": "function"
				}
			],
			"devdoc": {
				"kind": "dev",
				"methods": {},
				"version": 1
			},
			"evm": {
				"assembly": "    /* \"contracts/4_ProposalContract.sol\":70:2947  contract ProposalContract {... */\n  mstore(0x40, 0x80)\n    /* \"contracts/4_ProposalContract.sol\":501:550  constructor() {... */\n  callvalue\n  dup1\n  iszero\n  tag_1\n  jumpi\n  revert(0x00, 0x00)\ntag_1:\n  pop\n    /* \"contracts/4_ProposalContract.sol\":533:543  msg.sender */\n  caller\n    /* \"contracts/4_ProposalContract.sol\":525:530  owner */\n  0x00\n  0x00\n    /* \"contracts/4_ProposalContract.sol\":525:543  owner = msg.sender */\n  0x0100\n  exp\n  dup2\n  sload\n  dup2\n  0xffffffffffffffffffffffffffffffffffffffff\n  mul\n  not\n  and\n  swap1\n  dup4\n  0xffffffffffffffffffffffffffffffffffffffff\n  and\n  mul\n  or\n  swap1\n  sstore\n  pop\n    /* \"contracts/4_ProposalContract.sol\":70:2947  contract ProposalContract {... */\n  dataSize(sub_0)\n  dup1\n  dataOffset(sub_0)\n  0x00\n  codecopy\n  0x00\n  return\nstop\n\nsub_0: assembly {\n        /* \"contracts/4_ProposalContract.sol\":70:2947  contract ProposalContract {... */\n      mstore(0x40, 0x80)\n      callvalue\n      dup1\n      iszero\n      tag_1\n      jumpi\n      revert(0x00, 0x00)\n    tag_1:\n      pop\n      jumpi(tag_2, lt(calldatasize, 0x04))\n      shr(0xe0, calldataload(0x00))\n      dup1\n      0x350f0d8c\n      eq\n      tag_3\n      jumpi\n      dup1\n      0x3ca6d100\n      eq\n      tag_4\n      jumpi\n      dup1\n      0x8da5cb5b\n      eq\n      tag_5\n      jumpi\n      dup1\n      0xb3f98adc\n      eq\n      tag_6\n      jumpi\n    tag_2:\n      revert(0x00, 0x00)\n        /* \"contracts/4_ProposalContract.sol\":158:210  mapping(uint256 => Proposal) public proposal_history */\n    tag_3:\n      tag_7\n      0x04\n      dup1\n      calldatasize\n      sub\n      dup2\n      add\n      swap1\n      tag_8\n      swap2\n      swap1\n      tag_9\n      jump\t// in\n    tag_8:\n      tag_10\n      jump\t// in\n    tag_7:\n      mload(0x40)\n      tag_11\n      swap9\n      swap8\n      swap7\n      swap6\n      swap5\n      swap4\n      swap3\n      swap2\n      swap1\n      tag_12\n      jump\t// in\n    tag_11:\n      mload(0x40)\n      dup1\n      swap2\n      sub\n      swap1\n      return\n        /* \"contracts/4_ProposalContract.sol\":934:1457  function create(string calldata _title, string calldata _description, uint256 _total_vote_to_end) external onlyOwner {... */\n    tag_4:\n      tag_13\n      0x04\n      dup1\n      calldatasize\n      sub\n      dup2\n      add\n      swap1\n      tag_14\n      swap2\n      swap1\n      tag_15\n      jump\t// in\n    tag_14:\n      tag_16\n      jump\t// in\n    tag_13:\n      stop\n        /* \"contracts/4_ProposalContract.sol\":103:123  address public owner */\n    tag_5:\n      tag_17\n      tag_18\n      jump\t// in\n    tag_17:\n      mload(0x40)\n      tag_19\n      swap2\n      swap1\n      tag_20\n      jump\t// in\n    tag_19:\n      mload(0x40)\n      dup1\n      swap2\n      sub\n      swap1\n      return\n        /* \"contracts/4_ProposalContract.sol\":1463:2173  function vote(uint8 choice) external active newVoter(msg.sender) {... */\n    tag_6:\n      tag_21\n      0x04\n      dup1\n      calldatasize\n      sub\n      dup2\n      add\n      swap1\n      tag_22\n      swap2\n      swap1\n      tag_23\n      jump\t// in\n    tag_22:\n      tag_24\n      jump\t// in\n    tag_21:\n      stop\n        /* \"contracts/4_ProposalContract.sol\":158:210  mapping(uint256 => Proposal) public proposal_history */\n    tag_10:\n      mstore(0x20, 0x02)\n      dup1\n      0x00\n      mstore\n      keccak256(0x00, 0x40)\n      0x00\n      swap2\n      pop\n      swap1\n      pop\n      dup1\n      0x00\n      add\n      dup1\n      sload\n      tag_25\n      swap1\n      tag_26\n      jump\t// in\n    tag_25:\n      dup1\n      0x1f\n      add\n      0x20\n      dup1\n      swap2\n      div\n      mul\n      0x20\n      add\n      mload(0x40)\n      swap1\n      dup2\n      add\n      0x40\n      mstore\n      dup1\n      swap3\n      swap2\n      swap1\n      dup2\n      dup2\n      mstore\n      0x20\n      add\n      dup3\n      dup1\n      sload\n      tag_27\n      swap1\n      tag_26\n      jump\t// in\n    tag_27:\n      dup1\n      iszero\n      tag_28\n      jumpi\n      dup1\n      0x1f\n      lt\n      tag_29\n      jumpi\n      0x0100\n      dup1\n      dup4\n      sload\n      div\n      mul\n      dup4\n      mstore\n      swap2\n      0x20\n      add\n      swap2\n      jump(tag_28)\n    tag_29:\n      dup3\n      add\n      swap2\n      swap1\n      0x00\n      mstore\n      keccak256(0x00, 0x20)\n      swap1\n    tag_30:\n      dup2\n      sload\n      dup2\n      mstore\n      swap1\n      0x01\n      add\n      swap1\n      0x20\n      add\n      dup1\n      dup4\n      gt\n      tag_30\n      jumpi\n      dup3\n      swap1\n      sub\n      0x1f\n      and\n      dup3\n      add\n      swap2\n    tag_28:\n      pop\n      pop\n      pop\n      pop\n      pop\n      swap1\n      dup1\n      0x01\n      add\n      dup1\n      sload\n      tag_31\n      swap1\n      tag_26\n      jump\t// in\n    tag_31:\n      dup1\n      0x1f\n      add\n      0x20\n      dup1\n      swap2\n      div\n      mul\n      0x20\n      add\n      mload(0x40)\n      swap1\n      dup2\n      add\n      0x40\n      mstore\n      dup1\n      swap3\n      swap2\n      swap1\n      dup2\n      dup2\n      mstore\n      0x20\n      add\n      dup3\n      dup1\n      sload\n      tag_32\n      swap1\n      tag_26\n      jump\t// in\n    tag_32:\n      dup1\n      iszero\n      tag_33\n      jumpi\n      dup1\n      0x1f\n      lt\n      tag_34\n      jumpi\n      0x0100\n      dup1\n      dup4\n      sload\n      div\n      mul\n      dup4\n      mstore\n      swap2\n      0x20\n      add\n      swap2\n      jump(tag_33)\n    tag_34:\n      dup3\n      add\n      swap2\n      swap1\n      0x00\n      mstore\n      keccak256(0x00, 0x20)\n      swap1\n    tag_35:\n      dup2\n      sload\n      dup2\n      mstore\n      swap1\n      0x01\n      add\n      swap1\n      0x20\n      add\n      dup1\n      dup4\n      gt\n      tag_35\n      jumpi\n      dup3\n      swap1\n      sub\n      0x1f\n      and\n      dup3\n      add\n      swap2\n    tag_33:\n      pop\n      pop\n      pop\n      pop\n      pop\n      swap1\n      dup1\n      0x02\n      add\n      sload\n      swap1\n      dup1\n      0x03\n      add\n      sload\n      swap1\n      dup1\n      0x04\n      add\n      sload\n      swap1\n      dup1\n      0x05\n      add\n      sload\n      swap1\n      dup1\n      0x06\n      add\n      0x00\n      swap1\n      sload\n      swap1\n      0x0100\n      exp\n      swap1\n      div\n      0xff\n      and\n      swap1\n      dup1\n      0x06\n      add\n      0x01\n      swap1\n      sload\n      swap1\n      0x0100\n      exp\n      swap1\n      div\n      0xff\n      and\n      swap1\n      pop\n      dup9\n      jump\t// out\n        /* \"contracts/4_ProposalContract.sol\":934:1457  function create(string calldata _title, string calldata _description, uint256 _total_vote_to_end) external onlyOwner {... */\n    tag_16:\n        /* \"contracts/4_ProposalContract.sol\":609:614  owner */\n      0x00\n      0x00\n      swap1\n      sload\n      swap1\n      0x0100\n      exp\n      swap1\n      div\n      0xffffffffffffffffffffffffffffffffffffffff\n      and\n        /* \"contracts/4_ProposalContract.sol\":595:614  msg.sender == owner */\n      0xffffffffffffffffffffffffffffffffffffffff\n      and\n        /* \"contracts/4_ProposalContract.sol\":595:605  msg.sender */\n      caller\n        /* \"contracts/4_ProposalContract.sol\":595:614  msg.sender == owner */\n      0xffffffffffffffffffffffffffffffffffffffff\n      and\n      eq\n        /* \"contracts/4_ProposalContract.sol\":587:649  require(msg.sender == owner, \"Only owner can create proposal\") */\n      tag_37\n      jumpi\n      mload(0x40)\n      0x08c379a000000000000000000000000000000000000000000000000000000000\n      dup2\n      mstore\n      0x04\n      add\n      tag_38\n      swap1\n      tag_39\n      jump\t// in\n    tag_38:\n      mload(0x40)\n      dup1\n      swap2\n      sub\n      swap1\n      revert\n    tag_37:\n        /* \"contracts/4_ProposalContract.sol\":1072:1073  1 */\n      0x01\n        /* \"contracts/4_ProposalContract.sol\":1061:1068  counter */\n      dup1\n      0x00\n        /* \"contracts/4_ProposalContract.sol\":1061:1073  counter += 1 */\n      dup3\n      dup3\n      sload\n      tag_41\n      swap2\n      swap1\n      tag_42\n      jump\t// in\n    tag_41:\n      swap3\n      pop\n      pop\n      dup2\n      swap1\n      sstore\n      pop\n        /* \"contracts/4_ProposalContract.sol\":1111:1379  Proposal({... */\n      mload(0x40)\n      dup1\n      0x0100\n      add\n      0x40\n      mstore\n      dup1\n        /* \"contracts/4_ProposalContract.sol\":1141:1147  _title */\n      dup7\n      dup7\n        /* \"contracts/4_ProposalContract.sol\":1111:1379  Proposal({... */\n      dup1\n      dup1\n      0x1f\n      add\n      0x20\n      dup1\n      swap2\n      div\n      mul\n      0x20\n      add\n      mload(0x40)\n      swap1\n      dup2\n      add\n      0x40\n      mstore\n      dup1\n      swap4\n      swap3\n      swap2\n      swap1\n      dup2\n      dup2\n      mstore\n      0x20\n      add\n      dup4\n      dup4\n      dup1\n      dup3\n      dup5\n      calldatacopy\n      0x00\n      dup2\n      dup5\n      add\n      mstore\n      not(0x1f)\n      0x1f\n      dup3\n      add\n      and\n      swap1\n      pop\n      dup1\n      dup4\n      add\n      swap3\n      pop\n      pop\n      pop\n      pop\n      pop\n      pop\n      pop\n      dup2\n      mstore\n      0x20\n      add\n        /* \"contracts/4_ProposalContract.sol\":1174:1186  _description */\n      dup5\n      dup5\n        /* \"contracts/4_ProposalContract.sol\":1111:1379  Proposal({... */\n      dup1\n      dup1\n      0x1f\n      add\n      0x20\n      dup1\n      swap2\n      div\n      mul\n      0x20\n      add\n      mload(0x40)\n      swap1\n      dup2\n      add\n      0x40\n      mstore\n      dup1\n      swap4\n      swap3\n      swap2\n      swap1\n      dup2\n      dup2\n      mstore\n      0x20\n      add\n      dup4\n      dup4\n      dup1\n      dup3\n      dup5\n      calldatacopy\n      0x00\n      dup2\n      dup5\n      add\n      mstore\n      not(0x1f)\n      0x1f\n      dup3\n      add\n      and\n      swap1\n      pop\n      dup1\n      dup4\n      add\n      swap3\n      pop\n      pop\n      pop\n      pop\n      pop\n      pop\n      pop\n      dup2\n      mstore\n      0x20\n      add\n        /* \"contracts/4_ProposalContract.sol\":1209:1210  0 */\n      0x00\n        /* \"contracts/4_ProposalContract.sol\":1111:1379  Proposal({... */\n      dup2\n      mstore\n      0x20\n      add\n        /* \"contracts/4_ProposalContract.sol\":1232:1233  0 */\n      0x00\n        /* \"contracts/4_ProposalContract.sol\":1111:1379  Proposal({... */\n      dup2\n      mstore\n      0x20\n      add\n        /* \"contracts/4_ProposalContract.sol\":1253:1254  0 */\n      0x00\n        /* \"contracts/4_ProposalContract.sol\":1111:1379  Proposal({... */\n      dup2\n      mstore\n      0x20\n      add\n        /* \"contracts/4_ProposalContract.sol\":1287:1305  _total_vote_to_end */\n      dup3\n        /* \"contracts/4_ProposalContract.sol\":1111:1379  Proposal({... */\n      dup2\n      mstore\n      0x20\n      add\n        /* \"contracts/4_ProposalContract.sol\":1334:1339  false */\n      0x00\n        /* \"contracts/4_ProposalContract.sol\":1111:1379  Proposal({... */\n      iszero\n      iszero\n      dup2\n      mstore\n      0x20\n      add\n        /* \"contracts/4_ProposalContract.sol\":1364:1368  true */\n      0x01\n        /* \"contracts/4_ProposalContract.sol\":1111:1379  Proposal({... */\n      iszero\n      iszero\n      dup2\n      mstore\n      pop\n        /* \"contracts/4_ProposalContract.sol\":1083:1099  proposal_history */\n      0x02\n        /* \"contracts/4_ProposalContract.sol\":1083:1108  proposal_history[counter] */\n      0x00\n        /* \"contracts/4_ProposalContract.sol\":1100:1107  counter */\n      sload(0x01)\n        /* \"contracts/4_ProposalContract.sol\":1083:1108  proposal_history[counter] */\n      dup2\n      mstore\n      0x20\n      add\n      swap1\n      dup2\n      mstore\n      0x20\n      add\n      0x00\n      keccak256\n        /* \"contracts/4_ProposalContract.sol\":1083:1379  proposal_history[counter] = Proposal({... */\n      0x00\n      dup3\n      add\n      mload\n      dup2\n      0x00\n      add\n      swap1\n      dup2\n      tag_43\n      swap2\n      swap1\n      tag_44\n      jump\t// in\n    tag_43:\n      pop\n      0x20\n      dup3\n      add\n      mload\n      dup2\n      0x01\n      add\n      swap1\n      dup2\n      tag_45\n      swap2\n      swap1\n      tag_44\n      jump\t// in\n    tag_45:\n      pop\n      0x40\n      dup3\n      add\n      mload\n      dup2\n      0x02\n      add\n      sstore\n      0x60\n      dup3\n      add\n      mload\n      dup2\n      0x03\n      add\n      sstore\n      0x80\n      dup3\n      add\n      mload\n      dup2\n      0x04\n      add\n      sstore\n      0xa0\n      dup3\n      add\n      mload\n      dup2\n      0x05\n      add\n      sstore\n      0xc0\n      dup3\n      add\n      mload\n      dup2\n      0x06\n      add\n      exp(0x0100, 0x00)\n      dup2\n      sload\n      dup2\n      0xff\n      mul\n      not\n      and\n      swap1\n      dup4\n      iszero\n      iszero\n      mul\n      or\n      swap1\n      sstore\n      pop\n      0xe0\n      dup3\n      add\n      mload\n      dup2\n      0x06\n      add\n      exp(0x0100, 0x01)\n      dup2\n      sload\n      dup2\n      0xff\n      mul\n      not\n      and\n      swap1\n      dup4\n      iszero\n      iszero\n      mul\n      or\n      swap1\n      sstore\n      pop\n      swap1\n      pop\n      pop\n        /* \"contracts/4_ProposalContract.sol\":1438:1450  resetVotes() */\n      tag_46\n        /* \"contracts/4_ProposalContract.sol\":1438:1448  resetVotes */\n      tag_47\n        /* \"contracts/4_ProposalContract.sol\":1438:1450  resetVotes() */\n      jump\t// in\n    tag_46:\n        /* \"contracts/4_ProposalContract.sol\":934:1457  function create(string calldata _title, string calldata _description, uint256 _total_vote_to_end) external onlyOwner {... */\n      pop\n      pop\n      pop\n      pop\n      pop\n      jump\t// out\n        /* \"contracts/4_ProposalContract.sol\":103:123  address public owner */\n    tag_18:\n      0x00\n      0x00\n      swap1\n      sload\n      swap1\n      0x0100\n      exp\n      swap1\n      div\n      0xffffffffffffffffffffffffffffffffffffffff\n      and\n      dup2\n      jump\t// out\n        /* \"contracts/4_ProposalContract.sol\":1463:2173  function vote(uint8 choice) external active newVoter(msg.sender) {... */\n    tag_24:\n        /* \"contracts/4_ProposalContract.sol\":748:752  true */\n      0x01\n        /* \"contracts/4_ProposalContract.sol\":709:752  proposal_history[counter].is_active == true */\n      iszero\n      iszero\n        /* \"contracts/4_ProposalContract.sol\":709:725  proposal_history */\n      0x02\n        /* \"contracts/4_ProposalContract.sol\":709:734  proposal_history[counter] */\n      0x00\n        /* \"contracts/4_ProposalContract.sol\":726:733  counter */\n      sload(0x01)\n        /* \"contracts/4_ProposalContract.sol\":709:734  proposal_history[counter] */\n      dup2\n      mstore\n      0x20\n      add\n      swap1\n      dup2\n      mstore\n      0x20\n      add\n      0x00\n      keccak256\n        /* \"contracts/4_ProposalContract.sol\":709:744  proposal_history[counter].is_active */\n      0x06\n      add\n      0x01\n      swap1\n      sload\n      swap1\n      0x0100\n      exp\n      swap1\n      div\n      0xff\n      and\n        /* \"contracts/4_ProposalContract.sol\":709:752  proposal_history[counter].is_active == true */\n      iszero\n      iszero\n      eq\n        /* \"contracts/4_ProposalContract.sol\":701:783  require(proposal_history[counter].is_active == true, \"The proposal is not active\") */\n      tag_49\n      jumpi\n      mload(0x40)\n      0x08c379a000000000000000000000000000000000000000000000000000000000\n      dup2\n      mstore\n      0x04\n      add\n      tag_50\n      swap1\n      tag_51\n      jump\t// in\n    tag_50:\n      mload(0x40)\n      dup1\n      swap2\n      sub\n      swap1\n      revert\n    tag_49:\n        /* \"contracts/4_ProposalContract.sol\":1516:1526  msg.sender */\n      caller\n        /* \"contracts/4_ProposalContract.sol\":862:870  hasVoted */\n      0x03\n        /* \"contracts/4_ProposalContract.sol\":862:880  hasVoted[_address] */\n      0x00\n        /* \"contracts/4_ProposalContract.sol\":871:879  _address */\n      dup3\n        /* \"contracts/4_ProposalContract.sol\":862:880  hasVoted[_address] */\n      0xffffffffffffffffffffffffffffffffffffffff\n      and\n      0xffffffffffffffffffffffffffffffffffffffff\n      and\n      dup2\n      mstore\n      0x20\n      add\n      swap1\n      dup2\n      mstore\n      0x20\n      add\n      0x00\n      keccak256\n      0x00\n      swap1\n      sload\n      swap1\n      0x0100\n      exp\n      swap1\n      div\n      0xff\n      and\n        /* \"contracts/4_ProposalContract.sol\":861:880  !hasVoted[_address] */\n      iszero\n        /* \"contracts/4_ProposalContract.sol\":853:910  require(!hasVoted[_address], \"Address has already voted\") */\n      tag_53\n      jumpi\n      mload(0x40)\n      0x08c379a000000000000000000000000000000000000000000000000000000000\n      dup2\n      mstore\n      0x04\n      add\n      tag_54\n      swap1\n      tag_55\n      jump\t// in\n    tag_54:\n      mload(0x40)\n      dup1\n      swap2\n      sub\n      swap1\n      revert\n    tag_53:\n        /* \"contracts/4_ProposalContract.sol\":1538:1563  Proposal storage proposal */\n      0x00\n        /* \"contracts/4_ProposalContract.sol\":1566:1582  proposal_history */\n      0x02\n        /* \"contracts/4_ProposalContract.sol\":1566:1591  proposal_history[counter] */\n      0x00\n        /* \"contracts/4_ProposalContract.sol\":1583:1590  counter */\n      sload(0x01)\n        /* \"contracts/4_ProposalContract.sol\":1566:1591  proposal_history[counter] */\n      dup2\n      mstore\n      0x20\n      add\n      swap1\n      dup2\n      mstore\n      0x20\n      add\n      0x00\n      keccak256\n        /* \"contracts/4_ProposalContract.sol\":1538:1591  Proposal storage proposal = proposal_history[counter] */\n      swap1\n      pop\n        /* \"contracts/4_ProposalContract.sol\":1620:1621  0 */\n      0x00\n        /* \"contracts/4_ProposalContract.sol\":1610:1616  choice */\n      dup4\n        /* \"contracts/4_ProposalContract.sol\":1610:1621  choice == 0 */\n      0xff\n      and\n      eq\n        /* \"contracts/4_ProposalContract.sol\":1610:1636  choice == 0 || choice == 1 */\n      dup1\n      tag_57\n      jumpi\n      pop\n        /* \"contracts/4_ProposalContract.sol\":1635:1636  1 */\n      0x01\n        /* \"contracts/4_ProposalContract.sol\":1625:1631  choice */\n      dup4\n        /* \"contracts/4_ProposalContract.sol\":1625:1636  choice == 1 */\n      0xff\n      and\n      eq\n        /* \"contracts/4_ProposalContract.sol\":1610:1636  choice == 0 || choice == 1 */\n    tag_57:\n        /* \"contracts/4_ProposalContract.sol\":1610:1651  choice == 0 || choice == 1 || choice == 2 */\n      dup1\n      tag_58\n      jumpi\n      pop\n        /* \"contracts/4_ProposalContract.sol\":1650:1651  2 */\n      0x02\n        /* \"contracts/4_ProposalContract.sol\":1640:1646  choice */\n      dup4\n        /* \"contracts/4_ProposalContract.sol\":1640:1651  choice == 2 */\n      0xff\n      and\n      eq\n        /* \"contracts/4_ProposalContract.sol\":1610:1651  choice == 0 || choice == 1 || choice == 2 */\n    tag_58:\n        /* \"contracts/4_ProposalContract.sol\":1602:1675  require(choice == 0 || choice == 1 || choice == 2, \"Invalid vote choice\") */\n      tag_59\n      jumpi\n      mload(0x40)\n      0x08c379a000000000000000000000000000000000000000000000000000000000\n      dup2\n      mstore\n      0x04\n      add\n      tag_60\n      swap1\n      tag_61\n      jump\t// in\n    tag_60:\n      mload(0x40)\n      dup1\n      swap2\n      sub\n      swap1\n      revert\n    tag_59:\n        /* \"contracts/4_ProposalContract.sol\":1700:1701  1 */\n      0x01\n        /* \"contracts/4_ProposalContract.sol\":1690:1696  choice */\n      dup4\n        /* \"contracts/4_ProposalContract.sol\":1690:1701  choice == 1 */\n      0xff\n      and\n      sub\n        /* \"contracts/4_ProposalContract.sol\":1686:1883  if (choice == 1) {... */\n      tag_62\n      jumpi\n        /* \"contracts/4_ProposalContract.sol\":1737:1738  1 */\n      0x01\n        /* \"contracts/4_ProposalContract.sol\":1717:1725  proposal */\n      dup2\n        /* \"contracts/4_ProposalContract.sol\":1717:1733  proposal.approve */\n      0x02\n      add\n      0x00\n        /* \"contracts/4_ProposalContract.sol\":1717:1738  proposal.approve += 1 */\n      dup3\n      dup3\n      sload\n      tag_63\n      swap2\n      swap1\n      tag_42\n      jump\t// in\n    tag_63:\n      swap3\n      pop\n      pop\n      dup2\n      swap1\n      sstore\n      pop\n        /* \"contracts/4_ProposalContract.sol\":1686:1883  if (choice == 1) {... */\n      jump(tag_64)\n    tag_62:\n        /* \"contracts/4_ProposalContract.sol\":1769:1770  2 */\n      0x02\n        /* \"contracts/4_ProposalContract.sol\":1759:1765  choice */\n      dup4\n        /* \"contracts/4_ProposalContract.sol\":1759:1770  choice == 2 */\n      0xff\n      and\n      sub\n        /* \"contracts/4_ProposalContract.sol\":1755:1883  if (choice == 2) {... */\n      tag_65\n      jumpi\n        /* \"contracts/4_ProposalContract.sol\":1805:1806  1 */\n      0x01\n        /* \"contracts/4_ProposalContract.sol\":1786:1794  proposal */\n      dup2\n        /* \"contracts/4_ProposalContract.sol\":1786:1801  proposal.reject */\n      0x03\n      add\n      0x00\n        /* \"contracts/4_ProposalContract.sol\":1786:1806  proposal.reject += 1 */\n      dup3\n      dup3\n      sload\n      tag_66\n      swap2\n      swap1\n      tag_42\n      jump\t// in\n    tag_66:\n      swap3\n      pop\n      pop\n      dup2\n      swap1\n      sstore\n      pop\n        /* \"contracts/4_ProposalContract.sol\":1755:1883  if (choice == 2) {... */\n      jump(tag_67)\n    tag_65:\n        /* \"contracts/4_ProposalContract.sol\":1837:1838  0 */\n      0x00\n        /* \"contracts/4_ProposalContract.sol\":1827:1833  choice */\n      dup4\n        /* \"contracts/4_ProposalContract.sol\":1827:1838  choice == 0 */\n      0xff\n      and\n      sub\n        /* \"contracts/4_ProposalContract.sol\":1823:1883  if (choice == 0) {... */\n      tag_68\n      jumpi\n        /* \"contracts/4_ProposalContract.sol\":1871:1872  1 */\n      0x01\n        /* \"contracts/4_ProposalContract.sol\":1854:1862  proposal */\n      dup2\n        /* \"contracts/4_ProposalContract.sol\":1854:1867  proposal.pass */\n      0x04\n      add\n      0x00\n        /* \"contracts/4_ProposalContract.sol\":1854:1872  proposal.pass += 1 */\n      dup3\n      dup3\n      sload\n      tag_69\n      swap2\n      swap1\n      tag_42\n      jump\t// in\n    tag_69:\n      swap3\n      pop\n      pop\n      dup2\n      swap1\n      sstore\n      pop\n        /* \"contracts/4_ProposalContract.sol\":1823:1883  if (choice == 0) {... */\n    tag_68:\n        /* \"contracts/4_ProposalContract.sol\":1755:1883  if (choice == 2) {... */\n    tag_67:\n        /* \"contracts/4_ProposalContract.sol\":1686:1883  if (choice == 1) {... */\n    tag_64:\n        /* \"contracts/4_ProposalContract.sol\":1916:1920  true */\n      0x01\n        /* \"contracts/4_ProposalContract.sol\":1893:1901  hasVoted */\n      0x03\n        /* \"contracts/4_ProposalContract.sol\":1893:1913  hasVoted[msg.sender] */\n      0x00\n        /* \"contracts/4_ProposalContract.sol\":1902:1912  msg.sender */\n      caller\n        /* \"contracts/4_ProposalContract.sol\":1893:1913  hasVoted[msg.sender] */\n      0xffffffffffffffffffffffffffffffffffffffff\n      and\n      0xffffffffffffffffffffffffffffffffffffffff\n      and\n      dup2\n      mstore\n      0x20\n      add\n      swap1\n      dup2\n      mstore\n      0x20\n      add\n      0x00\n      keccak256\n      0x00\n        /* \"contracts/4_ProposalContract.sol\":1893:1920  hasVoted[msg.sender] = true */\n      0x0100\n      exp\n      dup2\n      sload\n      dup2\n      0xff\n      mul\n      not\n      and\n      swap1\n      dup4\n      iszero\n      iszero\n      mul\n      or\n      swap1\n      sstore\n      pop\n        /* \"contracts/4_ProposalContract.sol\":1955:1978  calculateCurrentState() */\n      tag_70\n        /* \"contracts/4_ProposalContract.sol\":1955:1976  calculateCurrentState */\n      tag_71\n        /* \"contracts/4_ProposalContract.sol\":1955:1978  calculateCurrentState() */\n      jump\t// in\n    tag_70:\n        /* \"contracts/4_ProposalContract.sol\":1930:1938  proposal */\n      dup2\n        /* \"contracts/4_ProposalContract.sol\":1930:1952  proposal.current_state */\n      0x06\n      add\n      0x00\n        /* \"contracts/4_ProposalContract.sol\":1930:1978  proposal.current_state = calculateCurrentState() */\n      0x0100\n      exp\n      dup2\n      sload\n      dup2\n      0xff\n      mul\n      not\n      and\n      swap1\n      dup4\n      iszero\n      iszero\n      mul\n      or\n      swap1\n      sstore\n      pop\n        /* \"contracts/4_ProposalContract.sol\":1989:2007  uint256 total_vote */\n      0x00\n        /* \"contracts/4_ProposalContract.sol\":2047:2055  proposal */\n      dup2\n        /* \"contracts/4_ProposalContract.sol\":2047:2060  proposal.pass */\n      0x04\n      add\n      sload\n        /* \"contracts/4_ProposalContract.sol\":2029:2037  proposal */\n      dup3\n        /* \"contracts/4_ProposalContract.sol\":2029:2044  proposal.reject */\n      0x03\n      add\n      sload\n        /* \"contracts/4_ProposalContract.sol\":2010:2018  proposal */\n      dup4\n        /* \"contracts/4_ProposalContract.sol\":2010:2026  proposal.approve */\n      0x02\n      add\n      sload\n        /* \"contracts/4_ProposalContract.sol\":2010:2044  proposal.approve + proposal.reject */\n      tag_72\n      swap2\n      swap1\n      tag_42\n      jump\t// in\n    tag_72:\n        /* \"contracts/4_ProposalContract.sol\":2010:2060  proposal.approve + proposal.reject + proposal.pass */\n      tag_73\n      swap2\n      swap1\n      tag_42\n      jump\t// in\n    tag_73:\n        /* \"contracts/4_ProposalContract.sol\":1989:2060  uint256 total_vote = proposal.approve + proposal.reject + proposal.pass */\n      swap1\n      pop\n        /* \"contracts/4_ProposalContract.sol\":2088:2096  proposal */\n      dup2\n        /* \"contracts/4_ProposalContract.sol\":2088:2114  proposal.total_vote_to_end */\n      0x05\n      add\n      sload\n        /* \"contracts/4_ProposalContract.sol\":2074:2084  total_vote */\n      dup2\n        /* \"contracts/4_ProposalContract.sol\":2074:2114  total_vote >= proposal.total_vote_to_end */\n      lt\n        /* \"contracts/4_ProposalContract.sol\":2070:2167  if (total_vote >= proposal.total_vote_to_end) {... */\n      tag_74\n      jumpi\n        /* \"contracts/4_ProposalContract.sol\":2151:2156  false */\n      0x00\n        /* \"contracts/4_ProposalContract.sol\":2130:2138  proposal */\n      dup3\n        /* \"contracts/4_ProposalContract.sol\":2130:2148  proposal.is_active */\n      0x06\n      add\n      0x01\n        /* \"contracts/4_ProposalContract.sol\":2130:2156  proposal.is_active = false */\n      0x0100\n      exp\n      dup2\n      sload\n      dup2\n      0xff\n      mul\n      not\n      and\n      swap1\n      dup4\n      iszero\n      iszero\n      mul\n      or\n      swap1\n      sstore\n      pop\n        /* \"contracts/4_ProposalContract.sol\":2070:2167  if (total_vote >= proposal.total_vote_to_end) {... */\n    tag_74:\n        /* \"contracts/4_ProposalContract.sol\":1528:2173  {... */\n      pop\n      pop\n        /* \"contracts/4_ProposalContract.sol\":793:794  _ */\n      pop\n        /* \"contracts/4_ProposalContract.sol\":1463:2173  function vote(uint8 choice) external active newVoter(msg.sender) {... */\n      pop\n      jump\t// out\n        /* \"contracts/4_ProposalContract.sol\":2572:2800  function resetVotes() private {... */\n    tag_47:\n        /* \"contracts/4_ProposalContract.sol\":2653:2662  uint256 i */\n      0x00\n        /* \"contracts/4_ProposalContract.sol\":2665:2666  0 */\n      0x00\n        /* \"contracts/4_ProposalContract.sol\":2653:2666  uint256 i = 0 */\n      swap1\n      pop\n        /* \"contracts/4_ProposalContract.sol\":2648:2762  for (uint256 i = 0; i < voted_addresses.length; i++) {... */\n    tag_76:\n        /* \"contracts/4_ProposalContract.sol\":2672:2687  voted_addresses */\n      0x04\n        /* \"contracts/4_ProposalContract.sol\":2672:2694  voted_addresses.length */\n      dup1\n      sload\n      swap1\n      pop\n        /* \"contracts/4_ProposalContract.sol\":2668:2669  i */\n      dup2\n        /* \"contracts/4_ProposalContract.sol\":2668:2694  i < voted_addresses.length */\n      lt\n        /* \"contracts/4_ProposalContract.sol\":2648:2762  for (uint256 i = 0; i < voted_addresses.length; i++) {... */\n      iszero\n      tag_77\n      jumpi\n        /* \"contracts/4_ProposalContract.sol\":2746:2751  false */\n      0x00\n        /* \"contracts/4_ProposalContract.sol\":2715:2723  hasVoted */\n      0x03\n        /* \"contracts/4_ProposalContract.sol\":2715:2743  hasVoted[voted_addresses[i]] */\n      0x00\n        /* \"contracts/4_ProposalContract.sol\":2724:2739  voted_addresses */\n      0x04\n        /* \"contracts/4_ProposalContract.sol\":2740:2741  i */\n      dup5\n        /* \"contracts/4_ProposalContract.sol\":2724:2742  voted_addresses[i] */\n      dup2\n      sload\n      dup2\n      lt\n      tag_79\n      jumpi\n      tag_80\n      tag_81\n      jump\t// in\n    tag_80:\n    tag_79:\n      swap1\n      0x00\n      mstore\n      keccak256(0x00, 0x20)\n      add\n      0x00\n      swap1\n      sload\n      swap1\n      0x0100\n      exp\n      swap1\n      div\n      0xffffffffffffffffffffffffffffffffffffffff\n      and\n        /* \"contracts/4_ProposalContract.sol\":2715:2743  hasVoted[voted_addresses[i]] */\n      0xffffffffffffffffffffffffffffffffffffffff\n      and\n      0xffffffffffffffffffffffffffffffffffffffff\n      and\n      dup2\n      mstore\n      0x20\n      add\n      swap1\n      dup2\n      mstore\n      0x20\n      add\n      0x00\n      keccak256\n      0x00\n        /* \"contracts/4_ProposalContract.sol\":2715:2751  hasVoted[voted_addresses[i]] = false */\n      0x0100\n      exp\n      dup2\n      sload\n      dup2\n      0xff\n      mul\n      not\n      and\n      swap1\n      dup4\n      iszero\n      iszero\n      mul\n      or\n      swap1\n      sstore\n      pop\n        /* \"contracts/4_ProposalContract.sol\":2696:2699  i++ */\n      dup1\n      dup1\n      0x01\n      add\n      swap2\n      pop\n      pop\n        /* \"contracts/4_ProposalContract.sol\":2648:2762  for (uint256 i = 0; i < voted_addresses.length; i++) {... */\n      jump(tag_76)\n    tag_77:\n      pop\n        /* \"contracts/4_ProposalContract.sol\":2778:2793  voted_addresses */\n      0x04\n      0x00\n        /* \"contracts/4_ProposalContract.sol\":2771:2793  delete voted_addresses */\n      tag_83\n      swap2\n      swap1\n      tag_84\n      jump\t// in\n    tag_83:\n        /* \"contracts/4_ProposalContract.sol\":2572:2800  function resetVotes() private {... */\n      jump\t// out\n        /* \"contracts/4_ProposalContract.sol\":2179:2566  function calculateCurrentState() private view returns (bool) {... */\n    tag_71:\n        /* \"contracts/4_ProposalContract.sol\":2234:2238  bool */\n      0x00\n        /* \"contracts/4_ProposalContract.sol\":2250:2275  Proposal storage proposal */\n      0x00\n        /* \"contracts/4_ProposalContract.sol\":2278:2294  proposal_history */\n      0x02\n        /* \"contracts/4_ProposalContract.sol\":2278:2303  proposal_history[counter] */\n      0x00\n        /* \"contracts/4_ProposalContract.sol\":2295:2302  counter */\n      sload(0x01)\n        /* \"contracts/4_ProposalContract.sol\":2278:2303  proposal_history[counter] */\n      dup2\n      mstore\n      0x20\n      add\n      swap1\n      dup2\n      mstore\n      0x20\n      add\n      0x00\n      keccak256\n        /* \"contracts/4_ProposalContract.sol\":2250:2303  Proposal storage proposal = proposal_history[counter] */\n      swap1\n      pop\n        /* \"contracts/4_ProposalContract.sol\":2314:2329  uint256 approve */\n      0x00\n        /* \"contracts/4_ProposalContract.sol\":2332:2340  proposal */\n      dup2\n        /* \"contracts/4_ProposalContract.sol\":2332:2348  proposal.approve */\n      0x02\n      add\n      sload\n        /* \"contracts/4_ProposalContract.sol\":2314:2348  uint256 approve = proposal.approve */\n      swap1\n      pop\n        /* \"contracts/4_ProposalContract.sol\":2358:2372  uint256 reject */\n      0x00\n        /* \"contracts/4_ProposalContract.sol\":2375:2383  proposal */\n      dup3\n        /* \"contracts/4_ProposalContract.sol\":2375:2390  proposal.reject */\n      0x03\n      add\n      sload\n        /* \"contracts/4_ProposalContract.sol\":2358:2390  uint256 reject = proposal.reject */\n      swap1\n      pop\n        /* \"contracts/4_ProposalContract.sol\":2400:2412  uint256 pass */\n      0x00\n        /* \"contracts/4_ProposalContract.sol\":2415:2423  proposal */\n      dup4\n        /* \"contracts/4_ProposalContract.sol\":2415:2428  proposal.pass */\n      0x04\n      add\n      sload\n        /* \"contracts/4_ProposalContract.sol\":2400:2428  uint256 pass = proposal.pass */\n      swap1\n      pop\n        /* \"contracts/4_ProposalContract.sol\":2455:2456  1 */\n      0x01\n        /* \"contracts/4_ProposalContract.sol\":2450:2451  2 */\n      0x02\n        /* \"contracts/4_ProposalContract.sol\":2443:2447  pass */\n      dup3\n        /* \"contracts/4_ProposalContract.sol\":2443:2451  pass % 2 */\n      tag_86\n      swap2\n      swap1\n      tag_87\n      jump\t// in\n    tag_86:\n        /* \"contracts/4_ProposalContract.sol\":2443:2456  pass % 2 == 1 */\n      sub\n        /* \"contracts/4_ProposalContract.sol\":2439:2492  if (pass % 2 == 1) {... */\n      tag_88\n      jumpi\n        /* \"contracts/4_ProposalContract.sol\":2480:2481  1 */\n      0x01\n        /* \"contracts/4_ProposalContract.sol\":2472:2481  pass += 1 */\n      dup2\n      tag_89\n      swap2\n      swap1\n      tag_42\n      jump\t// in\n    tag_89:\n      swap1\n      pop\n        /* \"contracts/4_ProposalContract.sol\":2439:2492  if (pass % 2 == 1) {... */\n    tag_88:\n        /* \"contracts/4_ProposalContract.sol\":2515:2516  2 */\n      0x02\n        /* \"contracts/4_ProposalContract.sol\":2508:2512  pass */\n      dup2\n        /* \"contracts/4_ProposalContract.sol\":2508:2516  pass / 2 */\n      tag_90\n      swap2\n      swap1\n      tag_91\n      jump\t// in\n    tag_90:\n        /* \"contracts/4_ProposalContract.sol\":2501:2516  pass = pass / 2 */\n      swap1\n      pop\n        /* \"contracts/4_ProposalContract.sol\":2554:2558  pass */\n      dup1\n        /* \"contracts/4_ProposalContract.sol\":2545:2551  reject */\n      dup3\n        /* \"contracts/4_ProposalContract.sol\":2545:2558  reject + pass */\n      tag_92\n      swap2\n      swap1\n      tag_42\n      jump\t// in\n    tag_92:\n        /* \"contracts/4_ProposalContract.sol\":2534:2541  approve */\n      dup4\n        /* \"contracts/4_ProposalContract.sol\":2534:2559  approve > (reject + pass) */\n      gt\n        /* \"contracts/4_ProposalContract.sol\":2527:2559  return approve > (reject + pass) */\n      swap5\n      pop\n      pop\n      pop\n      pop\n      pop\n        /* \"contracts/4_ProposalContract.sol\":2179:2566  function calculateCurrentState() private view returns (bool) {... */\n      swap1\n      jump\t// out\n    tag_84:\n      pop\n      dup1\n      sload\n      0x00\n      dup3\n      sstore\n      swap1\n      0x00\n      mstore\n      keccak256(0x00, 0x20)\n      swap1\n      dup2\n      add\n      swap1\n      tag_94\n      swap2\n      swap1\n      tag_95\n      jump\t// in\n    tag_94:\n      pop\n      jump\t// out\n    tag_95:\n    tag_96:\n      dup1\n      dup3\n      gt\n      iszero\n      tag_97\n      jumpi\n      0x00\n      dup2\n      0x00\n      swap1\n      sstore\n      pop\n      0x01\n      add\n      jump(tag_96)\n    tag_97:\n      pop\n      swap1\n      jump\t// out\n        /* \"#utility.yul\":88:205   */\n    tag_99:\n        /* \"#utility.yul\":197:198   */\n      0x00\n        /* \"#utility.yul\":194:195   */\n      0x00\n        /* \"#utility.yul\":187:199   */\n      revert\n        /* \"#utility.yul\":211:328   */\n    tag_100:\n        /* \"#utility.yul\":320:321   */\n      0x00\n        /* \"#utility.yul\":317:318   */\n      0x00\n        /* \"#utility.yul\":310:322   */\n      revert\n        /* \"#utility.yul\":334:411   */\n    tag_101:\n        /* \"#utility.yul\":371:378   */\n      0x00\n        /* \"#utility.yul\":400:405   */\n      dup2\n        /* \"#utility.yul\":389:405   */\n      swap1\n      pop\n        /* \"#utility.yul\":334:411   */\n      swap2\n      swap1\n      pop\n      jump\t// out\n        /* \"#utility.yul\":417:539   */\n    tag_102:\n        /* \"#utility.yul\":490:514   */\n      tag_155\n        /* \"#utility.yul\":508:513   */\n      dup2\n        /* \"#utility.yul\":490:514   */\n      tag_101\n      jump\t// in\n    tag_155:\n        /* \"#utility.yul\":483:488   */\n      dup2\n        /* \"#utility.yul\":480:515   */\n      eq\n        /* \"#utility.yul\":470:533   */\n      tag_156\n      jumpi\n        /* \"#utility.yul\":529:530   */\n      0x00\n        /* \"#utility.yul\":526:527   */\n      0x00\n        /* \"#utility.yul\":519:531   */\n      revert\n        /* \"#utility.yul\":470:533   */\n    tag_156:\n        /* \"#utility.yul\":417:539   */\n      pop\n      jump\t// out\n        /* \"#utility.yul\":545:684   */\n    tag_103:\n        /* \"#utility.yul\":591:596   */\n      0x00\n        /* \"#utility.yul\":629:635   */\n      dup2\n        /* \"#utility.yul\":616:636   */\n      calldataload\n        /* \"#utility.yul\":607:636   */\n      swap1\n      pop\n        /* \"#utility.yul\":645:678   */\n      tag_158\n        /* \"#utility.yul\":672:677   */\n      dup2\n        /* \"#utility.yul\":645:678   */\n      tag_102\n      jump\t// in\n    tag_158:\n        /* \"#utility.yul\":545:684   */\n      swap3\n      swap2\n      pop\n      pop\n      jump\t// out\n        /* \"#utility.yul\":690:1019   */\n    tag_9:\n        /* \"#utility.yul\":749:755   */\n      0x00\n        /* \"#utility.yul\":798:800   */\n      0x20\n        /* \"#utility.yul\":786:795   */\n      dup3\n        /* \"#utility.yul\":777:784   */\n      dup5\n        /* \"#utility.yul\":773:796   */\n      sub\n        /* \"#utility.yul\":769:801   */\n      slt\n        /* \"#utility.yul\":766:885   */\n      iszero\n      tag_160\n      jumpi\n        /* \"#utility.yul\":804:883   */\n      tag_161\n      tag_99\n      jump\t// in\n    tag_161:\n        /* \"#utility.yul\":766:885   */\n    tag_160:\n        /* \"#utility.yul\":924:925   */\n      0x00\n        /* \"#utility.yul\":949:1002   */\n      tag_162\n        /* \"#utility.yul\":994:1001   */\n      dup5\n        /* \"#utility.yul\":985:991   */\n      dup3\n        /* \"#utility.yul\":974:983   */\n      dup6\n        /* \"#utility.yul\":970:992   */\n      add\n        /* \"#utility.yul\":949:1002   */\n      tag_103\n      jump\t// in\n    tag_162:\n        /* \"#utility.yul\":939:1002   */\n      swap2\n      pop\n        /* \"#utility.yul\":895:1012   */\n      pop\n        /* \"#utility.yul\":690:1019   */\n      swap3\n      swap2\n      pop\n      pop\n      jump\t// out\n        /* \"#utility.yul\":1025:1124   */\n    tag_104:\n        /* \"#utility.yul\":1077:1083   */\n      0x00\n        /* \"#utility.yul\":1111:1116   */\n      dup2\n        /* \"#utility.yul\":1105:1117   */\n      mload\n        /* \"#utility.yul\":1095:1117   */\n      swap1\n      pop\n        /* \"#utility.yul\":1025:1124   */\n      swap2\n      swap1\n      pop\n      jump\t// out\n        /* \"#utility.yul\":1130:1299   */\n    tag_105:\n        /* \"#utility.yul\":1214:1225   */\n      0x00\n        /* \"#utility.yul\":1248:1254   */\n      dup3\n        /* \"#utility.yul\":1243:1246   */\n      dup3\n        /* \"#utility.yul\":1236:1255   */\n      mstore\n        /* \"#utility.yul\":1288:1292   */\n      0x20\n        /* \"#utility.yul\":1283:1286   */\n      dup3\n        /* \"#utility.yul\":1279:1293   */\n      add\n        /* \"#utility.yul\":1264:1293   */\n      swap1\n      pop\n        /* \"#utility.yul\":1130:1299   */\n      swap3\n      swap2\n      pop\n      pop\n      jump\t// out\n        /* \"#utility.yul\":1305:1444   */\n    tag_106:\n        /* \"#utility.yul\":1394:1400   */\n      dup3\n        /* \"#utility.yul\":1389:1392   */\n      dup2\n        /* \"#utility.yul\":1384:1387   */\n      dup4\n        /* \"#utility.yul\":1378:1401   */\n      mcopy\n        /* \"#utility.yul\":1435:1436   */\n      0x00\n        /* \"#utility.yul\":1426:1432   */\n      dup4\n        /* \"#utility.yul\":1421:1424   */\n      dup4\n        /* \"#utility.yul\":1417:1433   */\n      add\n        /* \"#utility.yul\":1410:1437   */\n      mstore\n        /* \"#utility.yul\":1305:1444   */\n      pop\n      pop\n      pop\n      jump\t// out\n        /* \"#utility.yul\":1450:1552   */\n    tag_107:\n        /* \"#utility.yul\":1491:1497   */\n      0x00\n        /* \"#utility.yul\":1542:1544   */\n      0x1f\n        /* \"#utility.yul\":1538:1545   */\n      not\n        /* \"#utility.yul\":1533:1535   */\n      0x1f\n        /* \"#utility.yul\":1526:1531   */\n      dup4\n        /* \"#utility.yul\":1522:1536   */\n      add\n        /* \"#utility.yul\":1518:1546   */\n      and\n        /* \"#utility.yul\":1508:1546   */\n      swap1\n      pop\n        /* \"#utility.yul\":1450:1552   */\n      swap2\n      swap1\n      pop\n      jump\t// out\n        /* \"#utility.yul\":1558:1935   */\n    tag_108:\n        /* \"#utility.yul\":1646:1649   */\n      0x00\n        /* \"#utility.yul\":1674:1713   */\n      tag_168\n        /* \"#utility.yul\":1707:1712   */\n      dup3\n        /* \"#utility.yul\":1674:1713   */\n      tag_104\n      jump\t// in\n    tag_168:\n        /* \"#utility.yul\":1729:1800   */\n      tag_169\n        /* \"#utility.yul\":1793:1799   */\n      dup2\n        /* \"#utility.yul\":1788:1791   */\n      dup6\n        /* \"#utility.yul\":1729:1800   */\n      tag_105\n      jump\t// in\n    tag_169:\n        /* \"#utility.yul\":1722:1800   */\n      swap4\n      pop\n        /* \"#utility.yul\":1809:1874   */\n      tag_170\n        /* \"#utility.yul\":1867:1873   */\n      dup2\n        /* \"#utility.yul\":1862:1865   */\n      dup6\n        /* \"#utility.yul\":1855:1859   */\n      0x20\n        /* \"#utility.yul\":1848:1853   */\n      dup7\n        /* \"#utility.yul\":1844:1860   */\n      add\n        /* \"#utility.yul\":1809:1874   */\n      tag_106\n      jump\t// in\n    tag_170:\n        /* \"#utility.yul\":1899:1928   */\n      tag_171\n        /* \"#utility.yul\":1921:1927   */\n      dup2\n        /* \"#utility.yul\":1899:1928   */\n      tag_107\n      jump\t// in\n    tag_171:\n        /* \"#utility.yul\":1894:1897   */\n      dup5\n        /* \"#utility.yul\":1890:1929   */\n      add\n        /* \"#utility.yul\":1883:1929   */\n      swap2\n      pop\n        /* \"#utility.yul\":1650:1935   */\n      pop\n        /* \"#utility.yul\":1558:1935   */\n      swap3\n      swap2\n      pop\n      pop\n      jump\t// out\n        /* \"#utility.yul\":1941:2059   */\n    tag_109:\n        /* \"#utility.yul\":2028:2052   */\n      tag_173\n        /* \"#utility.yul\":2046:2051   */\n      dup2\n        /* \"#utility.yul\":2028:2052   */\n      tag_101\n      jump\t// in\n    tag_173:\n        /* \"#utility.yul\":2023:2026   */\n      dup3\n        /* \"#utility.yul\":2016:2053   */\n      mstore\n        /* \"#utility.yul\":1941:2059   */\n      pop\n      pop\n      jump\t// out\n        /* \"#utility.yul\":2065:2155   */\n    tag_110:\n        /* \"#utility.yul\":2099:2106   */\n      0x00\n        /* \"#utility.yul\":2142:2147   */\n      dup2\n        /* \"#utility.yul\":2135:2148   */\n      iszero\n        /* \"#utility.yul\":2128:2149   */\n      iszero\n        /* \"#utility.yul\":2117:2149   */\n      swap1\n      pop\n        /* \"#utility.yul\":2065:2155   */\n      swap2\n      swap1\n      pop\n      jump\t// out\n        /* \"#utility.yul\":2161:2270   */\n    tag_111:\n        /* \"#utility.yul\":2242:2263   */\n      tag_176\n        /* \"#utility.yul\":2257:2262   */\n      dup2\n        /* \"#utility.yul\":2242:2263   */\n      tag_110\n      jump\t// in\n    tag_176:\n        /* \"#utility.yul\":2237:2240   */\n      dup3\n        /* \"#utility.yul\":2230:2264   */\n      mstore\n        /* \"#utility.yul\":2161:2270   */\n      pop\n      pop\n      jump\t// out\n        /* \"#utility.yul\":2276:3431   */\n    tag_12:\n        /* \"#utility.yul\":2593:2597   */\n      0x00\n        /* \"#utility.yul\":2631:2634   */\n      0x0100\n        /* \"#utility.yul\":2620:2629   */\n      dup3\n        /* \"#utility.yul\":2616:2635   */\n      add\n        /* \"#utility.yul\":2608:2635   */\n      swap1\n      pop\n        /* \"#utility.yul\":2681:2690   */\n      dup2\n        /* \"#utility.yul\":2675:2679   */\n      dup2\n        /* \"#utility.yul\":2671:2691   */\n      sub\n        /* \"#utility.yul\":2667:2668   */\n      0x00\n        /* \"#utility.yul\":2656:2665   */\n      dup4\n        /* \"#utility.yul\":2652:2669   */\n      add\n        /* \"#utility.yul\":2645:2692   */\n      mstore\n        /* \"#utility.yul\":2709:2787   */\n      tag_178\n        /* \"#utility.yul\":2782:2786   */\n      dup2\n        /* \"#utility.yul\":2773:2779   */\n      dup12\n        /* \"#utility.yul\":2709:2787   */\n      tag_108\n      jump\t// in\n    tag_178:\n        /* \"#utility.yul\":2701:2787   */\n      swap1\n      pop\n        /* \"#utility.yul\":2834:2843   */\n      dup2\n        /* \"#utility.yul\":2828:2832   */\n      dup2\n        /* \"#utility.yul\":2824:2844   */\n      sub\n        /* \"#utility.yul\":2819:2821   */\n      0x20\n        /* \"#utility.yul\":2808:2817   */\n      dup4\n        /* \"#utility.yul\":2804:2822   */\n      add\n        /* \"#utility.yul\":2797:2845   */\n      mstore\n        /* \"#utility.yul\":2862:2940   */\n      tag_179\n        /* \"#utility.yul\":2935:2939   */\n      dup2\n        /* \"#utility.yul\":2926:2932   */\n      dup11\n        /* \"#utility.yul\":2862:2940   */\n      tag_108\n      jump\t// in\n    tag_179:\n        /* \"#utility.yul\":2854:2940   */\n      swap1\n      pop\n        /* \"#utility.yul\":2950:3022   */\n      tag_180\n        /* \"#utility.yul\":3018:3020   */\n      0x40\n        /* \"#utility.yul\":3007:3016   */\n      dup4\n        /* \"#utility.yul\":3003:3021   */\n      add\n        /* \"#utility.yul\":2994:3000   */\n      dup10\n        /* \"#utility.yul\":2950:3022   */\n      tag_109\n      jump\t// in\n    tag_180:\n        /* \"#utility.yul\":3032:3104   */\n      tag_181\n        /* \"#utility.yul\":3100:3102   */\n      0x60\n        /* \"#utility.yul\":3089:3098   */\n      dup4\n        /* \"#utility.yul\":3085:3103   */\n      add\n        /* \"#utility.yul\":3076:3082   */\n      dup9\n        /* \"#utility.yul\":3032:3104   */\n      tag_109\n      jump\t// in\n    tag_181:\n        /* \"#utility.yul\":3114:3187   */\n      tag_182\n        /* \"#utility.yul\":3182:3185   */\n      0x80\n        /* \"#utility.yul\":3171:3180   */\n      dup4\n        /* \"#utility.yul\":3167:3186   */\n      add\n        /* \"#utility.yul\":3158:3164   */\n      dup8\n        /* \"#utility.yul\":3114:3187   */\n      tag_109\n      jump\t// in\n    tag_182:\n        /* \"#utility.yul\":3197:3270   */\n      tag_183\n        /* \"#utility.yul\":3265:3268   */\n      0xa0\n        /* \"#utility.yul\":3254:3263   */\n      dup4\n        /* \"#utility.yul\":3250:3269   */\n      add\n        /* \"#utility.yul\":3241:3247   */\n      dup7\n        /* \"#utility.yul\":3197:3270   */\n      tag_109\n      jump\t// in\n    tag_183:\n        /* \"#utility.yul\":3280:3347   */\n      tag_184\n        /* \"#utility.yul\":3342:3345   */\n      0xc0\n        /* \"#utility.yul\":3331:3340   */\n      dup4\n        /* \"#utility.yul\":3327:3346   */\n      add\n        /* \"#utility.yul\":3318:3324   */\n      dup6\n        /* \"#utility.yul\":3280:3347   */\n      tag_111\n      jump\t// in\n    tag_184:\n        /* \"#utility.yul\":3357:3424   */\n      tag_185\n        /* \"#utility.yul\":3419:3422   */\n      0xe0\n        /* \"#utility.yul\":3408:3417   */\n      dup4\n        /* \"#utility.yul\":3404:3423   */\n      add\n        /* \"#utility.yul\":3395:3401   */\n      dup5\n        /* \"#utility.yul\":3357:3424   */\n      tag_111\n      jump\t// in\n    tag_185:\n        /* \"#utility.yul\":2276:3431   */\n      swap10\n      swap9\n      pop\n      pop\n      pop\n      pop\n      pop\n      pop\n      pop\n      pop\n      pop\n      jump\t// out\n        /* \"#utility.yul\":3437:3554   */\n    tag_112:\n        /* \"#utility.yul\":3546:3547   */\n      0x00\n        /* \"#utility.yul\":3543:3544   */\n      0x00\n        /* \"#utility.yul\":3536:3548   */\n      revert\n        /* \"#utility.yul\":3560:3677   */\n    tag_113:\n        /* \"#utility.yul\":3669:3670   */\n      0x00\n        /* \"#utility.yul\":3666:3667   */\n      0x00\n        /* \"#utility.yul\":3659:3671   */\n      revert\n        /* \"#utility.yul\":3683:3800   */\n    tag_114:\n        /* \"#utility.yul\":3792:3793   */\n      0x00\n        /* \"#utility.yul\":3789:3790   */\n      0x00\n        /* \"#utility.yul\":3782:3794   */\n      revert\n        /* \"#utility.yul\":3820:4373   */\n    tag_115:\n        /* \"#utility.yul\":3878:3886   */\n      0x00\n        /* \"#utility.yul\":3888:3894   */\n      0x00\n        /* \"#utility.yul\":3938:3941   */\n      dup4\n        /* \"#utility.yul\":3931:3935   */\n      0x1f\n        /* \"#utility.yul\":3923:3929   */\n      dup5\n        /* \"#utility.yul\":3919:3936   */\n      add\n        /* \"#utility.yul\":3915:3942   */\n      slt\n        /* \"#utility.yul\":3905:4027   */\n      tag_190\n      jumpi\n        /* \"#utility.yul\":3946:4025   */\n      tag_191\n      tag_112\n      jump\t// in\n    tag_191:\n        /* \"#utility.yul\":3905:4027   */\n    tag_190:\n        /* \"#utility.yul\":4059:4065   */\n      dup3\n        /* \"#utility.yul\":4046:4066   */\n      calldataload\n        /* \"#utility.yul\":4036:4066   */\n      swap1\n      pop\n        /* \"#utility.yul\":4089:4107   */\n      0xffffffffffffffff\n        /* \"#utility.yul\":4081:4087   */\n      dup2\n        /* \"#utility.yul\":4078:4108   */\n      gt\n        /* \"#utility.yul\":4075:4192   */\n      iszero\n      tag_192\n      jumpi\n        /* \"#utility.yul\":4111:4190   */\n      tag_193\n      tag_113\n      jump\t// in\n    tag_193:\n        /* \"#utility.yul\":4075:4192   */\n    tag_192:\n        /* \"#utility.yul\":4225:4229   */\n      0x20\n        /* \"#utility.yul\":4217:4223   */\n      dup4\n        /* \"#utility.yul\":4213:4230   */\n      add\n        /* \"#utility.yul\":4201:4230   */\n      swap2\n      pop\n        /* \"#utility.yul\":4279:4282   */\n      dup4\n        /* \"#utility.yul\":4271:4275   */\n      0x01\n        /* \"#utility.yul\":4263:4269   */\n      dup3\n        /* \"#utility.yul\":4259:4276   */\n      mul\n        /* \"#utility.yul\":4249:4257   */\n      dup4\n        /* \"#utility.yul\":4245:4277   */\n      add\n        /* \"#utility.yul\":4242:4283   */\n      gt\n        /* \"#utility.yul\":4239:4367   */\n      iszero\n      tag_194\n      jumpi\n        /* \"#utility.yul\":4286:4365   */\n      tag_195\n      tag_114\n      jump\t// in\n    tag_195:\n        /* \"#utility.yul\":4239:4367   */\n    tag_194:\n        /* \"#utility.yul\":3820:4373   */\n      swap3\n      pop\n      swap3\n      swap1\n      pop\n      jump\t// out\n        /* \"#utility.yul\":4379:5398   */\n    tag_15:\n        /* \"#utility.yul\":4480:4486   */\n      0x00\n        /* \"#utility.yul\":4488:4494   */\n      0x00\n        /* \"#utility.yul\":4496:4502   */\n      0x00\n        /* \"#utility.yul\":4504:4510   */\n      0x00\n        /* \"#utility.yul\":4512:4518   */\n      0x00\n        /* \"#utility.yul\":4561:4563   */\n      0x60\n        /* \"#utility.yul\":4549:4558   */\n      dup7\n        /* \"#utility.yul\":4540:4547   */\n      dup9\n        /* \"#utility.yul\":4536:4559   */\n      sub\n        /* \"#utility.yul\":4532:4564   */\n      slt\n        /* \"#utility.yul\":4529:4648   */\n      iszero\n      tag_197\n      jumpi\n        /* \"#utility.yul\":4567:4646   */\n      tag_198\n      tag_99\n      jump\t// in\n    tag_198:\n        /* \"#utility.yul\":4529:4648   */\n    tag_197:\n        /* \"#utility.yul\":4715:4716   */\n      0x00\n        /* \"#utility.yul\":4704:4713   */\n      dup7\n        /* \"#utility.yul\":4700:4717   */\n      add\n        /* \"#utility.yul\":4687:4718   */\n      calldataload\n        /* \"#utility.yul\":4745:4763   */\n      0xffffffffffffffff\n        /* \"#utility.yul\":4737:4743   */\n      dup2\n        /* \"#utility.yul\":4734:4764   */\n      gt\n        /* \"#utility.yul\":4731:4848   */\n      iszero\n      tag_199\n      jumpi\n        /* \"#utility.yul\":4767:4846   */\n      tag_200\n      tag_100\n      jump\t// in\n    tag_200:\n        /* \"#utility.yul\":4731:4848   */\n    tag_199:\n        /* \"#utility.yul\":4880:4945   */\n      tag_201\n        /* \"#utility.yul\":4937:4944   */\n      dup9\n        /* \"#utility.yul\":4928:4934   */\n      dup3\n        /* \"#utility.yul\":4917:4926   */\n      dup10\n        /* \"#utility.yul\":4913:4935   */\n      add\n        /* \"#utility.yul\":4880:4945   */\n      tag_115\n      jump\t// in\n    tag_201:\n        /* \"#utility.yul\":4862:4945   */\n      swap6\n      pop\n      swap6\n      pop\n        /* \"#utility.yul\":4658:4955   */\n      pop\n        /* \"#utility.yul\":5022:5024   */\n      0x20\n        /* \"#utility.yul\":5011:5020   */\n      dup7\n        /* \"#utility.yul\":5007:5025   */\n      add\n        /* \"#utility.yul\":4994:5026   */\n      calldataload\n        /* \"#utility.yul\":5053:5071   */\n      0xffffffffffffffff\n        /* \"#utility.yul\":5045:5051   */\n      dup2\n        /* \"#utility.yul\":5042:5072   */\n      gt\n        /* \"#utility.yul\":5039:5156   */\n      iszero\n      tag_202\n      jumpi\n        /* \"#utility.yul\":5075:5154   */\n      tag_203\n      tag_100\n      jump\t// in\n    tag_203:\n        /* \"#utility.yul\":5039:5156   */\n    tag_202:\n        /* \"#utility.yul\":5188:5253   */\n      tag_204\n        /* \"#utility.yul\":5245:5252   */\n      dup9\n        /* \"#utility.yul\":5236:5242   */\n      dup3\n        /* \"#utility.yul\":5225:5234   */\n      dup10\n        /* \"#utility.yul\":5221:5243   */\n      add\n        /* \"#utility.yul\":5188:5253   */\n      tag_115\n      jump\t// in\n    tag_204:\n        /* \"#utility.yul\":5170:5253   */\n      swap4\n      pop\n      swap4\n      pop\n        /* \"#utility.yul\":4965:5263   */\n      pop\n        /* \"#utility.yul\":5302:5304   */\n      0x40\n        /* \"#utility.yul\":5328:5381   */\n      tag_205\n        /* \"#utility.yul\":5373:5380   */\n      dup9\n        /* \"#utility.yul\":5364:5370   */\n      dup3\n        /* \"#utility.yul\":5353:5362   */\n      dup10\n        /* \"#utility.yul\":5349:5371   */\n      add\n        /* \"#utility.yul\":5328:5381   */\n      tag_103\n      jump\t// in\n    tag_205:\n        /* \"#utility.yul\":5318:5381   */\n      swap2\n      pop\n        /* \"#utility.yul\":5273:5391   */\n      pop\n        /* \"#utility.yul\":4379:5398   */\n      swap3\n      swap6\n      pop\n      swap3\n      swap6\n      swap1\n      swap4\n      pop\n      jump\t// out\n        /* \"#utility.yul\":5404:5530   */\n    tag_116:\n        /* \"#utility.yul\":5441:5448   */\n      0x00\n        /* \"#utility.yul\":5481:5523   */\n      0xffffffffffffffffffffffffffffffffffffffff\n        /* \"#utility.yul\":5474:5479   */\n      dup3\n        /* \"#utility.yul\":5470:5524   */\n      and\n        /* \"#utility.yul\":5459:5524   */\n      swap1\n      pop\n        /* \"#utility.yul\":5404:5530   */\n      swap2\n      swap1\n      pop\n      jump\t// out\n        /* \"#utility.yul\":5536:5632   */\n    tag_117:\n        /* \"#utility.yul\":5573:5580   */\n      0x00\n        /* \"#utility.yul\":5602:5626   */\n      tag_208\n        /* \"#utility.yul\":5620:5625   */\n      dup3\n        /* \"#utility.yul\":5602:5626   */\n      tag_116\n      jump\t// in\n    tag_208:\n        /* \"#utility.yul\":5591:5626   */\n      swap1\n      pop\n        /* \"#utility.yul\":5536:5632   */\n      swap2\n      swap1\n      pop\n      jump\t// out\n        /* \"#utility.yul\":5638:5756   */\n    tag_118:\n        /* \"#utility.yul\":5725:5749   */\n      tag_210\n        /* \"#utility.yul\":5743:5748   */\n      dup2\n        /* \"#utility.yul\":5725:5749   */\n      tag_117\n      jump\t// in\n    tag_210:\n        /* \"#utility.yul\":5720:5723   */\n      dup3\n        /* \"#utility.yul\":5713:5750   */\n      mstore\n        /* \"#utility.yul\":5638:5756   */\n      pop\n      pop\n      jump\t// out\n        /* \"#utility.yul\":5762:5984   */\n    tag_20:\n        /* \"#utility.yul\":5855:5859   */\n      0x00\n        /* \"#utility.yul\":5893:5895   */\n      0x20\n        /* \"#utility.yul\":5882:5891   */\n      dup3\n        /* \"#utility.yul\":5878:5896   */\n      add\n        /* \"#utility.yul\":5870:5896   */\n      swap1\n      pop\n        /* \"#utility.yul\":5906:5977   */\n      tag_212\n        /* \"#utility.yul\":5974:5975   */\n      0x00\n        /* \"#utility.yul\":5963:5972   */\n      dup4\n        /* \"#utility.yul\":5959:5976   */\n      add\n        /* \"#utility.yul\":5950:5956   */\n      dup5\n        /* \"#utility.yul\":5906:5977   */\n      tag_118\n      jump\t// in\n    tag_212:\n        /* \"#utility.yul\":5762:5984   */\n      swap3\n      swap2\n      pop\n      pop\n      jump\t// out\n        /* \"#utility.yul\":5990:6076   */\n    tag_119:\n        /* \"#utility.yul\":6025:6032   */\n      0x00\n        /* \"#utility.yul\":6065:6069   */\n      0xff\n        /* \"#utility.yul\":6058:6063   */\n      dup3\n        /* \"#utility.yul\":6054:6070   */\n      and\n        /* \"#utility.yul\":6043:6070   */\n      swap1\n      pop\n        /* \"#utility.yul\":5990:6076   */\n      swap2\n      swap1\n      pop\n      jump\t// out\n        /* \"#utility.yul\":6082:6200   */\n    tag_120:\n        /* \"#utility.yul\":6153:6175   */\n      tag_215\n        /* \"#utility.yul\":6169:6174   */\n      dup2\n        /* \"#utility.yul\":6153:6175   */\n      tag_119\n      jump\t// in\n    tag_215:\n        /* \"#utility.yul\":6146:6151   */\n      dup2\n        /* \"#utility.yul\":6143:6176   */\n      eq\n        /* \"#utility.yul\":6133:6194   */\n      tag_216\n      jumpi\n        /* \"#utility.yul\":6190:6191   */\n      0x00\n        /* \"#utility.yul\":6187:6188   */\n      0x00\n        /* \"#utility.yul\":6180:6192   */\n      revert\n        /* \"#utility.yul\":6133:6194   */\n    tag_216:\n        /* \"#utility.yul\":6082:6200   */\n      pop\n      jump\t// out\n        /* \"#utility.yul\":6206:6341   */\n    tag_121:\n        /* \"#utility.yul\":6250:6255   */\n      0x00\n        /* \"#utility.yul\":6288:6294   */\n      dup2\n        /* \"#utility.yul\":6275:6295   */\n      calldataload\n        /* \"#utility.yul\":6266:6295   */\n      swap1\n      pop\n        /* \"#utility.yul\":6304:6335   */\n      tag_218\n        /* \"#utility.yul\":6329:6334   */\n      dup2\n        /* \"#utility.yul\":6304:6335   */\n      tag_120\n      jump\t// in\n    tag_218:\n        /* \"#utility.yul\":6206:6341   */\n      swap3\n      swap2\n      pop\n      pop\n      jump\t// out\n        /* \"#utility.yul\":6347:6672   */\n    tag_23:\n        /* \"#utility.yul\":6404:6410   */\n      0x00\n        /* \"#utility.yul\":6453:6455   */\n      0x20\n        /* \"#utility.yul\":6441:6450   */\n      dup3\n        /* \"#utility.yul\":6432:6439   */\n      dup5\n        /* \"#utility.yul\":6428:6451   */\n      sub\n        /* \"#utility.yul\":6424:6456   */\n      slt\n        /* \"#utility.yul\":6421:6540   */\n      iszero\n      tag_220\n      jumpi\n        /* \"#utility.yul\":6459:6538   */\n      tag_221\n      tag_99\n      jump\t// in\n    tag_221:\n        /* \"#utility.yul\":6421:6540   */\n    tag_220:\n        /* \"#utility.yul\":6579:6580   */\n      0x00\n        /* \"#utility.yul\":6604:6655   */\n      tag_222\n        /* \"#utility.yul\":6647:6654   */\n      dup5\n        /* \"#utility.yul\":6638:6644   */\n      dup3\n        /* \"#utility.yul\":6627:6636   */\n      dup6\n        /* \"#utility.yul\":6623:6645   */\n      add\n        /* \"#utility.yul\":6604:6655   */\n      tag_121\n      jump\t// in\n    tag_222:\n        /* \"#utility.yul\":6594:6655   */\n      swap2\n      pop\n        /* \"#utility.yul\":6550:6665   */\n      pop\n        /* \"#utility.yul\":6347:6672   */\n      swap3\n      swap2\n      pop\n      pop\n      jump\t// out\n        /* \"#utility.yul\":6678:6858   */\n    tag_122:\n        /* \"#utility.yul\":6726:6803   */\n      0x4e487b7100000000000000000000000000000000000000000000000000000000\n        /* \"#utility.yul\":6723:6724   */\n      0x00\n        /* \"#utility.yul\":6716:6804   */\n      mstore\n        /* \"#utility.yul\":6823:6827   */\n      0x22\n        /* \"#utility.yul\":6820:6821   */\n      0x04\n        /* \"#utility.yul\":6813:6828   */\n      mstore\n        /* \"#utility.yul\":6847:6851   */\n      0x24\n        /* \"#utility.yul\":6844:6845   */\n      0x00\n        /* \"#utility.yul\":6837:6852   */\n      revert\n        /* \"#utility.yul\":6864:7184   */\n    tag_26:\n        /* \"#utility.yul\":6908:6914   */\n      0x00\n        /* \"#utility.yul\":6945:6946   */\n      0x02\n        /* \"#utility.yul\":6939:6943   */\n      dup3\n        /* \"#utility.yul\":6935:6947   */\n      div\n        /* \"#utility.yul\":6925:6947   */\n      swap1\n      pop\n        /* \"#utility.yul\":6992:6993   */\n      0x01\n        /* \"#utility.yul\":6986:6990   */\n      dup3\n        /* \"#utility.yul\":6982:6994   */\n      and\n        /* \"#utility.yul\":7013:7031   */\n      dup1\n        /* \"#utility.yul\":7003:7084   */\n      tag_225\n      jumpi\n        /* \"#utility.yul\":7069:7073   */\n      0x7f\n        /* \"#utility.yul\":7061:7067   */\n      dup3\n        /* \"#utility.yul\":7057:7074   */\n      and\n        /* \"#utility.yul\":7047:7074   */\n      swap2\n      pop\n        /* \"#utility.yul\":7003:7084   */\n    tag_225:\n        /* \"#utility.yul\":7131:7133   */\n      0x20\n        /* \"#utility.yul\":7123:7129   */\n      dup3\n        /* \"#utility.yul\":7120:7134   */\n      lt\n        /* \"#utility.yul\":7100:7118   */\n      dup2\n        /* \"#utility.yul\":7097:7135   */\n      sub\n        /* \"#utility.yul\":7094:7178   */\n      tag_226\n      jumpi\n        /* \"#utility.yul\":7150:7168   */\n      tag_227\n      tag_122\n      jump\t// in\n    tag_227:\n        /* \"#utility.yul\":7094:7178   */\n    tag_226:\n        /* \"#utility.yul\":6915:7184   */\n      pop\n        /* \"#utility.yul\":6864:7184   */\n      swap2\n      swap1\n      pop\n      jump\t// out\n        /* \"#utility.yul\":7190:7370   */\n    tag_123:\n        /* \"#utility.yul\":7330:7362   */\n      0x4f6e6c79206f776e65722063616e206372656174652070726f706f73616c0000\n        /* \"#utility.yul\":7326:7327   */\n      0x00\n        /* \"#utility.yul\":7318:7324   */\n      dup3\n        /* \"#utility.yul\":7314:7328   */\n      add\n        /* \"#utility.yul\":7307:7363   */\n      mstore\n        /* \"#utility.yul\":7190:7370   */\n      pop\n      jump\t// out\n        /* \"#utility.yul\":7376:7742   */\n    tag_124:\n        /* \"#utility.yul\":7518:7521   */\n      0x00\n        /* \"#utility.yul\":7539:7606   */\n      tag_230\n        /* \"#utility.yul\":7603:7605   */\n      0x1e\n        /* \"#utility.yul\":7598:7601   */\n      dup4\n        /* \"#utility.yul\":7539:7606   */\n      tag_105\n      jump\t// in\n    tag_230:\n        /* \"#utility.yul\":7532:7606   */\n      swap2\n      pop\n        /* \"#utility.yul\":7615:7708   */\n      tag_231\n        /* \"#utility.yul\":7704:7707   */\n      dup3\n        /* \"#utility.yul\":7615:7708   */\n      tag_123\n      jump\t// in\n    tag_231:\n        /* \"#utility.yul\":7733:7735   */\n      0x20\n        /* \"#utility.yul\":7728:7731   */\n      dup3\n        /* \"#utility.yul\":7724:7736   */\n      add\n        /* \"#utility.yul\":7717:7736   */\n      swap1\n      pop\n        /* \"#utility.yul\":7376:7742   */\n      swap2\n      swap1\n      pop\n      jump\t// out\n        /* \"#utility.yul\":7748:8167   */\n    tag_39:\n        /* \"#utility.yul\":7914:7918   */\n      0x00\n        /* \"#utility.yul\":7952:7954   */\n      0x20\n        /* \"#utility.yul\":7941:7950   */\n      dup3\n        /* \"#utility.yul\":7937:7955   */\n      add\n        /* \"#utility.yul\":7929:7955   */\n      swap1\n      pop\n        /* \"#utility.yul\":8001:8010   */\n      dup2\n        /* \"#utility.yul\":7995:7999   */\n      dup2\n        /* \"#utility.yul\":7991:8011   */\n      sub\n        /* \"#utility.yul\":7987:7988   */\n      0x00\n        /* \"#utility.yul\":7976:7985   */\n      dup4\n        /* \"#utility.yul\":7972:7989   */\n      add\n        /* \"#utility.yul\":7965:8012   */\n      mstore\n        /* \"#utility.yul\":8029:8160   */\n      tag_233\n        /* \"#utility.yul\":8155:8159   */\n      dup2\n        /* \"#utility.yul\":8029:8160   */\n      tag_124\n      jump\t// in\n    tag_233:\n        /* \"#utility.yul\":8021:8160   */\n      swap1\n      pop\n        /* \"#utility.yul\":7748:8167   */\n      swap2\n      swap1\n      pop\n      jump\t// out\n        /* \"#utility.yul\":8173:8353   */\n    tag_125:\n        /* \"#utility.yul\":8221:8298   */\n      0x4e487b7100000000000000000000000000000000000000000000000000000000\n        /* \"#utility.yul\":8218:8219   */\n      0x00\n        /* \"#utility.yul\":8211:8299   */\n      mstore\n        /* \"#utility.yul\":8318:8322   */\n      0x11\n        /* \"#utility.yul\":8315:8316   */\n      0x04\n        /* \"#utility.yul\":8308:8323   */\n      mstore\n        /* \"#utility.yul\":8342:8346   */\n      0x24\n        /* \"#utility.yul\":8339:8340   */\n      0x00\n        /* \"#utility.yul\":8332:8347   */\n      revert\n        /* \"#utility.yul\":8359:8550   */\n    tag_42:\n        /* \"#utility.yul\":8399:8402   */\n      0x00\n        /* \"#utility.yul\":8418:8438   */\n      tag_236\n        /* \"#utility.yul\":8436:8437   */\n      dup3\n        /* \"#utility.yul\":8418:8438   */\n      tag_101\n      jump\t// in\n    tag_236:\n        /* \"#utility.yul\":8413:8438   */\n      swap2\n      pop\n        /* \"#utility.yul\":8452:8472   */\n      tag_237\n        /* \"#utility.yul\":8470:8471   */\n      dup4\n        /* \"#utility.yul\":8452:8472   */\n      tag_101\n      jump\t// in\n    tag_237:\n        /* \"#utility.yul\":8447:8472   */\n      swap3\n      pop\n        /* \"#utility.yul\":8495:8496   */\n      dup3\n        /* \"#utility.yul\":8492:8493   */\n      dup3\n        /* \"#utility.yul\":8488:8497   */\n      add\n        /* \"#utility.yul\":8481:8497   */\n      swap1\n      pop\n        /* \"#utility.yul\":8516:8519   */\n      dup1\n        /* \"#utility.yul\":8513:8514   */\n      dup3\n        /* \"#utility.yul\":8510:8520   */\n      gt\n        /* \"#utility.yul\":8507:8543   */\n      iszero\n      tag_238\n      jumpi\n        /* \"#utility.yul\":8523:8541   */\n      tag_239\n      tag_125\n      jump\t// in\n    tag_239:\n        /* \"#utility.yul\":8507:8543   */\n    tag_238:\n        /* \"#utility.yul\":8359:8550   */\n      swap3\n      swap2\n      pop\n      pop\n      jump\t// out\n        /* \"#utility.yul\":8556:8736   */\n    tag_126:\n        /* \"#utility.yul\":8604:8681   */\n      0x4e487b7100000000000000000000000000000000000000000000000000000000\n        /* \"#utility.yul\":8601:8602   */\n      0x00\n        /* \"#utility.yul\":8594:8682   */\n      mstore\n        /* \"#utility.yul\":8701:8705   */\n      0x41\n        /* \"#utility.yul\":8698:8699   */\n      0x04\n        /* \"#utility.yul\":8691:8706   */\n      mstore\n        /* \"#utility.yul\":8725:8729   */\n      0x24\n        /* \"#utility.yul\":8722:8723   */\n      0x00\n        /* \"#utility.yul\":8715:8730   */\n      revert\n        /* \"#utility.yul\":8742:8883   */\n    tag_127:\n        /* \"#utility.yul\":8791:8795   */\n      0x00\n        /* \"#utility.yul\":8814:8817   */\n      dup2\n        /* \"#utility.yul\":8806:8817   */\n      swap1\n      pop\n        /* \"#utility.yul\":8837:8840   */\n      dup2\n        /* \"#utility.yul\":8834:8835   */\n      0x00\n        /* \"#utility.yul\":8827:8841   */\n      mstore\n        /* \"#utility.yul\":8871:8875   */\n      0x20\n        /* \"#utility.yul\":8868:8869   */\n      0x00\n        /* \"#utility.yul\":8858:8876   */\n      keccak256\n        /* \"#utility.yul\":8850:8876   */\n      swap1\n      pop\n        /* \"#utility.yul\":8742:8883   */\n      swap2\n      swap1\n      pop\n      jump\t// out\n        /* \"#utility.yul\":8889:8982   */\n    tag_128:\n        /* \"#utility.yul\":8926:8932   */\n      0x00\n        /* \"#utility.yul\":8973:8975   */\n      0x20\n        /* \"#utility.yul\":8968:8970   */\n      0x1f\n        /* \"#utility.yul\":8961:8966   */\n      dup4\n        /* \"#utility.yul\":8957:8971   */\n      add\n        /* \"#utility.yul\":8953:8976   */\n      div\n        /* \"#utility.yul\":8943:8976   */\n      swap1\n      pop\n        /* \"#utility.yul\":8889:8982   */\n      swap2\n      swap1\n      pop\n      jump\t// out\n        /* \"#utility.yul\":8988:9095   */\n    tag_129:\n        /* \"#utility.yul\":9032:9040   */\n      0x00\n        /* \"#utility.yul\":9082:9087   */\n      dup3\n        /* \"#utility.yul\":9076:9080   */\n      dup3\n        /* \"#utility.yul\":9072:9088   */\n      shl\n        /* \"#utility.yul\":9051:9088   */\n      swap1\n      pop\n        /* \"#utility.yul\":8988:9095   */\n      swap3\n      swap2\n      pop\n      pop\n      jump\t// out\n        /* \"#utility.yul\":9101:9494   */\n    tag_130:\n        /* \"#utility.yul\":9170:9176   */\n      0x00\n        /* \"#utility.yul\":9220:9221   */\n      0x08\n        /* \"#utility.yul\":9208:9218   */\n      dup4\n        /* \"#utility.yul\":9204:9222   */\n      mul\n        /* \"#utility.yul\":9243:9340   */\n      tag_245\n        /* \"#utility.yul\":9273:9339   */\n      0xffffffffffffffffffffffffffffffffffffffffffffffffffffffffffffffff\n        /* \"#utility.yul\":9262:9271   */\n      dup3\n        /* \"#utility.yul\":9243:9340   */\n      tag_129\n      jump\t// in\n    tag_245:\n        /* \"#utility.yul\":9361:9400   */\n      tag_246\n        /* \"#utility.yul\":9391:9399   */\n      dup7\n        /* \"#utility.yul\":9380:9389   */\n      dup4\n        /* \"#utility.yul\":9361:9400   */\n      tag_129\n      jump\t// in\n    tag_246:\n        /* \"#utility.yul\":9349:9400   */\n      swap6\n      pop\n        /* \"#utility.yul\":9433:9437   */\n      dup1\n        /* \"#utility.yul\":9429:9438   */\n      not\n        /* \"#utility.yul\":9422:9427   */\n      dup5\n        /* \"#utility.yul\":9418:9439   */\n      and\n        /* \"#utility.yul\":9409:9439   */\n      swap4\n      pop\n        /* \"#utility.yul\":9482:9486   */\n      dup1\n        /* \"#utility.yul\":9472:9480   */\n      dup7\n        /* \"#utility.yul\":9468:9487   */\n      and\n        /* \"#utility.yul\":9461:9466   */\n      dup5\n        /* \"#utility.yul\":9458:9488   */\n      or\n        /* \"#utility.yul\":9448:9488   */\n      swap3\n      pop\n        /* \"#utility.yul\":9177:9494   */\n      pop\n      pop\n        /* \"#utility.yul\":9101:9494   */\n      swap4\n      swap3\n      pop\n      pop\n      pop\n      jump\t// out\n        /* \"#utility.yul\":9500:9560   */\n    tag_131:\n        /* \"#utility.yul\":9528:9531   */\n      0x00\n        /* \"#utility.yul\":9549:9554   */\n      dup2\n        /* \"#utility.yul\":9542:9554   */\n      swap1\n      pop\n        /* \"#utility.yul\":9500:9560   */\n      swap2\n      swap1\n      pop\n      jump\t// out\n        /* \"#utility.yul\":9566:9708   */\n    tag_132:\n        /* \"#utility.yul\":9616:9625   */\n      0x00\n        /* \"#utility.yul\":9649:9702   */\n      tag_249\n        /* \"#utility.yul\":9667:9701   */\n      tag_250\n        /* \"#utility.yul\":9676:9700   */\n      tag_251\n        /* \"#utility.yul\":9694:9699   */\n      dup5\n        /* \"#utility.yul\":9676:9700   */\n      tag_101\n      jump\t// in\n    tag_251:\n        /* \"#utility.yul\":9667:9701   */\n      tag_131\n      jump\t// in\n    tag_250:\n        /* \"#utility.yul\":9649:9702   */\n      tag_101\n      jump\t// in\n    tag_249:\n        /* \"#utility.yul\":9636:9702   */\n      swap1\n      pop\n        /* \"#utility.yul\":9566:9708   */\n      swap2\n      swap1\n      pop\n      jump\t// out\n        /* \"#utility.yul\":9714:9789   */\n    tag_133:\n        /* \"#utility.yul\":9757:9760   */\n      0x00\n        /* \"#utility.yul\":9778:9783   */\n      dup2\n        /* \"#utility.yul\":9771:9783   */\n      swap1\n      pop\n        /* \"#utility.yul\":9714:9789   */\n      swap2\n      swap1\n      pop\n      jump\t// out\n        /* \"#utility.yul\":9795:10064   */\n    tag_134:\n        /* \"#utility.yul\":9905:9944   */\n      tag_254\n        /* \"#utility.yul\":9936:9943   */\n      dup4\n        /* \"#utility.yul\":9905:9944   */\n      tag_132\n      jump\t// in\n    tag_254:\n        /* \"#utility.yul\":9966:10057   */\n      tag_255\n        /* \"#utility.yul\":10015:10056   */\n      tag_256\n        /* \"#utility.yul\":10039:10055   */\n      dup3\n        /* \"#utility.yul\":10015:10056   */\n      tag_133\n      jump\t// in\n    tag_256:\n        /* \"#utility.yul\":10007:10013   */\n      dup5\n        /* \"#utility.yul\":10000:10004   */\n      dup5\n        /* \"#utility.yul\":9994:10005   */\n      sload\n        /* \"#utility.yul\":9966:10057   */\n      tag_130\n      jump\t// in\n    tag_255:\n        /* \"#utility.yul\":9960:9964   */\n      dup3\n        /* \"#utility.yul\":9953:10058   */\n      sstore\n        /* \"#utility.yul\":9871:10064   */\n      pop\n        /* \"#utility.yul\":9795:10064   */\n      pop\n      pop\n      pop\n      jump\t// out\n        /* \"#utility.yul\":10070:10143   */\n    tag_135:\n        /* \"#utility.yul\":10115:10118   */\n      0x00\n        /* \"#utility.yul\":10136:10137   */\n      0x00\n        /* \"#utility.yul\":10129:10137   */\n      swap1\n      pop\n        /* \"#utility.yul\":10070:10143   */\n      swap1\n      jump\t// out\n        /* \"#utility.yul\":10149:10338   */\n    tag_136:\n        /* \"#utility.yul\":10226:10258   */\n      tag_259\n      tag_135\n      jump\t// in\n    tag_259:\n        /* \"#utility.yul\":10267:10332   */\n      tag_260\n        /* \"#utility.yul\":10325:10331   */\n      dup2\n        /* \"#utility.yul\":10317:10323   */\n      dup5\n        /* \"#utility.yul\":10311:10315   */\n      dup5\n        /* \"#utility.yul\":10267:10332   */\n      tag_134\n      jump\t// in\n    tag_260:\n        /* \"#utility.yul\":10202:10338   */\n      pop\n        /* \"#utility.yul\":10149:10338   */\n      pop\n      pop\n      jump\t// out\n        /* \"#utility.yul\":10344:10530   */\n    tag_137:\n        /* \"#utility.yul\":10404:10524   */\n    tag_262:\n        /* \"#utility.yul\":10421:10424   */\n      dup2\n        /* \"#utility.yul\":10414:10419   */\n      dup2\n        /* \"#utility.yul\":10411:10425   */\n      lt\n        /* \"#utility.yul\":10404:10524   */\n      iszero\n      tag_264\n      jumpi\n        /* \"#utility.yul\":10475:10514   */\n      tag_265\n        /* \"#utility.yul\":10512:10513   */\n      0x00\n        /* \"#utility.yul\":10505:10510   */\n      dup3\n        /* \"#utility.yul\":10475:10514   */\n      tag_136\n      jump\t// in\n    tag_265:\n        /* \"#utility.yul\":10448:10449   */\n      0x01\n        /* \"#utility.yul\":10441:10446   */\n      dup2\n        /* \"#utility.yul\":10437:10450   */\n      add\n        /* \"#utility.yul\":10428:10450   */\n      swap1\n      pop\n        /* \"#utility.yul\":10404:10524   */\n      jump(tag_262)\n    tag_264:\n        /* \"#utility.yul\":10344:10530   */\n      pop\n      pop\n      jump\t// out\n        /* \"#utility.yul\":10536:11079   */\n    tag_138:\n        /* \"#utility.yul\":10637:10639   */\n      0x1f\n        /* \"#utility.yul\":10632:10635   */\n      dup3\n        /* \"#utility.yul\":10629:10640   */\n      gt\n        /* \"#utility.yul\":10626:11072   */\n      iszero\n      tag_267\n      jumpi\n        /* \"#utility.yul\":10671:10709   */\n      tag_268\n        /* \"#utility.yul\":10703:10708   */\n      dup2\n        /* \"#utility.yul\":10671:10709   */\n      tag_127\n      jump\t// in\n    tag_268:\n        /* \"#utility.yul\":10755:10784   */\n      tag_269\n        /* \"#utility.yul\":10773:10783   */\n      dup5\n        /* \"#utility.yul\":10755:10784   */\n      tag_128\n      jump\t// in\n    tag_269:\n        /* \"#utility.yul\":10745:10753   */\n      dup2\n        /* \"#utility.yul\":10741:10785   */\n      add\n        /* \"#utility.yul\":10938:10940   */\n      0x20\n        /* \"#utility.yul\":10926:10936   */\n      dup6\n        /* \"#utility.yul\":10923:10941   */\n      lt\n        /* \"#utility.yul\":10920:10969   */\n      iszero\n      tag_270\n      jumpi\n        /* \"#utility.yul\":10959:10967   */\n      dup2\n        /* \"#utility.yul\":10944:10967   */\n      swap1\n      pop\n        /* \"#utility.yul\":10920:10969   */\n    tag_270:\n        /* \"#utility.yul\":10982:11062   */\n      tag_271\n        /* \"#utility.yul\":11038:11060   */\n      tag_272\n        /* \"#utility.yul\":11056:11059   */\n      dup6\n        /* \"#utility.yul\":11038:11060   */\n      tag_128\n      jump\t// in\n    tag_272:\n        /* \"#utility.yul\":11028:11036   */\n      dup4\n        /* \"#utility.yul\":11024:11061   */\n      add\n        /* \"#utility.yul\":11011:11022   */\n      dup3\n        /* \"#utility.yul\":10982:11062   */\n      tag_137\n      jump\t// in\n    tag_271:\n        /* \"#utility.yul\":10641:11072   */\n      pop\n      pop\n        /* \"#utility.yul\":10626:11072   */\n    tag_267:\n        /* \"#utility.yul\":10536:11079   */\n      pop\n      pop\n      pop\n      jump\t// out\n        /* \"#utility.yul\":11085:11202   */\n    tag_139:\n        /* \"#utility.yul\":11139:11147   */\n      0x00\n        /* \"#utility.yul\":11189:11194   */\n      dup3\n        /* \"#utility.yul\":11183:11187   */\n      dup3\n        /* \"#utility.yul\":11179:11195   */\n      shr\n        /* \"#utility.yul\":11158:11195   */\n      swap1\n      pop\n        /* \"#utility.yul\":11085:11202   */\n      swap3\n      swap2\n      pop\n      pop\n      jump\t// out\n        /* \"#utility.yul\":11208:11377   */\n    tag_140:\n        /* \"#utility.yul\":11252:11258   */\n      0x00\n        /* \"#utility.yul\":11285:11336   */\n      tag_275\n        /* \"#utility.yul\":11333:11334   */\n      0x00\n        /* \"#utility.yul\":11329:11335   */\n      not\n        /* \"#utility.yul\":11321:11326   */\n      dup5\n        /* \"#utility.yul\":11318:11319   */\n      0x08\n        /* \"#utility.yul\":11314:11327   */\n      mul\n        /* \"#utility.yul\":11285:11336   */\n      tag_139\n      jump\t// in\n    tag_275:\n        /* \"#utility.yul\":11281:11337   */\n      not\n        /* \"#utility.yul\":11366:11370   */\n      dup1\n        /* \"#utility.yul\":11360:11364   */\n      dup4\n        /* \"#utility.yul\":11356:11371   */\n      and\n        /* \"#utility.yul\":11346:11371   */\n      swap2\n      pop\n        /* \"#utility.yul\":11259:11377   */\n      pop\n        /* \"#utility.yul\":11208:11377   */\n      swap3\n      swap2\n      pop\n      pop\n      jump\t// out\n        /* \"#utility.yul\":11382:11677   */\n    tag_141:\n        /* \"#utility.yul\":11458:11462   */\n      0x00\n        /* \"#utility.yul\":11604:11633   */\n      tag_277\n        /* \"#utility.yul\":11629:11632   */\n      dup4\n        /* \"#utility.yul\":11623:11627   */\n      dup4\n        /* \"#utility.yul\":11604:11633   */\n      tag_140\n      jump\t// in\n    tag_277:\n        /* \"#utility.yul\":11596:11633   */\n      swap2\n      pop\n        /* \"#utility.yul\":11666:11669   */\n      dup3\n        /* \"#utility.yul\":11663:11664   */\n      0x02\n        /* \"#utility.yul\":11659:11670   */\n      mul\n        /* \"#utility.yul\":11653:11657   */\n      dup3\n        /* \"#utility.yul\":11650:11671   */\n      or\n        /* \"#utility.yul\":11642:11671   */\n      swap1\n      pop\n        /* \"#utility.yul\":11382:11677   */\n      swap3\n      swap2\n      pop\n      pop\n      jump\t// out\n        /* \"#utility.yul\":11682:13077   */\n    tag_44:\n        /* \"#utility.yul\":11799:11836   */\n      tag_279\n        /* \"#utility.yul\":11832:11835   */\n      dup3\n        /* \"#utility.yul\":11799:11836   */\n      tag_104\n      jump\t// in\n    tag_279:\n        /* \"#utility.yul\":11901:11919   */\n      0xffffffffffffffff\n        /* \"#utility.yul\":11893:11899   */\n      dup2\n        /* \"#utility.yul\":11890:11920   */\n      gt\n        /* \"#utility.yul\":11887:11943   */\n      iszero\n      tag_280\n      jumpi\n        /* \"#utility.yul\":11923:11941   */\n      tag_281\n      tag_126\n      jump\t// in\n    tag_281:\n        /* \"#utility.yul\":11887:11943   */\n    tag_280:\n        /* \"#utility.yul\":11967:12005   */\n      tag_282\n        /* \"#utility.yul\":11999:12003   */\n      dup3\n        /* \"#utility.yul\":11993:12004   */\n      sload\n        /* \"#utility.yul\":11967:12005   */\n      tag_26\n      jump\t// in\n    tag_282:\n        /* \"#utility.yul\":12052:12119   */\n      tag_283\n        /* \"#utility.yul\":12112:12118   */\n      dup3\n        /* \"#utility.yul\":12104:12110   */\n      dup3\n        /* \"#utility.yul\":12098:12102   */\n      dup6\n        /* \"#utility.yul\":12052:12119   */\n      tag_138\n      jump\t// in\n    tag_283:\n        /* \"#utility.yul\":12146:12147   */\n      0x00\n        /* \"#utility.yul\":12170:12174   */\n      0x20\n        /* \"#utility.yul\":12157:12174   */\n      swap1\n      pop\n        /* \"#utility.yul\":12202:12204   */\n      0x1f\n        /* \"#utility.yul\":12194:12200   */\n      dup4\n        /* \"#utility.yul\":12191:12205   */\n      gt\n        /* \"#utility.yul\":12219:12220   */\n      0x01\n        /* \"#utility.yul\":12214:12832   */\n      dup2\n      eq\n      tag_285\n      jumpi\n        /* \"#utility.yul\":12876:12877   */\n      0x00\n        /* \"#utility.yul\":12893:12899   */\n      dup5\n        /* \"#utility.yul\":12890:12967   */\n      iszero\n      tag_286\n      jumpi\n        /* \"#utility.yul\":12942:12951   */\n      dup3\n        /* \"#utility.yul\":12937:12940   */\n      dup8\n        /* \"#utility.yul\":12933:12952   */\n      add\n        /* \"#utility.yul\":12927:12953   */\n      mload\n        /* \"#utility.yul\":12918:12953   */\n      swap1\n      pop\n        /* \"#utility.yul\":12890:12967   */\n    tag_286:\n        /* \"#utility.yul\":12993:13060   */\n      tag_287\n        /* \"#utility.yul\":13053:13059   */\n      dup6\n        /* \"#utility.yul\":13046:13051   */\n      dup3\n        /* \"#utility.yul\":12993:13060   */\n      tag_141\n      jump\t// in\n    tag_287:\n        /* \"#utility.yul\":12987:12991   */\n      dup7\n        /* \"#utility.yul\":12980:13061   */\n      sstore\n        /* \"#utility.yul\":12849:13071   */\n      pop\n        /* \"#utility.yul\":12184:13071   */\n      jump(tag_284)\n        /* \"#utility.yul\":12214:12832   */\n    tag_285:\n        /* \"#utility.yul\":12266:12270   */\n      0x1f\n        /* \"#utility.yul\":12262:12271   */\n      not\n        /* \"#utility.yul\":12254:12260   */\n      dup5\n        /* \"#utility.yul\":12250:12272   */\n      and\n        /* \"#utility.yul\":12300:12337   */\n      tag_288\n        /* \"#utility.yul\":12332:12336   */\n      dup7\n        /* \"#utility.yul\":12300:12337   */\n      tag_127\n      jump\t// in\n    tag_288:\n        /* \"#utility.yul\":12359:12360   */\n      0x00\n        /* \"#utility.yul\":12373:12581   */\n    tag_289:\n        /* \"#utility.yul\":12387:12394   */\n      dup3\n        /* \"#utility.yul\":12384:12385   */\n      dup2\n        /* \"#utility.yul\":12381:12395   */\n      lt\n        /* \"#utility.yul\":12373:12581   */\n      iszero\n      tag_291\n      jumpi\n        /* \"#utility.yul\":12466:12475   */\n      dup5\n        /* \"#utility.yul\":12461:12464   */\n      dup10\n        /* \"#utility.yul\":12457:12476   */\n      add\n        /* \"#utility.yul\":12451:12477   */\n      mload\n        /* \"#utility.yul\":12443:12449   */\n      dup3\n        /* \"#utility.yul\":12436:12478   */\n      sstore\n        /* \"#utility.yul\":12517:12518   */\n      0x01\n        /* \"#utility.yul\":12509:12515   */\n      dup3\n        /* \"#utility.yul\":12505:12519   */\n      add\n        /* \"#utility.yul\":12495:12519   */\n      swap2\n      pop\n        /* \"#utility.yul\":12564:12566   */\n      0x20\n        /* \"#utility.yul\":12553:12562   */\n      dup6\n        /* \"#utility.yul\":12549:12567   */\n      add\n        /* \"#utility.yul\":12536:12567   */\n      swap5\n      pop\n        /* \"#utility.yul\":12410:12414   */\n      0x20\n        /* \"#utility.yul\":12407:12408   */\n      dup2\n        /* \"#utility.yul\":12403:12415   */\n      add\n        /* \"#utility.yul\":12398:12415   */\n      swap1\n      pop\n        /* \"#utility.yul\":12373:12581   */\n      jump(tag_289)\n    tag_291:\n        /* \"#utility.yul\":12609:12615   */\n      dup7\n        /* \"#utility.yul\":12600:12607   */\n      dup4\n        /* \"#utility.yul\":12597:12616   */\n      lt\n        /* \"#utility.yul\":12594:12773   */\n      iszero\n      tag_292\n      jumpi\n        /* \"#utility.yul\":12667:12676   */\n      dup5\n        /* \"#utility.yul\":12662:12665   */\n      dup10\n        /* \"#utility.yul\":12658:12677   */\n      add\n        /* \"#utility.yul\":12652:12678   */\n      mload\n        /* \"#utility.yul\":12710:12758   */\n      tag_293\n        /* \"#utility.yul\":12752:12756   */\n      0x1f\n        /* \"#utility.yul\":12744:12750   */\n      dup10\n        /* \"#utility.yul\":12740:12757   */\n      and\n        /* \"#utility.yul\":12729:12738   */\n      dup3\n        /* \"#utility.yul\":12710:12758   */\n      tag_140\n      jump\t// in\n    tag_293:\n        /* \"#utility.yul\":12702:12708   */\n      dup4\n        /* \"#utility.yul\":12695:12759   */\n      sstore\n        /* \"#utility.yul\":12617:12773   */\n      pop\n        /* \"#utility.yul\":12594:12773   */\n    tag_292:\n        /* \"#utility.yul\":12819:12820   */\n      0x01\n        /* \"#utility.yul\":12815:12816   */\n      0x02\n        /* \"#utility.yul\":12807:12813   */\n      dup9\n        /* \"#utility.yul\":12803:12817   */\n      mul\n        /* \"#utility.yul\":12799:12821   */\n      add\n        /* \"#utility.yul\":12793:12797   */\n      dup9\n        /* \"#utility.yul\":12786:12822   */\n      sstore\n        /* \"#utility.yul\":12221:12832   */\n      pop\n      pop\n      pop\n        /* \"#utility.yul\":12184:13071   */\n    tag_284:\n      pop\n        /* \"#utility.yul\":11774:13077   */\n      pop\n      pop\n      pop\n        /* \"#utility.yul\":11682:13077   */\n      pop\n      pop\n      jump\t// out\n        /* \"#utility.yul\":13083:13259   */\n    tag_142:\n        /* \"#utility.yul\":13223:13251   */\n      0x5468652070726f706f73616c206973206e6f7420616374697665000000000000\n        /* \"#utility.yul\":13219:13220   */\n      0x00\n        /* \"#utility.yul\":13211:13217   */\n      dup3\n        /* \"#utility.yul\":13207:13221   */\n      add\n        /* \"#utility.yul\":13200:13252   */\n      mstore\n        /* \"#utility.yul\":13083:13259   */\n      pop\n      jump\t// out\n        /* \"#utility.yul\":13265:13631   */\n    tag_143:\n        /* \"#utility.yul\":13407:13410   */\n      0x00\n        /* \"#utility.yul\":13428:13495   */\n      tag_296\n        /* \"#utility.yul\":13492:13494   */\n      0x1a\n        /* \"#utility.yul\":13487:13490   */\n      dup4\n        /* \"#utility.yul\":13428:13495   */\n      tag_105\n      jump\t// in\n    tag_296:\n        /* \"#utility.yul\":13421:13495   */\n      swap2\n      pop\n        /* \"#utility.yul\":13504:13597   */\n      tag_297\n        /* \"#utility.yul\":13593:13596   */\n      dup3\n        /* \"#utility.yul\":13504:13597   */\n      tag_142\n      jump\t// in\n    tag_297:\n        /* \"#utility.yul\":13622:13624   */\n      0x20\n        /* \"#utility.yul\":13617:13620   */\n      dup3\n        /* \"#utility.yul\":13613:13625   */\n      add\n        /* \"#utility.yul\":13606:13625   */\n      swap1\n      pop\n        /* \"#utility.yul\":13265:13631   */\n      swap2\n      swap1\n      pop\n      jump\t// out\n        /* \"#utility.yul\":13637:14056   */\n    tag_51:\n        /* \"#utility.yul\":13803:13807   */\n      0x00\n        /* \"#utility.yul\":13841:13843   */\n      0x20\n        /* \"#utility.yul\":13830:13839   */\n      dup3\n        /* \"#utility.yul\":13826:13844   */\n      add\n        /* \"#utility.yul\":13818:13844   */\n      swap1\n      pop\n        /* \"#utility.yul\":13890:13899   */\n      dup2\n        /* \"#utility.yul\":13884:13888   */\n      dup2\n        /* \"#utility.yul\":13880:13900   */\n      sub\n        /* \"#utility.yul\":13876:13877   */\n      0x00\n        /* \"#utility.yul\":13865:13874   */\n      dup4\n        /* \"#utility.yul\":13861:13878   */\n      add\n        /* \"#utility.yul\":13854:13901   */\n      mstore\n        /* \"#utility.yul\":13918:14049   */\n      tag_299\n        /* \"#utility.yul\":14044:14048   */\n      dup2\n        /* \"#utility.yul\":13918:14049   */\n      tag_143\n      jump\t// in\n    tag_299:\n        /* \"#utility.yul\":13910:14049   */\n      swap1\n      pop\n        /* \"#utility.yul\":13637:14056   */\n      swap2\n      swap1\n      pop\n      jump\t// out\n        /* \"#utility.yul\":14062:14237   */\n    tag_144:\n        /* \"#utility.yul\":14202:14229   */\n      0x416464726573732068617320616c726561647920766f74656400000000000000\n        /* \"#utility.yul\":14198:14199   */\n      0x00\n        /* \"#utility.yul\":14190:14196   */\n      dup3\n        /* \"#utility.yul\":14186:14200   */\n      add\n        /* \"#utility.yul\":14179:14230   */\n      mstore\n        /* \"#utility.yul\":14062:14237   */\n      pop\n      jump\t// out\n        /* \"#utility.yul\":14243:14609   */\n    tag_145:\n        /* \"#utility.yul\":14385:14388   */\n      0x00\n        /* \"#utility.yul\":14406:14473   */\n      tag_302\n        /* \"#utility.yul\":14470:14472   */\n      0x19\n        /* \"#utility.yul\":14465:14468   */\n      dup4\n        /* \"#utility.yul\":14406:14473   */\n      tag_105\n      jump\t// in\n    tag_302:\n        /* \"#utility.yul\":14399:14473   */\n      swap2\n      pop\n        /* \"#utility.yul\":14482:14575   */\n      tag_303\n        /* \"#utility.yul\":14571:14574   */\n      dup3\n        /* \"#utility.yul\":14482:14575   */\n      tag_144\n      jump\t// in\n    tag_303:\n        /* \"#utility.yul\":14600:14602   */\n      0x20\n        /* \"#utility.yul\":14595:14598   */\n      dup3\n        /* \"#utility.yul\":14591:14603   */\n      add\n        /* \"#utility.yul\":14584:14603   */\n      swap1\n      pop\n        /* \"#utility.yul\":14243:14609   */\n      swap2\n      swap1\n      pop\n      jump\t// out\n        /* \"#utility.yul\":14615:15034   */\n    tag_55:\n        /* \"#utility.yul\":14781:14785   */\n      0x00\n        /* \"#utility.yul\":14819:14821   */\n      0x20\n        /* \"#utility.yul\":14808:14817   */\n      dup3\n        /* \"#utility.yul\":14804:14822   */\n      add\n        /* \"#utility.yul\":14796:14822   */\n      swap1\n      pop\n        /* \"#utility.yul\":14868:14877   */\n      dup2\n        /* \"#utility.yul\":14862:14866   */\n      dup2\n        /* \"#utility.yul\":14858:14878   */\n      sub\n        /* \"#utility.yul\":14854:14855   */\n      0x00\n        /* \"#utility.yul\":14843:14852   */\n      dup4\n        /* \"#utility.yul\":14839:14856   */\n      add\n        /* \"#utility.yul\":14832:14879   */\n      mstore\n        /* \"#utility.yul\":14896:15027   */\n      tag_305\n        /* \"#utility.yul\":15022:15026   */\n      dup2\n        /* \"#utility.yul\":14896:15027   */\n      tag_145\n      jump\t// in\n    tag_305:\n        /* \"#utility.yul\":14888:15027   */\n      swap1\n      pop\n        /* \"#utility.yul\":14615:15034   */\n      swap2\n      swap1\n      pop\n      jump\t// out\n        /* \"#utility.yul\":15040:15209   */\n    tag_146:\n        /* \"#utility.yul\":15180:15201   */\n      0x496e76616c696420766f74652063686f69636500000000000000000000000000\n        /* \"#utility.yul\":15176:15177   */\n      0x00\n        /* \"#utility.yul\":15168:15174   */\n      dup3\n        /* \"#utility.yul\":15164:15178   */\n      add\n        /* \"#utility.yul\":15157:15202   */\n      mstore\n        /* \"#utility.yul\":15040:15209   */\n      pop\n      jump\t// out\n        /* \"#utility.yul\":15215:15581   */\n    tag_147:\n        /* \"#utility.yul\":15357:15360   */\n      0x00\n        /* \"#utility.yul\":15378:15445   */\n      tag_308\n        /* \"#utility.yul\":15442:15444   */\n      0x13\n        /* \"#utility.yul\":15437:15440   */\n      dup4\n        /* \"#utility.yul\":15378:15445   */\n      tag_105\n      jump\t// in\n    tag_308:\n        /* \"#utility.yul\":15371:15445   */\n      swap2\n      pop\n        /* \"#utility.yul\":15454:15547   */\n      tag_309\n        /* \"#utility.yul\":15543:15546   */\n      dup3\n        /* \"#utility.yul\":15454:15547   */\n      tag_146\n      jump\t// in\n    tag_309:\n        /* \"#utility.yul\":15572:15574   */\n      0x20\n        /* \"#utility.yul\":15567:15570   */\n      dup3\n        /* \"#utility.yul\":15563:15575   */\n      add\n        /* \"#utility.yul\":15556:15575   */\n      swap1\n      pop\n        /* \"#utility.yul\":15215:15581   */\n      swap2\n      swap1\n      pop\n      jump\t// out\n        /* \"#utility.yul\":15587:16006   */\n    tag_61:\n        /* \"#utility.yul\":15753:15757   */\n      0x00\n        /* \"#utility.yul\":15791:15793   */\n      0x20\n        /* \"#utility.yul\":15780:15789   */\n      dup3\n        /* \"#utility.yul\":15776:15794   */\n      add\n        /* \"#utility.yul\":15768:15794   */\n      swap1\n      pop\n        /* \"#utility.yul\":15840:15849   */\n      dup2\n        /* \"#utility.yul\":15834:15838   */\n      dup2\n        /* \"#utility.yul\":15830:15850   */\n      sub\n        /* \"#utility.yul\":15826:15827   */\n      0x00\n        /* \"#utility.yul\":15815:15824   */\n      dup4\n        /* \"#utility.yul\":15811:15828   */\n      add\n        /* \"#utility.yul\":15804:15851   */\n      mstore\n        /* \"#utility.yul\":15868:15999   */\n      tag_311\n        /* \"#utility.yul\":15994:15998   */\n      dup2\n        /* \"#utility.yul\":15868:15999   */\n      tag_147\n      jump\t// in\n    tag_311:\n        /* \"#utility.yul\":15860:15999   */\n      swap1\n      pop\n        /* \"#utility.yul\":15587:16006   */\n      swap2\n      swap1\n      pop\n      jump\t// out\n        /* \"#utility.yul\":16012:16192   */\n    tag_81:\n        /* \"#utility.yul\":16060:16137   */\n      0x4e487b7100000000000000000000000000000000000000000000000000000000\n        /* \"#utility.yul\":16057:16058   */\n      0x00\n        /* \"#utility.yul\":16050:16138   */\n      mstore\n        /* \"#utility.yul\":16157:16161   */\n      0x32\n        /* \"#utility.yul\":16154:16155   */\n      0x04\n        /* \"#utility.yul\":16147:16162   */\n      mstore\n        /* \"#utility.yul\":16181:16185   */\n      0x24\n        /* \"#utility.yul\":16178:16179   */\n      0x00\n        /* \"#utility.yul\":16171:16186   */\n      revert\n        /* \"#utility.yul\":16198:16378   */\n    tag_148:\n        /* \"#utility.yul\":16246:16323   */\n      0x4e487b7100000000000000000000000000000000000000000000000000000000\n        /* \"#utility.yul\":16243:16244   */\n      0x00\n        /* \"#utility.yul\":16236:16324   */\n      mstore\n        /* \"#utility.yul\":16343:16347   */\n      0x12\n        /* \"#utility.yul\":16340:16341   */\n      0x04\n        /* \"#utility.yul\":16333:16348   */\n      mstore\n        /* \"#utility.yul\":16367:16371   */\n      0x24\n        /* \"#utility.yul\":16364:16365   */\n      0x00\n        /* \"#utility.yul\":16357:16372   */\n      revert\n        /* \"#utility.yul\":16384:16560   */\n    tag_87:\n        /* \"#utility.yul\":16416:16417   */\n      0x00\n        /* \"#utility.yul\":16433:16453   */\n      tag_315\n        /* \"#utility.yul\":16451:16452   */\n      dup3\n        /* \"#utility.yul\":16433:16453   */\n      tag_101\n      jump\t// in\n    tag_315:\n        /* \"#utility.yul\":16428:16453   */\n      swap2\n      pop\n        /* \"#utility.yul\":16467:16487   */\n      tag_316\n        /* \"#utility.yul\":16485:16486   */\n      dup4\n        /* \"#utility.yul\":16467:16487   */\n      tag_101\n      jump\t// in\n    tag_316:\n        /* \"#utility.yul\":16462:16487   */\n      swap3\n      pop\n        /* \"#utility.yul\":16506:16507   */\n      dup3\n        /* \"#utility.yul\":16496:16531   */\n      tag_317\n      jumpi\n        /* \"#utility.yul\":16511:16529   */\n      tag_318\n      tag_148\n      jump\t// in\n    tag_318:\n        /* \"#utility.yul\":16496:16531   */\n    tag_317:\n        /* \"#utility.yul\":16552:16553   */\n      dup3\n        /* \"#utility.yul\":16549:16550   */\n      dup3\n        /* \"#utility.yul\":16545:16554   */\n      mod\n        /* \"#utility.yul\":16540:16554   */\n      swap1\n      pop\n        /* \"#utility.yul\":16384:16560   */\n      swap3\n      swap2\n      pop\n      pop\n      jump\t// out\n        /* \"#utility.yul\":16566:16751   */\n    tag_91:\n        /* \"#utility.yul\":16606:16607   */\n      0x00\n        /* \"#utility.yul\":16623:16643   */\n      tag_320\n        /* \"#utility.yul\":16641:16642   */\n      dup3\n        /* \"#utility.yul\":16623:16643   */\n      tag_101\n      jump\t// in\n    tag_320:\n        /* \"#utility.yul\":16618:16643   */\n      swap2\n      pop\n        /* \"#utility.yul\":16657:16677   */\n      tag_321\n        /* \"#utility.yul\":16675:16676   */\n      dup4\n        /* \"#utility.yul\":16657:16677   */\n      tag_101\n      jump\t// in\n    tag_321:\n        /* \"#utility.yul\":16652:16677   */\n      swap3\n      pop\n        /* \"#utility.yul\":16696:16697   */\n      dup3\n        /* \"#utility.yul\":16686:16721   */\n      tag_322\n      jumpi\n        /* \"#utility.yul\":16701:16719   */\n      tag_323\n      tag_148\n      jump\t// in\n    tag_323:\n        /* \"#utility.yul\":16686:16721   */\n    tag_322:\n        /* \"#utility.yul\":16743:16744   */\n      dup3\n        /* \"#utility.yul\":16740:16741   */\n      dup3\n        /* \"#utility.yul\":16736:16745   */\n      div\n        /* \"#utility.yul\":16731:16745   */\n      swap1\n      pop\n        /* \"#utility.yul\":16566:16751   */\n      swap3\n      swap2\n      pop\n      pop\n      jump\t// out\n\n    auxdata: 0xa2646970667358221220be27b5394bd492cae4ec7c59dea8858b62aa4d4470598439344c164c04ba0f3264736f6c634300081e0033\n}\n",
				"bytecode": {
					"linkReferences": {},
					"object": "6080604052348015600e575f5ffd5b50335f5f6101000a81548173ffffffffffffffffffffffffffffffffffffffff021916908373ffffffffffffffffffffffffffffffffffffffff1602179055506111cb8061005b5f395ff3fe608060405234801561000f575f5ffd5b506004361061004a575f3560e01c8063350f0d8c1461004e5780633ca6d100146100855780638da5cb5b146100a1578063b3f98adc146100bf575b5f5ffd5b610068600480360381019061006391906108e9565b6100db565b60405161007c9897969594939291906109ad565b60405180910390f35b61009f600480360381019061009a9190610a98565b610244565b005b6100a9610465565b6040516100b69190610b68565b60405180910390f35b6100d960048036038101906100d49190610bb7565b610489565b005b6002602052805f5260405f205f91509050805f0180546100fa90610c0f565b80601f016020809104026020016040519081016040528092919081815260200182805461012690610c0f565b80156101715780601f1061014857610100808354040283529160200191610171565b820191905f5260205f20905b81548152906001019060200180831161015457829003601f168201915b50505050509080600101805461018690610c0f565b80601f01602080910402602001604051908101604052809291908181526020018280546101b290610c0f565b80156101fd5780601f106101d4576101008083540402835291602001916101fd565b820191905f5260205f20905b8154815290600101906020018083116101e057829003601f168201915b505050505090806002015490806003015490806004015490806005015490806006015f9054906101000a900460ff16908060060160019054906101000a900460ff16905088565b5f5f9054906101000a900473ffffffffffffffffffffffffffffffffffffffff1673ffffffffffffffffffffffffffffffffffffffff163373ffffffffffffffffffffffffffffffffffffffff16146102d2576040517f08c379a00000000000000000000000000000000000000000000000000000000081526004016102c990610c89565b60405180910390fd5b6001805f8282546102e39190610cd4565b9250508190555060405180610100016040528086868080601f0160208091040260200160405190810160405280939291908181526020018383808284375f81840152601f19601f82011690508083019250505050505050815260200184848080601f0160208091040260200160405190810160405280939291908181526020018383808284375f81840152601f19601f8201169050808301925050505050505081526020015f81526020015f81526020015f81526020018281526020015f151581526020016001151581525060025f60015481526020019081526020015f205f820151815f0190816103d59190610ed4565b5060208201518160010190816103eb9190610ed4565b5060408201518160020155606082015181600301556080820151816004015560a0820151816005015560c0820151816006015f6101000a81548160ff02191690831515021790555060e08201518160060160016101000a81548160ff02191690831515021790555090505061045e61073e565b5050505050565b5f5f9054906101000a900473ffffffffffffffffffffffffffffffffffffffff1681565b6001151560025f60015481526020019081526020015f2060060160019054906101000a900460ff161515146104f3576040517f08c379a00000000000000000000000000000000000000000000000000000000081526004016104ea90610fed565b60405180910390fd5b3360035f8273ffffffffffffffffffffffffffffffffffffffff1673ffffffffffffffffffffffffffffffffffffffff1681526020019081526020015f205f9054906101000a900460ff161561057e576040517f08c379a000000000000000000000000000000000000000000000000000000000815260040161057590611055565b60405180910390fd5b5f60025f60015481526020019081526020015f2090505f8360ff1614806105a8575060018360ff16145b806105b6575060028360ff16145b6105f5576040517f08c379a00000000000000000000000000000000000000000000000000000000081526004016105ec906110bd565b60405180910390fd5b60018360ff1603610620576001816002015f8282546106149190610cd4565b92505081905550610673565b60028360ff160361064b576001816003015f82825461063f9190610cd4565b92505081905550610672565b5f8360ff1603610671576001816004015f8282546106699190610cd4565b925050819055505b5b5b600160035f3373ffffffffffffffffffffffffffffffffffffffff1673ffffffffffffffffffffffffffffffffffffffff1681526020019081526020015f205f6101000a81548160ff0219169083151502179055506106d06107fc565b816006015f6101000a81548160ff0219169083151502179055505f8160040154826003015483600201546107049190610cd4565b61070e9190610cd4565b905081600501548110610738575f8260060160016101000a81548160ff0219169083151502179055505b50505050565b5f5f90505b6004805490508110156107ec575f60035f60048481548110610768576107676110db565b5b905f5260205f20015f9054906101000a900473ffffffffffffffffffffffffffffffffffffffff1673ffffffffffffffffffffffffffffffffffffffff1673ffffffffffffffffffffffffffffffffffffffff1681526020019081526020015f205f6101000a81548160ff0219169083151502179055508080600101915050610743565b5060045f6107fa9190610875565b565b5f5f60025f60015481526020019081526020015f2090505f816002015490505f826003015490505f83600401549050600160028261083a9190611135565b0361084f5760018161084c9190610cd4565b90505b60028161085c9190611165565b9050808261086a9190610cd4565b831194505050505090565b5080545f8255905f5260205f20908101906108909190610893565b50565b5b808211156108aa575f815f905550600101610894565b5090565b5f5ffd5b5f5ffd5b5f819050919050565b6108c8816108b6565b81146108d2575f5ffd5b50565b5f813590506108e3816108bf565b92915050565b5f602082840312156108fe576108fd6108ae565b5b5f61090b848285016108d5565b91505092915050565b5f81519050919050565b5f82825260208201905092915050565b8281835e5f83830152505050565b5f601f19601f8301169050919050565b5f61095682610914565b610960818561091e565b935061097081856020860161092e565b6109798161093c565b840191505092915050565b61098d816108b6565b82525050565b5f8115159050919050565b6109a781610993565b82525050565b5f610100820190508181035f8301526109c6818b61094c565b905081810360208301526109da818a61094c565b90506109e96040830189610984565b6109f66060830188610984565b610a036080830187610984565b610a1060a0830186610984565b610a1d60c083018561099e565b610a2a60e083018461099e565b9998505050505050505050565b5f5ffd5b5f5ffd5b5f5ffd5b5f5f83601f840112610a5857610a57610a37565b5b8235905067ffffffffffffffff811115610a7557610a74610a3b565b5b602083019150836001820283011115610a9157610a90610a3f565b5b9250929050565b5f5f5f5f5f60608688031215610ab157610ab06108ae565b5b5f86013567ffffffffffffffff811115610ace57610acd6108b2565b5b610ada88828901610a43565b9550955050602086013567ffffffffffffffff811115610afd57610afc6108b2565b5b610b0988828901610a43565b93509350506040610b1c888289016108d5565b9150509295509295909350565b5f73ffffffffffffffffffffffffffffffffffffffff82169050919050565b5f610b5282610b29565b9050919050565b610b6281610b48565b82525050565b5f602082019050610b7b5f830184610b59565b92915050565b5f60ff82169050919050565b610b9681610b81565b8114610ba0575f5ffd5b50565b5f81359050610bb181610b8d565b92915050565b5f60208284031215610bcc57610bcb6108ae565b5b5f610bd984828501610ba3565b91505092915050565b7f4e487b71000000000000000000000000000000000000000000000000000000005f52602260045260245ffd5b5f6002820490506001821680610c2657607f821691505b602082108103610c3957610c38610be2565b5b50919050565b7f4f6e6c79206f776e65722063616e206372656174652070726f706f73616c00005f82015250565b5f610c73601e8361091e565b9150610c7e82610c3f565b602082019050919050565b5f6020820190508181035f830152610ca081610c67565b9050919050565b7f4e487b71000000000000000000000000000000000000000000000000000000005f52601160045260245ffd5b5f610cde826108b6565b9150610ce9836108b6565b9250828201905080821115610d0157610d00610ca7565b5b92915050565b7f4e487b71000000000000000000000000000000000000000000000000000000005f52604160045260245ffd5b5f819050815f5260205f209050919050565b5f6020601f8301049050919050565b5f82821b905092915050565b5f60088302610d907fffffffffffffffffffffffffffffffffffffffffffffffffffffffffffffffff82610d55565b610d9a8683610d55565b95508019841693508086168417925050509392505050565b5f819050919050565b5f610dd5610dd0610dcb846108b6565b610db2565b6108b6565b9050919050565b5f819050919050565b610dee83610dbb565b610e02610dfa82610ddc565b848454610d61565b825550505050565b5f5f905090565b610e19610e0a565b610e24818484610de5565b505050565b5b81811015610e4757610e3c5f82610e11565b600181019050610e2a565b5050565b601f821115610e8c57610e5d81610d34565b610e6684610d46565b81016020851015610e75578190505b610e89610e8185610d46565b830182610e29565b50505b505050565b5f82821c905092915050565b5f610eac5f1984600802610e91565b1980831691505092915050565b5f610ec48383610e9d565b9150826002028217905092915050565b610edd82610914565b67ffffffffffffffff811115610ef657610ef5610d07565b5b610f008254610c0f565b610f0b828285610e4b565b5f60209050601f831160018114610f3c575f8415610f2a578287015190505b610f348582610eb9565b865550610f9b565b601f198416610f4a86610d34565b5f5b82811015610f7157848901518255600182019150602085019450602081019050610f4c565b86831015610f8e5784890151610f8a601f891682610e9d565b8355505b6001600288020188555050505b505050505050565b7f5468652070726f706f73616c206973206e6f74206163746976650000000000005f82015250565b5f610fd7601a8361091e565b9150610fe282610fa3565b602082019050919050565b5f6020820190508181035f83015261100481610fcb565b9050919050565b7f416464726573732068617320616c726561647920766f746564000000000000005f82015250565b5f61103f60198361091e565b915061104a8261100b565b602082019050919050565b5f6020820190508181035f83015261106c81611033565b9050919050565b7f496e76616c696420766f74652063686f696365000000000000000000000000005f82015250565b5f6110a760138361091e565b91506110b282611073565b602082019050919050565b5f6020820190508181035f8301526110d48161109b565b9050919050565b7f4e487b71000000000000000000000000000000000000000000000000000000005f52603260045260245ffd5b7f4e487b71000000000000000000000000000000000000000000000000000000005f52601260045260245ffd5b5f61113f826108b6565b915061114a836108b6565b92508261115a57611159611108565b5b828206905092915050565b5f61116f826108b6565b915061117a836108b6565b92508261118a57611189611108565b5b82820490509291505056fea2646970667358221220be27b5394bd492cae4ec7c59dea8858b62aa4d4470598439344c164c04ba0f3264736f6c634300081e0033",
					"opcodes": "PUSH1 0x80 PUSH1 0x40 MSTORE CALLVALUE DUP1 ISZERO PUSH1 0xE JUMPI PUSH0 PUSH0 REVERT JUMPDEST POP CALLER PUSH0 PUSH0 PUSH2 0x100 EXP DUP2 SLOAD DUP2 PUSH20 0xFFFFFFFFFFFFFFFFFFFFFFFFFFFFFFFFFFFFFFFF MUL NOT AND SWAP1 DUP4 PUSH20 0xFFFFFFFFFFFFFFFFFFFFFFFFFFFFFFFFFFFFFFFF AND MUL OR SWAP1 SSTORE POP PUSH2 0x11CB DUP1 PUSH2 0x5B PUSH0 CODECOPY PUSH0 RETURN INVALID PUSH1 0x80 PUSH1 0x40 MSTORE CALLVALUE DUP1 ISZERO PUSH2 0xF JUMPI PUSH0 PUSH0 REVERT JUMPDEST POP PUSH1 0x4 CALLDATASIZE LT PUSH2 0x4A JUMPI PUSH0 CALLDATALOAD PUSH1 0xE0 SHR DUP1 PUSH4 0x350F0D8C EQ PUSH2 0x4E JUMPI DUP1 PUSH4 0x3CA6D100 EQ PUSH2 0x85 JUMPI DUP1 PUSH4 0x8DA5CB5B EQ PUSH2 0xA1 JUMPI DUP1 PUSH4 0xB3F98ADC EQ PUSH2 0xBF JUMPI JUMPDEST PUSH0 PUSH0 REVERT JUMPDEST PUSH2 0x68 PUSH1 0x4 DUP1 CALLDATASIZE SUB DUP2 ADD SWAP1 PUSH2 0x63 SWAP2 SWAP1 PUSH2 0x8E9 JUMP JUMPDEST PUSH2 0xDB JUMP JUMPDEST PUSH1 0x40 MLOAD PUSH2 0x7C SWAP9 SWAP8 SWAP7 SWAP6 SWAP5 SWAP4 SWAP3 SWAP2 SWAP1 PUSH2 0x9AD JUMP JUMPDEST PUSH1 0x40 MLOAD DUP1 SWAP2 SUB SWAP1 RETURN JUMPDEST PUSH2 0x9F PUSH1 0x4 DUP1 CALLDATASIZE SUB DUP2 ADD SWAP1 PUSH2 0x9A SWAP2 SWAP1 PUSH2 0xA98 JUMP JUMPDEST PUSH2 0x244 JUMP JUMPDEST STOP JUMPDEST PUSH2 0xA9 PUSH2 0x465 JUMP JUMPDEST PUSH1 0x40 MLOAD PUSH2 0xB6 SWAP2 SWAP1 PUSH2 0xB68 JUMP JUMPDEST PUSH1 0x40 MLOAD DUP1 SWAP2 SUB SWAP1 RETURN JUMPDEST PUSH2 0xD9 PUSH1 0x4 DUP1 CALLDATASIZE SUB DUP2 ADD SWAP1 PUSH2 0xD4 SWAP2 SWAP1 PUSH2 0xBB7 JUMP JUMPDEST PUSH2 0x489 JUMP JUMPDEST STOP JUMPDEST PUSH1 0x2 PUSH1 0x20 MSTORE DUP1 PUSH0 MSTORE PUSH1 0x40 PUSH0 KECCAK256 PUSH0 SWAP2 POP SWAP1 POP DUP1 PUSH0 ADD DUP1 SLOAD PUSH2 0xFA SWAP1 PUSH2 0xC0F JUMP JUMPDEST DUP1 PUSH1 0x1F ADD PUSH1 0x20 DUP1 SWAP2 DIV MUL PUSH1 0x20 ADD PUSH1 0x40 MLOAD SWAP1 DUP2 ADD PUSH1 0x40 MSTORE DUP1 SWAP3 SWAP2 SWAP1 DUP2 DUP2 MSTORE PUSH1 0x20 ADD DUP3 DUP1 SLOAD PUSH2 0x126 SWAP1 PUSH2 0xC0F JUMP JUMPDEST DUP1 ISZERO PUSH2 0x171 JUMPI DUP1 PUSH1 0x1F LT PUSH2 0x148 JUMPI PUSH2 0x100 DUP1 DUP4 SLOAD DIV MUL DUP4 MSTORE SWAP2 PUSH1 0x20 ADD SWAP2 PUSH2 0x171 JUMP JUMPDEST DUP3 ADD SWAP2 SWAP1 PUSH0 MSTORE PUSH1 0x20 PUSH0 KECCAK256 SWAP1 JUMPDEST DUP2 SLOAD DUP2 MSTORE SWAP1 PUSH1 0x1 ADD SWAP1 PUSH1 0x20 ADD DUP1 DUP4 GT PUSH2 0x154 JUMPI DUP3 SWAP1 SUB PUSH1 0x1F AND DUP3 ADD SWAP2 JUMPDEST POP POP POP POP POP SWAP1 DUP1 PUSH1 0x1 ADD DUP1 SLOAD PUSH2 0x186 SWAP1 PUSH2 0xC0F JUMP JUMPDEST DUP1 PUSH1 0x1F ADD PUSH1 0x20 DUP1 SWAP2 DIV MUL PUSH1 0x20 ADD PUSH1 0x40 MLOAD SWAP1 DUP2 ADD PUSH1 0x40 MSTORE DUP1 SWAP3 SWAP2 SWAP1 DUP2 DUP2 MSTORE PUSH1 0x20 ADD DUP3 DUP1 SLOAD PUSH2 0x1B2 SWAP1 PUSH2 0xC0F JUMP JUMPDEST DUP1 ISZERO PUSH2 0x1FD JUMPI DUP1 PUSH1 0x1F LT PUSH2 0x1D4 JUMPI PUSH2 0x100 DUP1 DUP4 SLOAD DIV MUL DUP4 MSTORE SWAP2 PUSH1 0x20 ADD SWAP2 PUSH2 0x1FD JUMP JUMPDEST DUP3 ADD SWAP2 SWAP1 PUSH0 MSTORE PUSH1 0x20 PUSH0 KECCAK256 SWAP1 JUMPDEST DUP2 SLOAD DUP2 MSTORE SWAP1 PUSH1 0x1 ADD SWAP1 PUSH1 0x20 ADD DUP1 DUP4 GT PUSH2 0x1E0 JUMPI DUP3 SWAP1 SUB PUSH1 0x1F AND DUP3 ADD SWAP2 JUMPDEST POP POP POP POP POP SWAP1 DUP1 PUSH1 0x2 ADD SLOAD SWAP1 DUP1 PUSH1 0x3 ADD SLOAD SWAP1 DUP1 PUSH1 0x4 ADD SLOAD SWAP1 DUP1 PUSH1 0x5 ADD SLOAD SWAP1 DUP1 PUSH1 0x6 ADD PUSH0 SWAP1 SLOAD SWAP1 PUSH2 0x100 EXP SWAP1 DIV PUSH1 0xFF AND SWAP1 DUP1 PUSH1 0x6 ADD PUSH1 0x1 SWAP1 SLOAD SWAP1 PUSH2 0x100 EXP SWAP1 DIV PUSH1 0xFF AND SWAP1 POP DUP9 JUMP JUMPDEST PUSH0 PUSH0 SWAP1 SLOAD SWAP1 PUSH2 0x100 EXP SWAP1 DIV PUSH20 0xFFFFFFFFFFFFFFFFFFFFFFFFFFFFFFFFFFFFFFFF AND PUSH20 0xFFFFFFFFFFFFFFFFFFFFFFFFFFFFFFFFFFFFFFFF AND CALLER PUSH20 0xFFFFFFFFFFFFFFFFFFFFFFFFFFFFFFFFFFFFFFFF AND EQ PUSH2 0x2D2 JUMPI PUSH1 0x40 MLOAD PUSH32 0x8C379A000000000000000000000000000000000000000000000000000000000 DUP2 MSTORE PUSH1 0x4 ADD PUSH2 0x2C9 SWAP1 PUSH2 0xC89 JUMP JUMPDEST PUSH1 0x40 MLOAD DUP1 SWAP2 SUB SWAP1 REVERT JUMPDEST PUSH1 0x1 DUP1 PUSH0 DUP3 DUP3 SLOAD PUSH2 0x2E3 SWAP2 SWAP1 PUSH2 0xCD4 JUMP JUMPDEST SWAP3 POP POP DUP2 SWAP1 SSTORE POP PUSH1 0x40 MLOAD DUP1 PUSH2 0x100 ADD PUSH1 0x40 MSTORE DUP1 DUP7 DUP7 DUP1 DUP1 PUSH1 0x1F ADD PUSH1 0x20 DUP1 SWAP2 DIV MUL PUSH1 0x20 ADD PUSH1 0x40 MLOAD SWAP1 DUP2 ADD PUSH1 0x40 MSTORE DUP1 SWAP4 SWAP3 SWAP2 SWAP1 DUP2 DUP2 MSTORE PUSH1 0x20 ADD DUP4 DUP4 DUP1 DUP3 DUP5 CALLDATACOPY PUSH0 DUP2 DUP5 ADD MSTORE PUSH1 0x1F NOT PUSH1 0x1F DUP3 ADD AND SWAP1 POP DUP1 DUP4 ADD SWAP3 POP POP POP POP POP POP POP DUP2 MSTORE PUSH1 0x20 ADD DUP5 DUP5 DUP1 DUP1 PUSH1 0x1F ADD PUSH1 0x20 DUP1 SWAP2 DIV MUL PUSH1 0x20 ADD PUSH1 0x40 MLOAD SWAP1 DUP2 ADD PUSH1 0x40 MSTORE DUP1 SWAP4 SWAP3 SWAP2 SWAP1 DUP2 DUP2 MSTORE PUSH1 0x20 ADD DUP4 DUP4 DUP1 DUP3 DUP5 CALLDATACOPY PUSH0 DUP2 DUP5 ADD MSTORE PUSH1 0x1F NOT PUSH1 0x1F DUP3 ADD AND SWAP1 POP DUP1 DUP4 ADD SWAP3 POP POP POP POP POP POP POP DUP2 MSTORE PUSH1 0x20 ADD PUSH0 DUP2 MSTORE PUSH1 0x20 ADD PUSH0 DUP2 MSTORE PUSH1 0x20 ADD PUSH0 DUP2 MSTORE PUSH1 0x20 ADD DUP3 DUP2 MSTORE PUSH1 0x20 ADD PUSH0 ISZERO ISZERO DUP2 MSTORE PUSH1 0x20 ADD PUSH1 0x1 ISZERO ISZERO DUP2 MSTORE POP PUSH1 0x2 PUSH0 PUSH1 0x1 SLOAD DUP2 MSTORE PUSH1 0x20 ADD SWAP1 DUP2 MSTORE PUSH1 0x20 ADD PUSH0 KECCAK256 PUSH0 DUP3 ADD MLOAD DUP2 PUSH0 ADD SWAP1 DUP2 PUSH2 0x3D5 SWAP2 SWAP1 PUSH2 0xED4 JUMP JUMPDEST POP PUSH1 0x20 DUP3 ADD MLOAD DUP2 PUSH1 0x1 ADD SWAP1 DUP2 PUSH2 0x3EB SWAP2 SWAP1 PUSH2 0xED4 JUMP JUMPDEST POP PUSH1 0x40 DUP3 ADD MLOAD DUP2 PUSH1 0x2 ADD SSTORE PUSH1 0x60 DUP3 ADD MLOAD DUP2 PUSH1 0x3 ADD SSTORE PUSH1 0x80 DUP3 ADD MLOAD DUP2 PUSH1 0x4 ADD SSTORE PUSH1 0xA0 DUP3 ADD MLOAD DUP2 PUSH1 0x5 ADD SSTORE PUSH1 0xC0 DUP3 ADD MLOAD DUP2 PUSH1 0x6 ADD PUSH0 PUSH2 0x100 EXP DUP2 SLOAD DUP2 PUSH1 0xFF MUL NOT AND SWAP1 DUP4 ISZERO ISZERO MUL OR SWAP1 SSTORE POP PUSH1 0xE0 DUP3 ADD MLOAD DUP2 PUSH1 0x6 ADD PUSH1 0x1 PUSH2 0x100 EXP DUP2 SLOAD DUP2 PUSH1 0xFF MUL NOT AND SWAP1 DUP4 ISZERO ISZERO MUL OR SWAP1 SSTORE POP SWAP1 POP POP PUSH2 0x45E PUSH2 0x73E JUMP JUMPDEST POP POP POP POP POP JUMP JUMPDEST PUSH0 PUSH0 SWAP1 SLOAD SWAP1 PUSH2 0x100 EXP SWAP1 DIV PUSH20 0xFFFFFFFFFFFFFFFFFFFFFFFFFFFFFFFFFFFFFFFF AND DUP2 JUMP JUMPDEST PUSH1 0x1 ISZERO ISZERO PUSH1 0x2 PUSH0 PUSH1 0x1 SLOAD DUP2 MSTORE PUSH1 0x20 ADD SWAP1 DUP2 MSTORE PUSH1 0x20 ADD PUSH0 KECCAK256 PUSH1 0x6 ADD PUSH1 0x1 SWAP1 SLOAD SWAP1 PUSH2 0x100 EXP SWAP1 DIV PUSH1 0xFF AND ISZERO ISZERO EQ PUSH2 0x4F3 JUMPI PUSH1 0x40 MLOAD PUSH32 0x8C379A000000000000000000000000000000000000000000000000000000000 DUP2 MSTORE PUSH1 0x4 ADD PUSH2 0x4EA SWAP1 PUSH2 0xFED JUMP JUMPDEST PUSH1 0x40 MLOAD DUP1 SWAP2 SUB SWAP1 REVERT JUMPDEST CALLER PUSH1 0x3 PUSH0 DUP3 PUSH20 0xFFFFFFFFFFFFFFFFFFFFFFFFFFFFFFFFFFFFFFFF AND PUSH20 0xFFFFFFFFFFFFFFFFFFFFFFFFFFFFFFFFFFFFFFFF AND DUP2 MSTORE PUSH1 0x20 ADD SWAP1 DUP2 MSTORE PUSH1 0x20 ADD PUSH0 KECCAK256 PUSH0 SWAP1 SLOAD SWAP1 PUSH2 0x100 EXP SWAP1 DIV PUSH1 0xFF AND ISZERO PUSH2 0x57E JUMPI PUSH1 0x40 MLOAD PUSH32 0x8C379A000000000000000000000000000000000000000000000000000000000 DUP2 MSTORE PUSH1 0x4 ADD PUSH2 0x575 SWAP1 PUSH2 0x1055 JUMP JUMPDEST PUSH1 0x40 MLOAD DUP1 SWAP2 SUB SWAP1 REVERT JUMPDEST PUSH0 PUSH1 0x2 PUSH0 PUSH1 0x1 SLOAD DUP2 MSTORE PUSH1 0x20 ADD SWAP1 DUP2 MSTORE PUSH1 0x20 ADD PUSH0 KECCAK256 SWAP1 POP PUSH0 DUP4 PUSH1 0xFF AND EQ DUP1 PUSH2 0x5A8 JUMPI POP PUSH1 0x1 DUP4 PUSH1 0xFF AND EQ JUMPDEST DUP1 PUSH2 0x5B6 JUMPI POP PUSH1 0x2 DUP4 PUSH1 0xFF AND EQ JUMPDEST PUSH2 0x5F5 JUMPI PUSH1 0x40 MLOAD PUSH32 0x8C379A000000000000000000000000000000000000000000000000000000000 DUP2 MSTORE PUSH1 0x4 ADD PUSH2 0x5EC SWAP1 PUSH2 0x10BD JUMP JUMPDEST PUSH1 0x40 MLOAD DUP1 SWAP2 SUB SWAP1 REVERT JUMPDEST PUSH1 0x1 DUP4 PUSH1 0xFF AND SUB PUSH2 0x620 JUMPI PUSH1 0x1 DUP2 PUSH1 0x2 ADD PUSH0 DUP3 DUP3 SLOAD PUSH2 0x614 SWAP2 SWAP1 PUSH2 0xCD4 JUMP JUMPDEST SWAP3 POP POP DUP2 SWAP1 SSTORE POP PUSH2 0x673 JUMP JUMPDEST PUSH1 0x2 DUP4 PUSH1 0xFF AND SUB PUSH2 0x64B JUMPI PUSH1 0x1 DUP2 PUSH1 0x3 ADD PUSH0 DUP3 DUP3 SLOAD PUSH2 0x63F SWAP2 SWAP1 PUSH2 0xCD4 JUMP JUMPDEST SWAP3 POP POP DUP2 SWAP1 SSTORE POP PUSH2 0x672 JUMP JUMPDEST PUSH0 DUP4 PUSH1 0xFF AND SUB PUSH2 0x671 JUMPI PUSH1 0x1 DUP2 PUSH1 0x4 ADD PUSH0 DUP3 DUP3 SLOAD PUSH2 0x669 SWAP2 SWAP1 PUSH2 0xCD4 JUMP JUMPDEST SWAP3 POP POP DUP2 SWAP1 SSTORE POP JUMPDEST JUMPDEST JUMPDEST PUSH1 0x1 PUSH1 0x3 PUSH0 CALLER PUSH20 0xFFFFFFFFFFFFFFFFFFFFFFFFFFFFFFFFFFFFFFFF AND PUSH20 0xFFFFFFFFFFFFFFFFFFFFFFFFFFFFFFFFFFFFFFFF AND DUP2 MSTORE PUSH1 0x20 ADD SWAP1 DUP2 MSTORE PUSH1 0x20 ADD PUSH0 KECCAK256 PUSH0 PUSH2 0x100 EXP DUP2 SLOAD DUP2 PUSH1 0xFF MUL NOT AND SWAP1 DUP4 ISZERO ISZERO MUL OR SWAP1 SSTORE POP PUSH2 0x6D0 PUSH2 0x7FC JUMP JUMPDEST DUP2 PUSH1 0x6 ADD PUSH0 PUSH2 0x100 EXP DUP2 SLOAD DUP2 PUSH1 0xFF MUL NOT AND SWAP1 DUP4 ISZERO ISZERO MUL OR SWAP1 SSTORE POP PUSH0 DUP2 PUSH1 0x4 ADD SLOAD DUP3 PUSH1 0x3 ADD SLOAD DUP4 PUSH1 0x2 ADD SLOAD PUSH2 0x704 SWAP2 SWAP1 PUSH2 0xCD4 JUMP JUMPDEST PUSH2 0x70E SWAP2 SWAP1 PUSH2 0xCD4 JUMP JUMPDEST SWAP1 POP DUP2 PUSH1 0x5 ADD SLOAD DUP2 LT PUSH2 0x738 JUMPI PUSH0 DUP3 PUSH1 0x6 ADD PUSH1 0x1 PUSH2 0x100 EXP DUP2 SLOAD DUP2 PUSH1 0xFF MUL NOT AND SWAP1 DUP4 ISZERO ISZERO MUL OR SWAP1 SSTORE POP JUMPDEST POP POP POP POP JUMP JUMPDEST PUSH0 PUSH0 SWAP1 POP JUMPDEST PUSH1 0x4 DUP1 SLOAD SWAP1 POP DUP2 LT ISZERO PUSH2 0x7EC JUMPI PUSH0 PUSH1 0x3 PUSH0 PUSH1 0x4 DUP5 DUP2 SLOAD DUP2 LT PUSH2 0x768 JUMPI PUSH2 0x767 PUSH2 0x10DB JUMP JUMPDEST JUMPDEST SWAP1 PUSH0 MSTORE PUSH1 0x20 PUSH0 KECCAK256 ADD PUSH0 SWAP1 SLOAD SWAP1 PUSH2 0x100 EXP SWAP1 DIV PUSH20 0xFFFFFFFFFFFFFFFFFFFFFFFFFFFFFFFFFFFFFFFF AND PUSH20 0xFFFFFFFFFFFFFFFFFFFFFFFFFFFFFFFFFFFFFFFF AND PUSH20 0xFFFFFFFFFFFFFFFFFFFFFFFFFFFFFFFFFFFFFFFF AND DUP2 MSTORE PUSH1 0x20 ADD SWAP1 DUP2 MSTORE PUSH1 0x20 ADD PUSH0 KECCAK256 PUSH0 PUSH2 0x100 EXP DUP2 SLOAD DUP2 PUSH1 0xFF MUL NOT AND SWAP1 DUP4 ISZERO ISZERO MUL OR SWAP1 SSTORE POP DUP1 DUP1 PUSH1 0x1 ADD SWAP2 POP POP PUSH2 0x743 JUMP JUMPDEST POP PUSH1 0x4 PUSH0 PUSH2 0x7FA SWAP2 SWAP1 PUSH2 0x875 JUMP JUMPDEST JUMP JUMPDEST PUSH0 PUSH0 PUSH1 0x2 PUSH0 PUSH1 0x1 SLOAD DUP2 MSTORE PUSH1 0x20 ADD SWAP1 DUP2 MSTORE PUSH1 0x20 ADD PUSH0 KECCAK256 SWAP1 POP PUSH0 DUP2 PUSH1 0x2 ADD SLOAD SWAP1 POP PUSH0 DUP3 PUSH1 0x3 ADD SLOAD SWAP1 POP PUSH0 DUP4 PUSH1 0x4 ADD SLOAD SWAP1 POP PUSH1 0x1 PUSH1 0x2 DUP3 PUSH2 0x83A SWAP2 SWAP1 PUSH2 0x1135 JUMP JUMPDEST SUB PUSH2 0x84F JUMPI PUSH1 0x1 DUP2 PUSH2 0x84C SWAP2 SWAP1 PUSH2 0xCD4 JUMP JUMPDEST SWAP1 POP JUMPDEST PUSH1 0x2 DUP2 PUSH2 0x85C SWAP2 SWAP1 PUSH2 0x1165 JUMP JUMPDEST SWAP1 POP DUP1 DUP3 PUSH2 0x86A SWAP2 SWAP1 PUSH2 0xCD4 JUMP JUMPDEST DUP4 GT SWAP5 POP POP POP POP POP SWAP1 JUMP JUMPDEST POP DUP1 SLOAD PUSH0 DUP3 SSTORE SWAP1 PUSH0 MSTORE PUSH1 0x20 PUSH0 KECCAK256 SWAP1 DUP2 ADD SWAP1 PUSH2 0x890 SWAP2 SWAP1 PUSH2 0x893 JUMP JUMPDEST POP JUMP JUMPDEST JUMPDEST DUP1 DUP3 GT ISZERO PUSH2 0x8AA JUMPI PUSH0 DUP2 PUSH0 SWAP1 SSTORE POP PUSH1 0x1 ADD PUSH2 0x894 JUMP JUMPDEST POP SWAP1 JUMP JUMPDEST PUSH0 PUSH0 REVERT JUMPDEST PUSH0 PUSH0 REVERT JUMPDEST PUSH0 DUP2 SWAP1 POP SWAP2 SWAP1 POP JUMP JUMPDEST PUSH2 0x8C8 DUP2 PUSH2 0x8B6 JUMP JUMPDEST DUP2 EQ PUSH2 0x8D2 JUMPI PUSH0 PUSH0 REVERT JUMPDEST POP JUMP JUMPDEST PUSH0 DUP2 CALLDATALOAD SWAP1 POP PUSH2 0x8E3 DUP2 PUSH2 0x8BF JUMP JUMPDEST SWAP3 SWAP2 POP POP JUMP JUMPDEST PUSH0 PUSH1 0x20 DUP3 DUP5 SUB SLT ISZERO PUSH2 0x8FE JUMPI PUSH2 0x8FD PUSH2 0x8AE JUMP JUMPDEST JUMPDEST PUSH0 PUSH2 0x90B DUP5 DUP3 DUP6 ADD PUSH2 0x8D5 JUMP JUMPDEST SWAP2 POP POP SWAP3 SWAP2 POP POP JUMP JUMPDEST PUSH0 DUP2 MLOAD SWAP1 POP SWAP2 SWAP1 POP JUMP JUMPDEST PUSH0 DUP3 DUP3 MSTORE PUSH1 0x20 DUP3 ADD SWAP1 POP SWAP3 SWAP2 POP POP JUMP JUMPDEST DUP3 DUP2 DUP4 MCOPY PUSH0 DUP4 DUP4 ADD MSTORE POP POP POP JUMP JUMPDEST PUSH0 PUSH1 0x1F NOT PUSH1 0x1F DUP4 ADD AND SWAP1 POP SWAP2 SWAP1 POP JUMP JUMPDEST PUSH0 PUSH2 0x956 DUP3 PUSH2 0x914 JUMP JUMPDEST PUSH2 0x960 DUP2 DUP6 PUSH2 0x91E JUMP JUMPDEST SWAP4 POP PUSH2 0x970 DUP2 DUP6 PUSH1 0x20 DUP7 ADD PUSH2 0x92E JUMP JUMPDEST PUSH2 0x979 DUP2 PUSH2 0x93C JUMP JUMPDEST DUP5 ADD SWAP2 POP POP SWAP3 SWAP2 POP POP JUMP JUMPDEST PUSH2 0x98D DUP2 PUSH2 0x8B6 JUMP JUMPDEST DUP3 MSTORE POP POP JUMP JUMPDEST PUSH0 DUP2 ISZERO ISZERO SWAP1 POP SWAP2 SWAP1 POP JUMP JUMPDEST PUSH2 0x9A7 DUP2 PUSH2 0x993 JUMP JUMPDEST DUP3 MSTORE POP POP JUMP JUMPDEST PUSH0 PUSH2 0x100 DUP3 ADD SWAP1 POP DUP2 DUP2 SUB PUSH0 DUP4 ADD MSTORE PUSH2 0x9C6 DUP2 DUP12 PUSH2 0x94C JUMP JUMPDEST SWAP1 POP DUP2 DUP2 SUB PUSH1 0x20 DUP4 ADD MSTORE PUSH2 0x9DA DUP2 DUP11 PUSH2 0x94C JUMP JUMPDEST SWAP1 POP PUSH2 0x9E9 PUSH1 0x40 DUP4 ADD DUP10 PUSH2 0x984 JUMP JUMPDEST PUSH2 0x9F6 PUSH1 0x60 DUP4 ADD DUP9 PUSH2 0x984 JUMP JUMPDEST PUSH2 0xA03 PUSH1 0x80 DUP4 ADD DUP8 PUSH2 0x984 JUMP JUMPDEST PUSH2 0xA10 PUSH1 0xA0 DUP4 ADD DUP7 PUSH2 0x984 JUMP JUMPDEST PUSH2 0xA1D PUSH1 0xC0 DUP4 ADD DUP6 PUSH2 0x99E JUMP JUMPDEST PUSH2 0xA2A PUSH1 0xE0 DUP4 ADD DUP5 PUSH2 0x99E JUMP JUMPDEST SWAP10 SWAP9 POP POP POP POP POP POP POP POP POP JUMP JUMPDEST PUSH0 PUSH0 REVERT JUMPDEST PUSH0 PUSH0 REVERT JUMPDEST PUSH0 PUSH0 REVERT JUMPDEST PUSH0 PUSH0 DUP4 PUSH1 0x1F DUP5 ADD SLT PUSH2 0xA58 JUMPI PUSH2 0xA57 PUSH2 0xA37 JUMP JUMPDEST JUMPDEST DUP3 CALLDATALOAD SWAP1 POP PUSH8 0xFFFFFFFFFFFFFFFF DUP2 GT ISZERO PUSH2 0xA75 JUMPI PUSH2 0xA74 PUSH2 0xA3B JUMP JUMPDEST JUMPDEST PUSH1 0x20 DUP4 ADD SWAP2 POP DUP4 PUSH1 0x1 DUP3 MUL DUP4 ADD GT ISZERO PUSH2 0xA91 JUMPI PUSH2 0xA90 PUSH2 0xA3F JUMP JUMPDEST JUMPDEST SWAP3 POP SWAP3 SWAP1 POP JUMP JUMPDEST PUSH0 PUSH0 PUSH0 PUSH0 PUSH0 PUSH1 0x60 DUP7 DUP9 SUB SLT ISZERO PUSH2 0xAB1 JUMPI PUSH2 0xAB0 PUSH2 0x8AE JUMP JUMPDEST JUMPDEST PUSH0 DUP7 ADD CALLDATALOAD PUSH8 0xFFFFFFFFFFFFFFFF DUP2 GT ISZERO PUSH2 0xACE JUMPI PUSH2 0xACD PUSH2 0x8B2 JUMP JUMPDEST JUMPDEST PUSH2 0xADA DUP9 DUP3 DUP10 ADD PUSH2 0xA43 JUMP JUMPDEST SWAP6 POP SWAP6 POP POP PUSH1 0x20 DUP7 ADD CALLDATALOAD PUSH8 0xFFFFFFFFFFFFFFFF DUP2 GT ISZERO PUSH2 0xAFD JUMPI PUSH2 0xAFC PUSH2 0x8B2 JUMP JUMPDEST JUMPDEST PUSH2 0xB09 DUP9 DUP3 DUP10 ADD PUSH2 0xA43 JUMP JUMPDEST SWAP4 POP SWAP4 POP POP PUSH1 0x40 PUSH2 0xB1C DUP9 DUP3 DUP10 ADD PUSH2 0x8D5 JUMP JUMPDEST SWAP2 POP POP SWAP3 SWAP6 POP SWAP3 SWAP6 SWAP1 SWAP4 POP JUMP JUMPDEST PUSH0 PUSH20 0xFFFFFFFFFFFFFFFFFFFFFFFFFFFFFFFFFFFFFFFF DUP3 AND SWAP1 POP SWAP2 SWAP1 POP JUMP JUMPDEST PUSH0 PUSH2 0xB52 DUP3 PUSH2 0xB29 JUMP JUMPDEST SWAP1 POP SWAP2 SWAP1 POP JUMP JUMPDEST PUSH2 0xB62 DUP2 PUSH2 0xB48 JUMP JUMPDEST DUP3 MSTORE POP POP JUMP JUMPDEST PUSH0 PUSH1 0x20 DUP3 ADD SWAP1 POP PUSH2 0xB7B PUSH0 DUP4 ADD DUP5 PUSH2 0xB59 JUMP JUMPDEST SWAP3 SWAP2 POP POP JUMP JUMPDEST PUSH0 PUSH1 0xFF DUP3 AND SWAP1 POP SWAP2 SWAP1 POP JUMP JUMPDEST PUSH2 0xB96 DUP2 PUSH2 0xB81 JUMP JUMPDEST DUP2 EQ PUSH2 0xBA0 JUMPI PUSH0 PUSH0 REVERT JUMPDEST POP JUMP JUMPDEST PUSH0 DUP2 CALLDATALOAD SWAP1 POP PUSH2 0xBB1 DUP2 PUSH2 0xB8D JUMP JUMPDEST SWAP3 SWAP2 POP POP JUMP JUMPDEST PUSH0 PUSH1 0x20 DUP3 DUP5 SUB SLT ISZERO PUSH2 0xBCC JUMPI PUSH2 0xBCB PUSH2 0x8AE JUMP JUMPDEST JUMPDEST PUSH0 PUSH2 0xBD9 DUP5 DUP3 DUP6 ADD PUSH2 0xBA3 JUMP JUMPDEST SWAP2 POP POP SWAP3 SWAP2 POP POP JUMP JUMPDEST PUSH32 0x4E487B7100000000000000000000000000000000000000000000000000000000 PUSH0 MSTORE PUSH1 0x22 PUSH1 0x4 MSTORE PUSH1 0x24 PUSH0 REVERT JUMPDEST PUSH0 PUSH1 0x2 DUP3 DIV SWAP1 POP PUSH1 0x1 DUP3 AND DUP1 PUSH2 0xC26 JUMPI PUSH1 0x7F DUP3 AND SWAP2 POP JUMPDEST PUSH1 0x20 DUP3 LT DUP2 SUB PUSH2 0xC39 JUMPI PUSH2 0xC38 PUSH2 0xBE2 JUMP JUMPDEST JUMPDEST POP SWAP2 SWAP1 POP JUMP JUMPDEST PUSH32 0x4F6E6C79206F776E65722063616E206372656174652070726F706F73616C0000 PUSH0 DUP3 ADD MSTORE POP JUMP JUMPDEST PUSH0 PUSH2 0xC73 PUSH1 0x1E DUP4 PUSH2 0x91E JUMP JUMPDEST SWAP2 POP PUSH2 0xC7E DUP3 PUSH2 0xC3F JUMP JUMPDEST PUSH1 0x20 DUP3 ADD SWAP1 POP SWAP2 SWAP1 POP JUMP JUMPDEST PUSH0 PUSH1 0x20 DUP3 ADD SWAP1 POP DUP2 DUP2 SUB PUSH0 DUP4 ADD MSTORE PUSH2 0xCA0 DUP2 PUSH2 0xC67 JUMP JUMPDEST SWAP1 POP SWAP2 SWAP1 POP JUMP JUMPDEST PUSH32 0x4E487B7100000000000000000000000000000000000000000000000000000000 PUSH0 MSTORE PUSH1 0x11 PUSH1 0x4 MSTORE PUSH1 0x24 PUSH0 REVERT JUMPDEST PUSH0 PUSH2 0xCDE DUP3 PUSH2 0x8B6 JUMP JUMPDEST SWAP2 POP PUSH2 0xCE9 DUP4 PUSH2 0x8B6 JUMP JUMPDEST SWAP3 POP DUP3 DUP3 ADD SWAP1 POP DUP1 DUP3 GT ISZERO PUSH2 0xD01 JUMPI PUSH2 0xD00 PUSH2 0xCA7 JUMP JUMPDEST JUMPDEST SWAP3 SWAP2 POP POP JUMP JUMPDEST PUSH32 0x4E487B7100000000000000000000000000000000000000000000000000000000 PUSH0 MSTORE PUSH1 0x41 PUSH1 0x4 MSTORE PUSH1 0x24 PUSH0 REVERT JUMPDEST PUSH0 DUP2 SWAP1 POP DUP2 PUSH0 MSTORE PUSH1 0x20 PUSH0 KECCAK256 SWAP1 POP SWAP2 SWAP1 POP JUMP JUMPDEST PUSH0 PUSH1 0x20 PUSH1 0x1F DUP4 ADD DIV SWAP1 POP SWAP2 SWAP1 POP JUMP JUMPDEST PUSH0 DUP3 DUP3 SHL SWAP1 POP SWAP3 SWAP2 POP POP JUMP JUMPDEST PUSH0 PUSH1 0x8 DUP4 MUL PUSH2 0xD90 PUSH32 0xFFFFFFFFFFFFFFFFFFFFFFFFFFFFFFFFFFFFFFFFFFFFFFFFFFFFFFFFFFFFFFFF DUP3 PUSH2 0xD55 JUMP JUMPDEST PUSH2 0xD9A DUP7 DUP4 PUSH2 0xD55 JUMP JUMPDEST SWAP6 POP DUP1 NOT DUP5 AND SWAP4 POP DUP1 DUP7 AND DUP5 OR SWAP3 POP POP POP SWAP4 SWAP3 POP POP POP JUMP JUMPDEST PUSH0 DUP2 SWAP1 POP SWAP2 SWAP1 POP JUMP JUMPDEST PUSH0 PUSH2 0xDD5 PUSH2 0xDD0 PUSH2 0xDCB DUP5 PUSH2 0x8B6 JUMP JUMPDEST PUSH2 0xDB2 JUMP JUMPDEST PUSH2 0x8B6 JUMP JUMPDEST SWAP1 POP SWAP2 SWAP1 POP JUMP JUMPDEST PUSH0 DUP2 SWAP1 POP SWAP2 SWAP1 POP JUMP JUMPDEST PUSH2 0xDEE DUP4 PUSH2 0xDBB JUMP JUMPDEST PUSH2 0xE02 PUSH2 0xDFA DUP3 PUSH2 0xDDC JUMP JUMPDEST DUP5 DUP5 SLOAD PUSH2 0xD61 JUMP JUMPDEST DUP3 SSTORE POP POP POP POP JUMP JUMPDEST PUSH0 PUSH0 SWAP1 POP SWAP1 JUMP JUMPDEST PUSH2 0xE19 PUSH2 0xE0A JUMP JUMPDEST PUSH2 0xE24 DUP2 DUP5 DUP5 PUSH2 0xDE5 JUMP JUMPDEST POP POP POP JUMP JUMPDEST JUMPDEST DUP2 DUP2 LT ISZERO PUSH2 0xE47 JUMPI PUSH2 0xE3C PUSH0 DUP3 PUSH2 0xE11 JUMP JUMPDEST PUSH1 0x1 DUP2 ADD SWAP1 POP PUSH2 0xE2A JUMP JUMPDEST POP POP JUMP JUMPDEST PUSH1 0x1F DUP3 GT ISZERO PUSH2 0xE8C JUMPI PUSH2 0xE5D DUP2 PUSH2 0xD34 JUMP JUMPDEST PUSH2 0xE66 DUP5 PUSH2 0xD46 JUMP JUMPDEST DUP2 ADD PUSH1 0x20 DUP6 LT ISZERO PUSH2 0xE75 JUMPI DUP2 SWAP1 POP JUMPDEST PUSH2 0xE89 PUSH2 0xE81 DUP6 PUSH2 0xD46 JUMP JUMPDEST DUP4 ADD DUP3 PUSH2 0xE29 JUMP JUMPDEST POP POP JUMPDEST POP POP POP JUMP JUMPDEST PUSH0 DUP3 DUP3 SHR SWAP1 POP SWAP3 SWAP2 POP POP JUMP JUMPDEST PUSH0 PUSH2 0xEAC PUSH0 NOT DUP5 PUSH1 0x8 MUL PUSH2 0xE91 JUMP JUMPDEST NOT DUP1 DUP4 AND SWAP2 POP POP SWAP3 SWAP2 POP POP JUMP JUMPDEST PUSH0 PUSH2 0xEC4 DUP4 DUP4 PUSH2 0xE9D JUMP JUMPDEST SWAP2 POP DUP3 PUSH1 0x2 MUL DUP3 OR SWAP1 POP SWAP3 SWAP2 POP POP JUMP JUMPDEST PUSH2 0xEDD DUP3 PUSH2 0x914 JUMP JUMPDEST PUSH8 0xFFFFFFFFFFFFFFFF DUP2 GT ISZERO PUSH2 0xEF6 JUMPI PUSH2 0xEF5 PUSH2 0xD07 JUMP JUMPDEST JUMPDEST PUSH2 0xF00 DUP3 SLOAD PUSH2 0xC0F JUMP JUMPDEST PUSH2 0xF0B DUP3 DUP3 DUP6 PUSH2 0xE4B JUMP JUMPDEST PUSH0 PUSH1 0x20 SWAP1 POP PUSH1 0x1F DUP4 GT PUSH1 0x1 DUP2 EQ PUSH2 0xF3C JUMPI PUSH0 DUP5 ISZERO PUSH2 0xF2A JUMPI DUP3 DUP8 ADD MLOAD SWAP1 POP JUMPDEST PUSH2 0xF34 DUP6 DUP3 PUSH2 0xEB9 JUMP JUMPDEST DUP7 SSTORE POP PUSH2 0xF9B JUMP JUMPDEST PUSH1 0x1F NOT DUP5 AND PUSH2 0xF4A DUP7 PUSH2 0xD34 JUMP JUMPDEST PUSH0 JUMPDEST DUP3 DUP2 LT ISZERO PUSH2 0xF71 JUMPI DUP5 DUP10 ADD MLOAD DUP3 SSTORE PUSH1 0x1 DUP3 ADD SWAP2 POP PUSH1 0x20 DUP6 ADD SWAP5 POP PUSH1 0x20 DUP2 ADD SWAP1 POP PUSH2 0xF4C JUMP JUMPDEST DUP7 DUP4 LT ISZERO PUSH2 0xF8E JUMPI DUP5 DUP10 ADD MLOAD PUSH2 0xF8A PUSH1 0x1F DUP10 AND DUP3 PUSH2 0xE9D JUMP JUMPDEST DUP4 SSTORE POP JUMPDEST PUSH1 0x1 PUSH1 0x2 DUP9 MUL ADD DUP9 SSTORE POP POP POP JUMPDEST POP POP POP POP POP POP JUMP JUMPDEST PUSH32 0x5468652070726F706F73616C206973206E6F7420616374697665000000000000 PUSH0 DUP3 ADD MSTORE POP JUMP JUMPDEST PUSH0 PUSH2 0xFD7 PUSH1 0x1A DUP4 PUSH2 0x91E JUMP JUMPDEST SWAP2 POP PUSH2 0xFE2 DUP3 PUSH2 0xFA3 JUMP JUMPDEST PUSH1 0x20 DUP3 ADD SWAP1 POP SWAP2 SWAP1 POP JUMP JUMPDEST PUSH0 PUSH1 0x20 DUP3 ADD SWAP1 POP DUP2 DUP2 SUB PUSH0 DUP4 ADD MSTORE PUSH2 0x1004 DUP2 PUSH2 0xFCB JUMP JUMPDEST SWAP1 POP SWAP2 SWAP1 POP JUMP JUMPDEST PUSH32 0x416464726573732068617320616C726561647920766F74656400000000000000 PUSH0 DUP3 ADD MSTORE POP JUMP JUMPDEST PUSH0 PUSH2 0x103F PUSH1 0x19 DUP4 PUSH2 0x91E JUMP JUMPDEST SWAP2 POP PUSH2 0x104A DUP3 PUSH2 0x100B JUMP JUMPDEST PUSH1 0x20 DUP3 ADD SWAP1 POP SWAP2 SWAP1 POP JUMP JUMPDEST PUSH0 PUSH1 0x20 DUP3 ADD SWAP1 POP DUP2 DUP2 SUB PUSH0 DUP4 ADD MSTORE PUSH2 0x106C DUP2 PUSH2 0x1033 JUMP JUMPDEST SWAP1 POP SWAP2 SWAP1 POP JUMP JUMPDEST PUSH32 0x496E76616C696420766F74652063686F69636500000000000000000000000000 PUSH0 DUP3 ADD MSTORE POP JUMP JUMPDEST PUSH0 PUSH2 0x10A7 PUSH1 0x13 DUP4 PUSH2 0x91E JUMP JUMPDEST SWAP2 POP PUSH2 0x10B2 DUP3 PUSH2 0x1073 JUMP JUMPDEST PUSH1 0x20 DUP3 ADD SWAP1 POP SWAP2 SWAP1 POP JUMP JUMPDEST PUSH0 PUSH1 0x20 DUP3 ADD SWAP1 POP DUP2 DUP2 SUB PUSH0 DUP4 ADD MSTORE PUSH2 0x10D4 DUP2 PUSH2 0x109B JUMP JUMPDEST SWAP1 POP SWAP2 SWAP1 POP JUMP JUMPDEST PUSH32 0x4E487B7100000000000000000000000000000000000000000000000000000000 PUSH0 MSTORE PUSH1 0x32 PUSH1 0x4 MSTORE PUSH1 0x24 PUSH0 REVERT JUMPDEST PUSH32 0x4E487B7100000000000000000000000000000000000000000000000000000000 PUSH0 MSTORE PUSH1 0x12 PUSH1 0x4 MSTORE PUSH1 0x24 PUSH0 REVERT JUMPDEST PUSH0 PUSH2 0x113F DUP3 PUSH2 0x8B6 JUMP JUMPDEST SWAP2 POP PUSH2 0x114A DUP4 PUSH2 0x8B6 JUMP JUMPDEST SWAP3 POP DUP3 PUSH2 0x115A JUMPI PUSH2 0x1159 PUSH2 0x1108 JUMP JUMPDEST JUMPDEST DUP3 DUP3 MOD SWAP1 POP SWAP3 SWAP2 POP POP JUMP JUMPDEST PUSH0 PUSH2 0x116F DUP3 PUSH2 0x8B6 JUMP JUMPDEST SWAP2 POP PUSH2 0x117A DUP4 PUSH2 0x8B6 JUMP JUMPDEST SWAP3 POP DUP3 PUSH2 0x118A JUMPI PUSH2 0x1189 PUSH2 0x1108 JUMP JUMPDEST JUMPDEST DUP3 DUP3 DIV SWAP1 POP SWAP3 SWAP2 POP POP JUMP INVALID LOG2 PUSH5 0x6970667358 0x22 SLT KECCAK256 0xBE 0x27 0xB5 CODECOPY 0x4B 0xD4 SWAP3 0xCA RETF EOFCREATE 0x7C MSIZE 0xDE 0xA8 DUP6 DUP12 PUSH3 0xAA4D44 PUSH17 0x598439344C164C04BA0F3264736F6C6343 STOP ADDMOD 0x1E STOP CALLER "
				},
				"gasEstimates": {
					"creation": {
						"codeDepositCost": "911000",
						"executionCost": "25210",
						"totalCost": "936210"
					},
					"external": {
						"create(string,string,uint256)": "infinite",
						"owner()": "2529",
						"proposal_history(uint256)": "infinite",
						"vote(uint8)": "infinite"
					},
					"internal": {
						"calculateCurrentState()": "infinite",
						"isVoted(address)": "infinite",
						"resetVotes()": "infinite"
					}
				},
				"methodIdentifiers": {
					"create(string,string,uint256)": "3ca6d100",
					"owner()": "8da5cb5b",
					"proposal_history(uint256)": "350f0d8c",
					"vote(uint8)": "b3f98adc"
				}
			},
			"storageLayout": {
				"storage": [
					{
						"astId": 3,
						"contract": "contracts/4_ProposalContract.sol:ProposalContract",
						"label": "owner",
						"offset": 0,
						"slot": "0",
						"type": "t_address"
					},
					{
						"astId": 5,
						"contract": "contracts/4_ProposalContract.sol:ProposalContract",
						"label": "counter",
						"offset": 0,
						"slot": "1",
						"type": "t_uint256"
					},
					{
						"astId": 10,
						"contract": "contracts/4_ProposalContract.sol:ProposalContract",
						"label": "proposal_history",
						"offset": 0,
						"slot": "2",
						"type": "t_mapping(t_uint256,t_struct(Proposal)31_storage)"
					},
					{
						"astId": 14,
						"contract": "contracts/4_ProposalContract.sol:ProposalContract",
						"label": "hasVoted",
						"offset": 0,
						"slot": "3",
						"type": "t_mapping(t_address,t_bool)"
					},
					{
						"astId": 301,
						"contract": "contracts/4_ProposalContract.sol:ProposalContract",
						"label": "voted_addresses",
						"offset": 0,
						"slot": "4",
						"type": "t_array(t_address)dyn_storage"
					}
				],
				"types": {
					"t_address": {
						"encoding": "inplace",
						"label": "address",
						"numberOfBytes": "20"
					},
					"t_array(t_address)dyn_storage": {
						"base": "t_address",
						"encoding": "dynamic_array",
						"label": "address[]",
						"numberOfBytes": "32"
					},
					"t_bool": {
						"encoding": "inplace",
						"label": "bool",
						"numberOfBytes": "1"
					},
					"t_mapping(t_address,t_bool)": {
						"encoding": "mapping",
						"key": "t_address",
						"label": "mapping(address => bool)",
						"numberOfBytes": "32",
						"value": "t_bool"
					},
					"t_mapping(t_uint256,t_struct(Proposal)31_storage)": {
						"encoding": "mapping",
						"key": "t_uint256",
						"label": "mapping(uint256 => struct ProposalContract.Proposal)",
						"numberOfBytes": "32",
						"value": "t_struct(Proposal)31_storage"
					},
					"t_string_storage": {
						"encoding": "bytes",
						"label": "string",
						"numberOfBytes": "32"
					},
					"t_struct(Proposal)31_storage": {
						"encoding": "inplace",
						"label": "struct ProposalContract.Proposal",
						"members": [
							{
								"astId": 16,
								"contract": "contracts/4_ProposalContract.sol:ProposalContract",
								"label": "title",
								"offset": 0,
								"slot": "0",
								"type": "t_string_storage"
							},
							{
								"astId": 18,
								"contract": "contracts/4_ProposalContract.sol:ProposalContract",
								"label": "description",
								"offset": 0,
								"slot": "1",
								"type": "t_string_storage"
							},
							{
								"astId": 20,
								"contract": "contracts/4_ProposalContract.sol:ProposalContract",
								"label": "approve",
								"offset": 0,
								"slot": "2",
								"type": "t_uint256"
							},
							{
								"astId": 22,
								"contract": "contracts/4_ProposalContract.sol:ProposalContract",
								"label": "reject",
								"offset": 0,
								"slot": "3",
								"type": "t_uint256"
							},
							{
								"astId": 24,
								"contract": "contracts/4_ProposalContract.sol:ProposalContract",
								"label": "pass",
								"offset": 0,
								"slot": "4",
								"type": "t_uint256"
							},
							{
								"astId": 26,
								"contract": "contracts/4_ProposalContract.sol:ProposalContract",
								"label": "total_vote_to_end",
								"offset": 0,
								"slot": "5",
								"type": "t_uint256"
							},
							{
								"astId": 28,
								"contract": "contracts/4_ProposalContract.sol:ProposalContract",
								"label": "current_state",
								"offset": 0,
								"slot": "6",
								"type": "t_bool"
							},
							{
								"astId": 30,
								"contract": "contracts/4_ProposalContract.sol:ProposalContract",
								"label": "is_active",
								"offset": 1,
								"slot": "6",
								"type": "t_bool"
							}
						],
						"numberOfBytes": "224"
					},
					"t_uint256": {
						"encoding": "inplace",
						"label": "uint256",
						"numberOfBytes": "32"
					}
				}
			},
			"userdoc": {
				"kind": "user",
				"methods": {},
				"version": 1
			}
		}
	}
}